{"abi":[{"type":"function","name":"DEFAULT_ADMIN_ROLE","inputs":[],"outputs":[{"name":"","type":"bytes32","internalType":"bytes32"}],"stateMutability":"view"},{"type":"function","name":"UPGRADE_INTERFACE_VERSION","inputs":[],"outputs":[{"name":"","type":"string","internalType":"string"}],"stateMutability":"view"},{"type":"function","name":"allowance","inputs":[{"name":"_owner","type":"address","internalType":"address"},{"name":"_spender","type":"address","internalType":"address"}],"outputs":[{"name":"","type":"uint256","internalType":"uint256"}],"stateMutability":"view"},{"type":"function","name":"approve","inputs":[{"name":"_spender","type":"address","internalType":"address"},{"name":"_amount","type":"uint256","internalType":"uint256"}],"outputs":[{"name":"","type":"bool","internalType":"bool"}],"stateMutability":"nonpayable"},{"type":"function","name":"balanceOf","inputs":[{"name":"_userAddress","type":"address","internalType":"address"}],"outputs":[{"name":"","type":"uint256","internalType":"uint256"}],"stateMutability":"view"},{"type":"function","name":"batchBurn","inputs":[{"name":"_userAddresses","type":"address[]","internalType":"address[]"},{"name":"_amounts","type":"uint256[]","internalType":"uint256[]"}],"outputs":[],"stateMutability":"nonpayable"},{"type":"function","name":"batchForcedTransfer","inputs":[{"name":"_fromList","type":"address[]","internalType":"address[]"},{"name":"_toList","type":"address[]","internalType":"address[]"},{"name":"_amounts","type":"uint256[]","internalType":"uint256[]"}],"outputs":[],"stateMutability":"nonpayable"},{"type":"function","name":"batchFreezePartialTokens","inputs":[{"name":"_userAddresses","type":"address[]","internalType":"address[]"},{"name":"_amounts","type":"uint256[]","internalType":"uint256[]"}],"outputs":[],"stateMutability":"nonpayable"},{"type":"function","name":"batchMint","inputs":[{"name":"_toList","type":"address[]","internalType":"address[]"},{"name":"_amounts","type":"uint256[]","internalType":"uint256[]"}],"outputs":[],"stateMutability":"nonpayable"},{"type":"function","name":"batchSetAddressFrozen","inputs":[{"name":"_userAddresses","type":"address[]","internalType":"address[]"},{"name":"_freeze","type":"bool[]","internalType":"bool[]"}],"outputs":[],"stateMutability":"nonpayable"},{"type":"function","name":"batchTransfer","inputs":[{"name":"_toList","type":"address[]","internalType":"address[]"},{"name":"_amounts","type":"uint256[]","internalType":"uint256[]"}],"outputs":[],"stateMutability":"nonpayable"},{"type":"function","name":"batchUnfreezePartialTokens","inputs":[{"name":"_userAddresses","type":"address[]","internalType":"address[]"},{"name":"_amounts","type":"uint256[]","internalType":"uint256[]"}],"outputs":[],"stateMutability":"nonpayable"},{"type":"function","name":"burn","inputs":[{"name":"_userAddress","type":"address","internalType":"address"},{"name":"_amount","type":"uint256","internalType":"uint256"}],"outputs":[],"stateMutability":"nonpayable"},{"type":"function","name":"compliance","inputs":[],"outputs":[{"name":"","type":"address","internalType":"contract ICompliance"}],"stateMutability":"view"},{"type":"function","name":"config","inputs":[],"outputs":[{"name":"info","type":"tuple","internalType":"struct ProplexRealEstateToken.TokenInfo","components":[{"name":"name","type":"string","internalType":"string"},{"name":"symbol","type":"string","internalType":"string"},{"name":"decimals","type":"uint8","internalType":"uint8"},{"name":"maxSupply","type":"uint256","internalType":"uint256"},{"name":"tokenPrice","type":"uint256","internalType":"uint256"},{"name":"cancelDelay","type":"uint48","internalType":"uint48"},{"name":"assetType","type":"uint8","internalType":"enum ProplexRealEstateToken.AssetType"}]},{"name":"gov","type":"tuple","internalType":"struct ProplexRealEstateToken.GovernanceConfig","components":[{"name":"identityRegistry","type":"address","internalType":"address"},{"name":"compliance","type":"address","internalType":"address"},{"name":"onchainID","type":"address","internalType":"address"},{"name":"projectOwner","type":"address","internalType":"address"},{"name":"factory","type":"address","internalType":"address"},{"name":"escrow","type":"address","internalType":"address"},{"name":"orderManager","type":"address","internalType":"address"},{"name":"dao","type":"address","internalType":"address"},{"name":"companyId","type":"bytes32","internalType":"bytes32"},{"name":"assetId","type":"bytes32","internalType":"bytes32"},{"name":"metadataCID","type":"bytes32","internalType":"bytes32"},{"name":"legalMetadataCID","type":"bytes32","internalType":"bytes32"}]},{"name":"policy","type":"tuple","internalType":"struct ProplexRealEstateToken.InvestmentPolicy","components":[{"name":"preMintAmount","type":"uint256","internalType":"uint256"},{"name":"minInvestment","type":"uint256","internalType":"uint256"},{"name":"maxInvestment","type":"uint256","internalType":"uint256"},{"name":"isActive","type":"bool","internalType":"bool"}]}],"stateMutability":"view"},{"type":"function","name":"deactivateProject","inputs":[{"name":"reason","type":"bytes32","internalType":"bytes32"}],"outputs":[],"stateMutability":"nonpayable"},{"type":"function","name":"decimals","inputs":[],"outputs":[{"name":"","type":"uint8","internalType":"uint8"}],"stateMutability":"view"},{"type":"function","name":"decreaseAllowance","inputs":[{"name":"_spender","type":"address","internalType":"address"},{"name":"_subtractedValue","type":"uint256","internalType":"uint256"}],"outputs":[{"name":"","type":"bool","internalType":"bool"}],"stateMutability":"nonpayable"},{"type":"function","name":"forcedTransfer","inputs":[{"name":"_from","type":"address","internalType":"address"},{"name":"_to","type":"address","internalType":"address"},{"name":"_amount","type":"uint256","internalType":"uint256"}],"outputs":[{"name":"","type":"bool","internalType":"bool"}],"stateMutability":"nonpayable"},{"type":"function","name":"freezePartialTokens","inputs":[{"name":"_userAddress","type":"address","internalType":"address"},{"name":"_amount","type":"uint256","internalType":"uint256"}],"outputs":[],"stateMutability":"nonpayable"},{"type":"function","name":"getFrozenTokens","inputs":[{"name":"_userAddress","type":"address","internalType":"address"}],"outputs":[{"name":"","type":"uint256","internalType":"uint256"}],"stateMutability":"view"},{"type":"function","name":"getInvestmentLimits","inputs":[],"outputs":[{"name":"min","type":"uint256","internalType":"uint256"},{"name":"max","type":"uint256","internalType":"uint256"}],"stateMutability":"view"},{"type":"function","name":"getIsActive","inputs":[],"outputs":[{"name":"","type":"bool","internalType":"bool"}],"stateMutability":"view"},{"type":"function","name":"getProjectDetails","inputs":[],"outputs":[{"name":"escrow_","type":"address","internalType":"address"},{"name":"orderManager_","type":"address","internalType":"address"},{"name":"dao_","type":"address","internalType":"address"},{"name":"projectOwner_","type":"address","internalType":"address"}],"stateMutability":"view"},{"type":"function","name":"getProjectOwner","inputs":[],"outputs":[{"name":"","type":"address","internalType":"address"}],"stateMutability":"view"},{"type":"function","name":"getRoleAdmin","inputs":[{"name":"role","type":"bytes32","internalType":"bytes32"}],"outputs":[{"name":"","type":"bytes32","internalType":"bytes32"}],"stateMutability":"view"},{"type":"function","name":"grantRole","inputs":[{"name":"role","type":"bytes32","internalType":"bytes32"},{"name":"account","type":"address","internalType":"address"}],"outputs":[],"stateMutability":"nonpayable"},{"type":"function","name":"hasRole","inputs":[{"name":"role","type":"bytes32","internalType":"bytes32"},{"name":"account","type":"address","internalType":"address"}],"outputs":[{"name":"","type":"bool","internalType":"bool"}],"stateMutability":"view"},{"type":"function","name":"identityRegistry","inputs":[],"outputs":[{"name":"","type":"address","internalType":"contract IIdentityRegistry"}],"stateMutability":"view"},{"type":"function","name":"increaseAllowance","inputs":[{"name":"_spender","type":"address","internalType":"address"},{"name":"_addedValue","type":"uint256","internalType":"uint256"}],"outputs":[{"name":"","type":"bool","internalType":"bool"}],"stateMutability":"nonpayable"},{"type":"function","name":"init","inputs":[{"name":"_identityRegistry","type":"address","internalType":"address"},{"name":"_compliance","type":"address","internalType":"address"},{"name":"_name","type":"string","internalType":"string"},{"name":"_symbol","type":"string","internalType":"string"},{"name":"_decimals","type":"uint8","internalType":"uint8"},{"name":"_maxSupply","type":"uint256","internalType":"uint256"},{"name":"_factory","type":"address","internalType":"address"},{"name":"_projectOwner","type":"address","internalType":"address"}],"outputs":[],"stateMutability":"nonpayable"},{"type":"function","name":"initialize","inputs":[{"name":"initData","type":"bytes","internalType":"bytes"}],"outputs":[],"stateMutability":"nonpayable"},{"type":"function","name":"isFrozen","inputs":[{"name":"_userAddress","type":"address","internalType":"address"}],"outputs":[{"name":"","type":"bool","internalType":"bool"}],"stateMutability":"view"},{"type":"function","name":"maxSupply","inputs":[],"outputs":[{"name":"","type":"uint256","internalType":"uint256"}],"stateMutability":"view"},{"type":"function","name":"mint","inputs":[{"name":"_to","type":"address","internalType":"address"},{"name":"_amount","type":"uint256","internalType":"uint256"}],"outputs":[],"stateMutability":"nonpayable"},{"type":"function","name":"name","inputs":[],"outputs":[{"name":"","type":"string","internalType":"string"}],"stateMutability":"view"},{"type":"function","name":"onchainID","inputs":[],"outputs":[{"name":"","type":"address","internalType":"address"}],"stateMutability":"view"},{"type":"function","name":"pause","inputs":[],"outputs":[],"stateMutability":"nonpayable"},{"type":"function","name":"paused","inputs":[],"outputs":[{"name":"","type":"bool","internalType":"bool"}],"stateMutability":"view"},{"type":"function","name":"proxiableUUID","inputs":[],"outputs":[{"name":"","type":"bytes32","internalType":"bytes32"}],"stateMutability":"view"},{"type":"function","name":"recoveryAddress","inputs":[{"name":"_lostWallet","type":"address","internalType":"address"},{"name":"_newWallet","type":"address","internalType":"address"},{"name":"_investorOnchainID","type":"address","internalType":"address"}],"outputs":[{"name":"","type":"bool","internalType":"bool"}],"stateMutability":"nonpayable"},{"type":"function","name":"renounceRole","inputs":[{"name":"role","type":"bytes32","internalType":"bytes32"},{"name":"callerConfirmation","type":"address","internalType":"address"}],"outputs":[],"stateMutability":"nonpayable"},{"type":"function","name":"revokeRole","inputs":[{"name":"role","type":"bytes32","internalType":"bytes32"},{"name":"account","type":"address","internalType":"address"}],"outputs":[],"stateMutability":"nonpayable"},{"type":"function","name":"setAddressFrozen","inputs":[{"name":"_userAddress","type":"address","internalType":"address"},{"name":"_freeze","type":"bool","internalType":"bool"}],"outputs":[],"stateMutability":"nonpayable"},{"type":"function","name":"setCompliance","inputs":[{"name":"_compliance","type":"address","internalType":"address"}],"outputs":[],"stateMutability":"nonpayable"},{"type":"function","name":"setIdentityRegistry","inputs":[{"name":"_identityRegistry","type":"address","internalType":"address"}],"outputs":[],"stateMutability":"nonpayable"},{"type":"function","name":"setName","inputs":[{"name":"_name","type":"string","internalType":"string"}],"outputs":[],"stateMutability":"nonpayable"},{"type":"function","name":"setOnchainID","inputs":[{"name":"_onchainID","type":"address","internalType":"address"}],"outputs":[],"stateMutability":"nonpayable"},{"type":"function","name":"setProjectContracts","inputs":[{"name":"_escrow","type":"address","internalType":"address"},{"name":"_orderManager","type":"address","internalType":"address"},{"name":"_dao","type":"address","internalType":"address"},{"name":"_preMintAmount","type":"uint256","internalType":"uint256"}],"outputs":[],"stateMutability":"nonpayable"},{"type":"function","name":"setSymbol","inputs":[{"name":"_symbol","type":"string","internalType":"string"}],"outputs":[],"stateMutability":"nonpayable"},{"type":"function","name":"supportsInterface","inputs":[{"name":"interfaceId","type":"bytes4","internalType":"bytes4"}],"outputs":[{"name":"","type":"bool","internalType":"bool"}],"stateMutability":"view"},{"type":"function","name":"symbol","inputs":[],"outputs":[{"name":"","type":"string","internalType":"string"}],"stateMutability":"view"},{"type":"function","name":"tokenPrice","inputs":[],"outputs":[{"name":"","type":"uint256","internalType":"uint256"}],"stateMutability":"view"},{"type":"function","name":"totalSupply","inputs":[],"outputs":[{"name":"","type":"uint256","internalType":"uint256"}],"stateMutability":"view"},{"type":"function","name":"transfer","inputs":[{"name":"_to","type":"address","internalType":"address"},{"name":"_amount","type":"uint256","internalType":"uint256"}],"outputs":[{"name":"","type":"bool","internalType":"bool"}],"stateMutability":"nonpayable"},{"type":"function","name":"transferFrom","inputs":[{"name":"_from","type":"address","internalType":"address"},{"name":"_to","type":"address","internalType":"address"},{"name":"_amount","type":"uint256","internalType":"uint256"}],"outputs":[{"name":"","type":"bool","internalType":"bool"}],"stateMutability":"nonpayable"},{"type":"function","name":"unfreezePartialTokens","inputs":[{"name":"_userAddress","type":"address","internalType":"address"},{"name":"_amount","type":"uint256","internalType":"uint256"}],"outputs":[],"stateMutability":"nonpayable"},{"type":"function","name":"unpause","inputs":[],"outputs":[],"stateMutability":"nonpayable"},{"type":"function","name":"updateMetadataCID","inputs":[{"name":"newCID","type":"bytes32","internalType":"bytes32"},{"name":"isLegal","type":"bool","internalType":"bool"}],"outputs":[],"stateMutability":"nonpayable"},{"type":"function","name":"upgradeToAndCall","inputs":[{"name":"newImplementation","type":"address","internalType":"address"},{"name":"data","type":"bytes","internalType":"bytes"}],"outputs":[],"stateMutability":"payable"},{"type":"function","name":"version","inputs":[],"outputs":[{"name":"","type":"string","internalType":"string"}],"stateMutability":"pure"},{"type":"event","name":"AddressFrozen","inputs":[{"name":"_userAddress","type":"address","indexed":true,"internalType":"address"},{"name":"_isFrozen","type":"bool","indexed":true,"internalType":"bool"},{"name":"_owner","type":"address","indexed":true,"internalType":"address"}],"anonymous":false},{"type":"event","name":"Approval","inputs":[{"name":"owner","type":"address","indexed":true,"internalType":"address"},{"name":"spender","type":"address","indexed":true,"internalType":"address"},{"name":"value","type":"uint256","indexed":false,"internalType":"uint256"}],"anonymous":false},{"type":"event","name":"ComplianceAdded","inputs":[{"name":"_compliance","type":"address","indexed":true,"internalType":"address"}],"anonymous":false},{"type":"event","name":"IdentityRegistryAdded","inputs":[{"name":"_identityRegistry","type":"address","indexed":true,"internalType":"address"}],"anonymous":false},{"type":"event","name":"Initialized","inputs":[{"name":"version","type":"uint64","indexed":false,"internalType":"uint64"}],"anonymous":false},{"type":"event","name":"Initialized","inputs":[{"name":"params","type":"tuple","indexed":false,"internalType":"struct ProplexRealEstateToken.TokenConfig","components":[{"name":"info","type":"tuple","internalType":"struct ProplexRealEstateToken.TokenInfo","components":[{"name":"name","type":"string","internalType":"string"},{"name":"symbol","type":"string","internalType":"string"},{"name":"decimals","type":"uint8","internalType":"uint8"},{"name":"maxSupply","type":"uint256","internalType":"uint256"},{"name":"tokenPrice","type":"uint256","internalType":"uint256"},{"name":"cancelDelay","type":"uint48","internalType":"uint48"},{"name":"assetType","type":"uint8","internalType":"enum ProplexRealEstateToken.AssetType"}]},{"name":"gov","type":"tuple","internalType":"struct ProplexRealEstateToken.GovernanceConfig","components":[{"name":"identityRegistry","type":"address","internalType":"address"},{"name":"compliance","type":"address","internalType":"address"},{"name":"onchainID","type":"address","internalType":"address"},{"name":"projectOwner","type":"address","internalType":"address"},{"name":"factory","type":"address","internalType":"address"},{"name":"escrow","type":"address","internalType":"address"},{"name":"orderManager","type":"address","internalType":"address"},{"name":"dao","type":"address","internalType":"address"},{"name":"companyId","type":"bytes32","internalType":"bytes32"},{"name":"assetId","type":"bytes32","internalType":"bytes32"},{"name":"metadataCID","type":"bytes32","internalType":"bytes32"},{"name":"legalMetadataCID","type":"bytes32","internalType":"bytes32"}]},{"name":"policy","type":"tuple","internalType":"struct ProplexRealEstateToken.InvestmentPolicy","components":[{"name":"preMintAmount","type":"uint256","internalType":"uint256"},{"name":"minInvestment","type":"uint256","internalType":"uint256"},{"name":"maxInvestment","type":"uint256","internalType":"uint256"},{"name":"isActive","type":"bool","internalType":"bool"}]}]}],"anonymous":false},{"type":"event","name":"MetadataCIDUpdated","inputs":[{"name":"oldCID","type":"bytes32","indexed":false,"internalType":"bytes32"},{"name":"newCID","type":"bytes32","indexed":false,"internalType":"bytes32"},{"name":"isLegal","type":"bool","indexed":false,"internalType":"bool"}],"anonymous":false},{"type":"event","name":"Paused","inputs":[{"name":"_userAddress","type":"address","indexed":false,"internalType":"address"}],"anonymous":false},{"type":"event","name":"ProjectContractsSet","inputs":[{"name":"escrow","type":"address","indexed":true,"internalType":"address"},{"name":"orderManager","type":"address","indexed":true,"internalType":"address"},{"name":"dao","type":"address","indexed":true,"internalType":"address"},{"name":"preMintAmount","type":"uint256","indexed":false,"internalType":"uint256"}],"anonymous":false},{"type":"event","name":"ProjectDeactivated","inputs":[{"name":"reason","type":"bytes32","indexed":false,"internalType":"bytes32"}],"anonymous":false},{"type":"event","name":"RecoverySuccess","inputs":[{"name":"_lostWallet","type":"address","indexed":true,"internalType":"address"},{"name":"_newWallet","type":"address","indexed":true,"internalType":"address"},{"name":"_investorOnchainID","type":"address","indexed":true,"internalType":"address"}],"anonymous":false},{"type":"event","name":"RoleAdminChanged","inputs":[{"name":"role","type":"bytes32","indexed":true,"internalType":"bytes32"},{"name":"previousAdminRole","type":"bytes32","indexed":true,"internalType":"bytes32"},{"name":"newAdminRole","type":"bytes32","indexed":true,"internalType":"bytes32"}],"anonymous":false},{"type":"event","name":"RoleGranted","inputs":[{"name":"role","type":"bytes32","indexed":true,"internalType":"bytes32"},{"name":"account","type":"address","indexed":true,"internalType":"address"},{"name":"sender","type":"address","indexed":true,"internalType":"address"}],"anonymous":false},{"type":"event","name":"RoleRevoked","inputs":[{"name":"role","type":"bytes32","indexed":true,"internalType":"bytes32"},{"name":"account","type":"address","indexed":true,"internalType":"address"},{"name":"sender","type":"address","indexed":true,"internalType":"address"}],"anonymous":false},{"type":"event","name":"TokensFrozen","inputs":[{"name":"_userAddress","type":"address","indexed":true,"internalType":"address"},{"name":"_amount","type":"uint256","indexed":false,"internalType":"uint256"}],"anonymous":false},{"type":"event","name":"TokensUnfrozen","inputs":[{"name":"_userAddress","type":"address","indexed":true,"internalType":"address"},{"name":"_amount","type":"uint256","indexed":false,"internalType":"uint256"}],"anonymous":false},{"type":"event","name":"Transfer","inputs":[{"name":"from","type":"address","indexed":true,"internalType":"address"},{"name":"to","type":"address","indexed":true,"internalType":"address"},{"name":"value","type":"uint256","indexed":false,"internalType":"uint256"}],"anonymous":false},{"type":"event","name":"Unpaused","inputs":[{"name":"_userAddress","type":"address","indexed":false,"internalType":"address"}],"anonymous":false},{"type":"event","name":"UpdatedTokenInformation","inputs":[{"name":"_newName","type":"string","indexed":true,"internalType":"string"},{"name":"_newSymbol","type":"string","indexed":true,"internalType":"string"},{"name":"_newDecimals","type":"uint8","indexed":false,"internalType":"uint8"},{"name":"_newVersion","type":"string","indexed":false,"internalType":"string"},{"name":"_newOnchainID","type":"address","indexed":true,"internalType":"address"}],"anonymous":false},{"type":"event","name":"Upgraded","inputs":[{"name":"implementation","type":"address","indexed":true,"internalType":"address"}],"anonymous":false},{"type":"error","name":"AccessControlBadConfirmation","inputs":[]},{"type":"error","name":"AccessControlUnauthorizedAccount","inputs":[{"name":"account","type":"address","internalType":"address"},{"name":"neededRole","type":"bytes32","internalType":"bytes32"}]},{"type":"error","name":"AddressEmptyCode","inputs":[{"name":"target","type":"address","internalType":"address"}]},{"type":"error","name":"BadAddress","inputs":[]},{"type":"error","name":"BadParameter","inputs":[]},{"type":"error","name":"DepositFailed","inputs":[]},{"type":"error","name":"ERC1967InvalidImplementation","inputs":[{"name":"implementation","type":"address","internalType":"address"}]},{"type":"error","name":"ERC1967NonPayable","inputs":[]},{"type":"error","name":"FailedCall","inputs":[]},{"type":"error","name":"InvalidInitialization","inputs":[]},{"type":"error","name":"NotInitializing","inputs":[]},{"type":"error","name":"ProjectInactive","inputs":[]},{"type":"error","name":"ReentrancyGuardReentrantCall","inputs":[]},{"type":"error","name":"UUPSUnauthorizedCallContext","inputs":[]},{"type":"error","name":"UUPSUnsupportedProxiableUUID","inputs":[{"name":"slot","type":"bytes32","internalType":"bytes32"}]}],"bytecode":{"object":"0x60a06040526009805460ff191690553060805234801561001e57600080fd5b50608051614b45610048600039600081816134500152818161347901526135f50152614b456000f3fe6080604052600436106103a25760003560e01c806379502c55116101e7578063c47f00271161010d578063df2bbf01116100a0578063f89817891161006f578063f898178914610b1a578063fba7cc7914610b3a578063fc7e5fa814610b52578063ff3a9c7e14610b7257600080fd5b8063df2bbf0114610a83578063e21b496f14610aa3578063e583983614610ac3578063e6d6859514610afc57600080fd5b8063d547741f116100dc578063d547741f146109e7578063d5abeb0114610a07578063d7a6638214610a1d578063dd62ed3e14610a3d57600080fd5b8063c47f002714610967578063c69c09cf14610987578063cbf3f861146109a7578063cf501b68146109c757600080fd5b80639dc29fac11610185578063a9059cbb11610154578063a9059cbb146108d3578063aba63705146108f3578063ad3cb1cc14610916578063b84c82461461094757600080fd5b80639dc29fac1461085e5780639fc1d0e71461087e578063a217fddf1461089e578063a457c2d7146108b357600080fd5b806388d695b2116101c157806388d695b2146107e957806391d14854146108095780639285948a1461082957806395d89b411461084957600080fd5b806379502c551461079b5780637ff9b596146107bf5780638456cb59146107d457600080fd5b80633d1ddc5b116102cc5780634f1ef2861161026a5780636290865d116102395780636290865d14610715578063685731071461073357806370a0823114610753578063787de7771461077357600080fd5b80634f1ef286146106a757806352d1902d146106ba57806354fd4d50146106cf5780635c975abb146106fd57600080fd5b806342a47abc116102a657806342a47abc14610627578063439fab91146106475780634710362d146106675780634a6cc6771461068757600080fd5b80633d1ddc5b146105d25780633f4ba83a146105f257806340c10f191461060757600080fd5b80631a7af379116103445780632f2ff15d116103135780632f2ff15d14610550578063313ce5671461057057806336568abe1461059257806339509351146105b257600080fd5b80631a7af379146104d05780631fe56f7d146104f057806323b872dd14610510578063248a9ca31461053057600080fd5b8063125c4a3311610380578063125c4a331461041e578063134e18f414610440578063158b1a571461047757806318160ddd146104bb57600080fd5b806301ffc9a7146103a757806306fdde03146103dc578063095ea7b3146103fe575b600080fd5b3480156103b357600080fd5b506103c76103c2366004613abf565b610bbf565b60405190151581526020015b60405180910390f35b3480156103e857600080fd5b506103f1610bf6565b6040516103d39190613b39565b34801561040a57600080fd5b506103c7610419366004613b68565b610c88565b34801561042a57600080fd5b5061043e610439366004613b68565b610c9e565b005b34801561044c57600080fd5b5060095461010090046001600160a01b03165b6040516001600160a01b0390911681526020016103d3565b34801561048357600080fd5b506104ad610492366004613b92565b6001600160a01b031660009081526008602052604090205490565b6040519081526020016103d3565b3480156104c757600080fd5b506002546104ad565b3480156104dc57600080fd5b5061043e6104eb366004613bf8565b610dbd565b3480156104fc57600080fd5b5061043e61050b366004613b68565b610e28565b34801561051c57600080fd5b506103c761052b366004613c63565b610f45565b34801561053c57600080fd5b506104ad61054b366004613c9f565b611002565b34801561055c57600080fd5b5061043e61056b366004613cb8565b611024565b34801561057c57600080fd5b5060065460405160ff90911681526020016103d3565b34801561059e57600080fd5b5061043e6105ad366004613cb8565b611046565b3480156105be57600080fd5b506103c76105cd366004613b68565b61107e565b3480156105de57600080fd5b5061043e6105ed366004613b92565b6110ba565b3480156105fe57600080fd5b5061043e611189565b34801561061357600080fd5b5061043e610622366004613b68565b61120f565b34801561063357600080fd5b5061043e610642366004613ce4565b61127f565b34801561065357600080fd5b5061043e610662366004613dbe565b61130b565b34801561067357600080fd5b5061043e610682366004613bf8565b6116dc565b34801561069357600080fd5b5061043e6106a2366004613bf8565b611737565b61043e6106b5366004613ef7565b611792565b3480156106c657600080fd5b506104ad6117b1565b3480156106db57600080fd5b506040805180820190915260058152640312e302e360dc1b60208201526103f1565b34801561070957600080fd5b5060095460ff166103c7565b34801561072157600080fd5b50600a546001600160a01b031661045f565b34801561073f57600080fd5b5061043e61074e366004613bf8565b6117ce565b34801561075f57600080fd5b506104ad61076e366004613b92565b611829565b34801561077f57600080fd5b50604f54605054604080519283526020830191909152016103d3565b3480156107a757600080fd5b506107b0611844565b6040516103d3939291906140fd565b3480156107cb57600080fd5b506040546104ad565b3480156107e057600080fd5b5061043e611acc565b3480156107f557600080fd5b5061043e610804366004613bf8565b611b3b565b34801561081557600080fd5b506103c7610824366004613cb8565b611b97565b34801561083557600080fd5b506103c7610844366004614155565b611bcf565b34801561085557600080fd5b506103f1611f39565b34801561086a57600080fd5b5061043e610879366004613b68565b611f48565b34801561088a57600080fd5b506103c7610899366004613c63565b6120f0565b3480156108aa57600080fd5b506104ad600081565b3480156108bf57600080fd5b506103c76108ce366004613b68565b612359565b3480156108df57600080fd5b506103c76108ee366004613b68565b612390565b3480156108ff57600080fd5b5060065461010090046001600160a01b031661045f565b34801561092257600080fd5b506103f1604051806040016040528060058152602001640352e302e360dc1b81525081565b34801561095357600080fd5b5061043e610962366004613dbe565b6124a3565b34801561097357600080fd5b5061043e610982366004613dbe565b6125e0565b34801561099357600080fd5b5061043e6109a23660046141a6565b61267c565b3480156109b357600080fd5b5061043e6109c2366004613b92565b6126ea565b3480156109d357600080fd5b5061043e6109e23660046141dd565b612755565b3480156109f357600080fd5b5061043e610a02366004613cb8565b612888565b348015610a1357600080fd5b506104ad60035481565b348015610a2957600080fd5b5061043e610a38366004613c9f565b6128a4565b348015610a4957600080fd5b506104ad610a58366004614228565b6001600160a01b03918216600090815260016020908152604080832093909416825291909152205490565b348015610a8f57600080fd5b5061043e610a9e366004614252565b6128fd565b348015610aaf57600080fd5b5061043e610abe3660046142a8565b6129bd565b348015610acf57600080fd5b506103c7610ade366004613b92565b6001600160a01b031660009081526007602052604090205460ff1690565b348015610b0857600080fd5b506045546001600160a01b031661045f565b348015610b2657600080fd5b5061043e610b35366004613b92565b612cff565b348015610b4657600080fd5b5060515460ff166103c7565b348015610b5e57600080fd5b5061043e610b6d366004613bf8565b612dd1565b348015610b7e57600080fd5b50604754604854604954604554604080516001600160a01b0395861681529385166020850152918416918301919091529190911660608201526080016103d3565b60006001600160e01b03198216637965db0b60e01b1480610bf057506301ffc9a760e01b6001600160e01b03198316145b92915050565b606060048054610c0590614368565b80601f0160208091040260200160405190810160405280929190818152602001828054610c3190614368565b8015610c7e5780601f10610c5357610100808354040283529160200191610c7e565b820191906000526020600020905b815481529060010190602001808311610c6157829003601f168201915b5050505050905090565b6000610c95338484612e2c565b50600192915050565b600080516020614af0833981519152610cb681612f51565b6000610cc184611829565b6001600160a01b038516600090815260086020526040902054909150610ce89084906143b8565b811015610d3c5760405162461bcd60e51b815260206004820181905260248201527f416d6f756e74206578636565647320617661696c61626c652062616c616e636560448201526064015b60405180910390fd5b6001600160a01b038416600090815260086020526040902054610d609084906143b8565b6001600160a01b038516600081815260086020526040908190209290925590517fa065e63c631c86f1b9f66a4a2f63f2093bf1c2168d23290259dbd969e0222a4590610daf9086815260200190565b60405180910390a250505050565b60005b83811015610e2157610e19858583818110610ddd57610ddd6143cb565b9050602002016020810190610df29190613b92565b848484818110610e0457610e046143cb565b90506020020160208101906109a291906143e1565b600101610dc0565b5050505050565b600080516020614af0833981519152610e4081612f51565b6001600160a01b038316600090815260086020526040902054821115610ec55760405162461bcd60e51b815260206004820152603460248201527f416d6f756e742073686f756c64206265206c657373207468616e206f7220657160448201527375616c20746f2066726f7a656e20746f6b656e7360601b6064820152608401610d33565b6001600160a01b038316600090815260086020526040902054610ee99083906143fe565b6001600160a01b038416600081815260086020526040908190209290925590517f9bed35cb62ad0dba04f9d5bfee4b5bc91443e77da8a65c4c84834c51bb08b0d690610f389085815260200190565b60405180910390a2505050565b60095460009060ff1615610f6b5760405162461bcd60e51b8152600401610d3390614411565b6001600160a01b03831660009081526007602052604090205460ff16158015610fad57506001600160a01b03841660009081526007602052604090205460ff16155b610fec5760405162461bcd60e51b815260206004820152601060248201526f3bb0b63632ba1034b990333937bd32b760811b6044820152606401610d33565b610ff7848484612f5b565b5060015b9392505050565b6000908152600080516020614ad0833981519152602052604090206001015490565b61102d82611002565b61103681612f51565b61104083836130d1565b50505050565b6001600160a01b038116331461106f5760405163334bd91960e11b815260040160405180910390fd5b6110798282613176565b505050565b3360008181526001602090815260408083206001600160a01b03871684529091528120549091610c959185906110b59086906143b8565b612e2c565b600080516020614af08339815191526110d281612f51565b60068054610100600160a81b0319166101006001600160a01b03858116820292909217928390556040519204169061110c9060059061443b565b60405180910390206004604051611123919061443b565b60408051918290038220600654838301835260058452640312e302e360dc1b6020850152915190927f6a1105ac8148a3c319adbc369f9072573e8a11d3a3d195e067e7c40767ec54d19261117d9260ff90911691906144b1565b60405180910390a45050565b600080516020614a708339815191526111a181612f51565b6047546001600160a01b03161561120c5760475460408051631fa5d41d60e11b815290516001600160a01b0390921691633f4ba83a9160048082019260009290919082900301818387803b1580156111f857600080fd5b505af1158015610e21573d6000803e3d6000fd5b50565b600080516020614ab083398151915261122781612f51565b6003548260025461123891906143b8565b11156112755760405162461bcd60e51b815260206004820152600c60248201526b10d85c08195e18d95959195960a21b6044820152606401610d33565b61107983836131f2565b60005b85811015611302576112f987878381811061129f5761129f6143cb565b90506020020160208101906112b49190613b92565b8686848181106112c6576112c66143cb565b90506020020160208101906112db9190613b92565b8585858181106112ed576112ed6143cb565b905060200201356120f0565b50600101611282565b50505050505050565b60006113156132df565b805490915060ff600160401b82041615906001600160401b031660008115801561133c5750825b90506000826001600160401b031660011480156113585750303b155b905081158015611366575080155b156113845760405163f92ee8a960e01b815260040160405180910390fd5b845467ffffffffffffffff1916600117855583156113ae57845460ff60401b1916600160401b1785555b60006113bc87890189614634565b90506113c781613308565b6113cf61342b565b6113d761342b565b6113df613435565b602080820151805181830151845180519481015160408201516060928301516080870151939096015161141c9795969495949293919291906129bd565b805180518291603c918290819061143390826147ad565b506020820151600182019061144890826147ad565b50604082015160028201805460ff90921660ff1990921691909117905560608201516003808301919091556080830151600483015560a083015160058301805465ffffffffffff90921665ffffffffffff1983168117825560c086015193919266ffffffffffffff1916179066010000000000009084908111156114ce576114ce613f58565b0217905550505060208281015180516006840180546001600160a01b03199081166001600160a01b0393841617909155828401516007860180548316918416919091179055604080840151600887018054841691851691909117905560608085015160098801805485169186169190911790556080850151600a88018054851691861691909117905560a0850151600b88018054851691861691909117905560c0850151600c88018054851691861691909117905560e0850151600d88018054909416941693909317909155610100830151600e860155610120830151600f860155610140830151601086015561016090920151601185015593810151805160128501558083015160138501559081015160148401558301516015909201805460ff191692151592909217909155820151015161161a90600080516020614a70833981519152906130d1565b506116306000801b8260200151606001516130d1565b506040810151511561165657611656816020015160a0015182604001516000015161120f565b7f99ee6a737287bc80ba17c81d3b9df3b142a89d0629004d40413a7d4d358c426d81604051611685919061486c565b60405180910390a150831561130257845460ff60401b19168555604051600181527fc7f505b2f371ae2175ee4913f4499e1f2633a7b5936321eed1cdaeb6115181d29060200160405180910390a150505050505050565b60005b83811015610e215761172f8585838181106116fc576116fc6143cb565b90506020020160208101906117119190613b92565b848484818110611723576117236143cb565b90506020020135610e28565b6001016116df565b60005b83811015610e215761178a858583818110611757576117576143cb565b905060200201602081019061176c9190613b92565b84848481811061177e5761177e6143cb565b90506020020135611f48565b60010161173a565b61179a613445565b6117a3826134ea565b6117ad828261352d565b5050565b60006117bb6135ea565b50600080516020614a9083398151915290565b60005b83811015610e21576118218585838181106117ee576117ee6143cb565b90506020020160208101906118039190613b92565b848484818110611815576118156143cb565b9050602002013561120f565b6001016117d1565b6001600160a01b031660009081526020819052604090205490565b603c806000016040518060e001604052908160008201805461186590614368565b80601f016020809104026020016040519081016040528092919081815260200182805461189190614368565b80156118de5780601f106118b3576101008083540402835291602001916118de565b820191906000526020600020905b8154815290600101906020018083116118c157829003601f168201915b505050505081526020016001820180546118f790614368565b80601f016020809104026020016040519081016040528092919081815260200182805461192390614368565b80156119705780601f1061194557610100808354040283529160200191611970565b820191906000526020600020905b81548152906001019060200180831161195357829003601f168201915b5050509183525050600282015460ff9081166020830152600380840154604084015260048401546060840152600584015465ffffffffffff8116608085015260a09093019266010000000000009004909116908111156119d2576119d2613f58565b60038111156119e3576119e3613f58565b905250604080516101808101825260068401546001600160a01b03908116825260078501548116602080840191909152600886015482168385015260098601548216606080850191909152600a8701548316608080860191909152600b880154841660a0860152600c880154841660c0860152600d88015490931660e0850152600e870154610100850152600f87015461012085015260108701546101408501526011870154610160850152845192830185526012870154835260138701549183019190915260148601549382019390935260159094015460ff16151591840191909152909183565b600080516020614a70833981519152611ae481612f51565b6047546001600160a01b03161561120c5760475460408051638456cb5960e01b815290516001600160a01b0390921691638456cb599160048082019260009290919082900301818387803b1580156111f857600080fd5b60005b83811015610e2157611b8e858583818110611b5b57611b5b6143cb565b9050602002016020810190611b709190613b92565b848484818110611b8257611b826143cb565b90506020020135612390565b50600101611b3e565b6000918252600080516020614ad0833981519152602090815260408084206001600160a01b0393909316845291905290205460ff1690565b6000600080516020614af0833981519152611be981612f51565b611bf285611829565b600003611c385760405162461bcd60e51b81526020600482015260146024820152733737903a37b5b2b739903a37903932b1b7bb32b960611b6044820152606401610d33565b604080516001600160a01b038616602082015284916000910160408051808303601f1901815290829052805160209091012063d202158d60e01b8252600482018190526001602483015291506001600160a01b0383169063d202158d90604401602060405180830381865afa158015611cb5573d6000803e3d6000fd5b505050506040513d601f19601f82011682018060405250810190611cd991906148d4565b15611ef1576000611ce988611829565b6001600160a01b03808a1660008181526008602052604090819020546009549151637e42683b60e01b8152600481019390935293945061010090049091169063454a03e0908a9087908490637e42683b90602401602060405180830381865afa158015611d5a573d6000803e3d6000fd5b505050506040513d601f19601f82011682018060405250810190611d7e91906148f1565b6040516001600160e01b031960e086901b1681526001600160a01b03938416600482015292909116602483015261ffff166044820152606401600060405180830381600087803b158015611dd157600080fd5b505af1158015611de5573d6000803e3d6000fd5b50505050611df48989846120f0565b508015611e0557611e058882610c9e565b6001600160a01b03891660009081526007602052604090205460ff161515600103611e3557611e3588600161267c565b60095460405163a8d29d1d60e01b81526001600160a01b038b811660048301526101009092049091169063a8d29d1d90602401600060405180830381600087803b158015611e8257600080fd5b505af1158015611e96573d6000803e3d6000fd5b50505050866001600160a01b0316886001600160a01b03168a6001600160a01b03167ff0c9129a94f30f1caaceb63e44b9811d0a3edf1d6c23757f346093af5553fed060405160405180910390a46001955050505050611f31565b60405162461bcd60e51b81526020600482015260156024820152745265636f76657279206e6f7420706f737369626c6560581b6044820152606401610d33565b509392505050565b606060058054610c0590614368565b600080516020614af0833981519152611f6081612f51565b81611f6a84611829565b1015611fb85760405162461bcd60e51b815260206004820152601d60248201527f63616e6e6f74206275726e206d6f7265207468616e2062616c616e63650000006044820152606401610d33565b6001600160a01b038316600090815260086020526040812054611fda85611829565b611fe491906143fe565b90508083111561207a576000611ffa82856143fe565b6001600160a01b0386166000908152600860205260409020549091506120219082906143fe565b6001600160a01b038616600081815260086020526040908190209290925590517f9bed35cb62ad0dba04f9d5bfee4b5bc91443e77da8a65c4c84834c51bb08b0d6906120709084815260200190565b60405180910390a2505b6120848484613633565b600a5460405163469753b960e11b81526001600160a01b0386811660048301526024820186905290911690638d2ea77290604401600060405180830381600087803b1580156120d257600080fd5b505af11580156120e6573d6000803e3d6000fd5b5050505050505050565b6000600080516020614af083398151915261210a81612f51565b8261211486611829565b101561215b5760405162461bcd60e51b815260206004820152601660248201527573656e6465722062616c616e636520746f6f206c6f7760501b6044820152606401610d33565b6001600160a01b03851660009081526008602052604081205461217d87611829565b61218791906143fe565b90508084111561221d57600061219d82866143fe565b6001600160a01b0388166000908152600860205260409020549091506121c49082906143fe565b6001600160a01b038816600081815260086020526040908190209290925590517f9bed35cb62ad0dba04f9d5bfee4b5bc91443e77da8a65c4c84834c51bb08b0d6906122139084815260200190565b60405180910390a2505b60095460405163b9209e3360e01b81526001600160a01b0387811660048301526101009092049091169063b9209e3390602401602060405180830381865afa15801561226d573d6000803e3d6000fd5b505050506040513d601f19601f8201168201806040525081019061229191906148d4565b15612319576122a1868686612f5b565b600a546040516322ebca6d60e21b81526001600160a01b03888116600483015287811660248301526044820187905290911690638baf29b490606401600060405180830381600087803b1580156122f757600080fd5b505af115801561230b573d6000803e3d6000fd5b505050506001925050611f31565b60405162461bcd60e51b81526020600482015260156024820152745472616e73666572206e6f7420706f737369626c6560581b6044820152606401610d33565b3360008181526001602090815260408083206001600160a01b03871684529091528120549091610c959185906110b59086906143fe565b60095460009060ff16156123b65760405162461bcd60e51b8152600401610d3390614411565b6001600160a01b03831660009081526007602052604090205460ff161580156123ef57503360009081526007602052604090205460ff16155b61242e5760405162461bcd60e51b815260206004820152601060248201526f3bb0b63632ba1034b990333937bd32b760811b6044820152606401610d33565b336000818152600860205260409020549061244890611829565b61245291906143fe565b8211156124985760405162461bcd60e51b8152602060048201526014602482015273496e73756666696369656e742042616c616e636560601b6044820152606401610d33565b610c95338484612f5b565b600080516020614af08339815191526124bb81612f51565b6040516020016124d690602080825260009082015260400190565b6040516020818303038152906040528051906020012083836040516020016124ff929190614915565b60405160208183030381529060405280519060200120036125325760405162461bcd60e51b8152600401610d3390614944565b600561253f83858361497b565b506006546040516101009091046001600160a01b0316906125629060059061443b565b60405180910390206004604051612579919061443b565b60408051918290038220600654838301835260058452640312e302e360dc1b6020850152915190927f6a1105ac8148a3c319adbc369f9072573e8a11d3a3d195e067e7c40767ec54d1926125d39260ff90911691906144b1565b60405180910390a4505050565b600080516020614af08339815191526125f881612f51565b60405160200161261390602080825260009082015260400190565b60405160208183030381529060405280519060200120838360405160200161263c929190614915565b604051602081830303815290604052805190602001200361266f5760405162461bcd60e51b8152600401610d3390614944565b600461253f83858361497b565b600080516020614af083398151915261269481612f51565b6001600160a01b038316600081815260076020526040808220805460ff19168615159081179091559051339391927f7fa523c84ab8d7fc5b72f08b9e46dbbf10c39e119a075b3e317002d14bc9f43691a4505050565b600080516020614ab083398151915261270281612f51565b60098054610100600160a81b0319166101006001600160a01b038516908102919091179091556040517fd2be862d755bca7e0d39772b2cab3a5578da9c285f69199f4c063c2294a7f36c90600090a25050565b600080516020614a7083398151915261276d81612f51565b60095460ff16156127905760405162461bcd60e51b8152600401610d3390614411565b6001600160a01b03851615806127ad57506001600160a01b038416155b806127bf57506001600160a01b038316155b156127dd576040516332691b5760e01b815260040160405180910390fd5b604780546001600160a01b038088166001600160a01b031992831617909255604880548784169083161790556049805492861692909116919091179055811561282a5761282a858361120f565b826001600160a01b0316846001600160a01b0316866001600160a01b03167ff1f9ee5e798a3100a7f61382bd3afe83ed0890032abdbcd484d069d91419924a8560405161287991815260200190565b60405180910390a45050505050565b61289182611002565b61289a81612f51565b6110408383613176565b600080516020614a708339815191526128bc81612f51565b6051805460ff191690556040518281527fbe4cc6976ef5745c44c433bcf2459cf5d46ca06a0c07fcea3f7df922f43a8bef9060200160405180910390a15050565b600080516020614a7083398151915261291581612f51565b60095460ff16156129385760405162461bcd60e51b8152600401610d3390614411565b8261295657604051634762470b60e11b815260040160405180910390fd5b6000821561296c5750604d805490849055612976565b50604c8054908490555b60408051828152602081018690528415158183015290517fd37f402dc909dc03da71b8a83bc4c9709dfe616a0d96a9b2dcd709b2c2c542fd9181900360600190a150505050565b6129c561372b565b6001600160a01b038816158015906129e557506001600160a01b03871615155b612a315760405162461bcd60e51b815260206004820152601f60248201527f696e76616c696420617267756d656e74202d207a65726f2061646472657373006044820152606401610d33565b604051602001612a4c90602080825260009082015260400190565b6040516020818303038152906040528051906020012086604051602001612a739190613b39565b6040516020818303038152906040528051906020012014158015612aed5750604051602001612aad90602080825260009082015260400190565b6040516020818303038152906040528051906020012085604051602001612ad49190613b39565b6040516020818303038152906040528051906020012014155b612b095760405162461bcd60e51b8152600401610d3390614944565b60128460ff161115612b5d5760405162461bcd60e51b815260206004820152601960248201527f646563696d616c73206265747765656e203020616e64203138000000000000006044820152606401610d33565b612b6561342b565b6004612b7187826147ad565b506005612b7e86826147ad565b506006805460ff861660ff1991821617909155600980549091169055600383905560006002819055612bb090826130d1565b50612bc9600080516020614af0833981519152826130d1565b50612bf0600080516020614a70833981519152600080516020614af0833981519152613750565b612c16600080516020614ab0833981519152600080516020614af0833981519152613750565b612c2e600080516020614a70833981519152826130d1565b50612c47600080516020614ab0833981519152836130d1565b50612c51886126ea565b612c5a87612cff565b6006546040516101009091046001600160a01b031690612c7c9060059061443b565b60405180910390206004604051612c93919061443b565b60408051918290038220600654838301835260058452640312e302e360dc1b6020850152915190927f6a1105ac8148a3c319adbc369f9072573e8a11d3a3d195e067e7c40767ec54d192612ced9260ff90911691906144b1565b60405180910390a45050505050505050565b600080516020614ab0833981519152612d1781612f51565b600a546001600160a01b031615612d8657600a5460405163040db3b560e41b81523060048201526001600160a01b03909116906340db3b5090602401600060405180830381600087803b158015612d6d57600080fd5b505af1158015612d81573d6000803e3d6000fd5b505050505b600a80546001600160a01b0319166001600160a01b0384169081179091556040517f7f3a888862559648ec01d97deb7b5012bff86dc91e654a1de397170db40e35b690600090a25050565b60005b83811015610e2157612e24858583818110612df157612df16143cb565b9050602002016020810190612e069190613b92565b848484818110612e1857612e186143cb565b90506020020135610c9e565b600101612dd4565b6001600160a01b038316612e8e5760405162461bcd60e51b8152602060048201526024808201527f45524332303a20617070726f76652066726f6d20746865207a65726f206164646044820152637265737360e01b6064820152608401610d33565b6001600160a01b038216612eef5760405162461bcd60e51b815260206004820152602260248201527f45524332303a20617070726f766520746f20746865207a65726f206164647265604482015261737360f01b6064820152608401610d33565b6001600160a01b0383811660008181526001602090815260408083209487168084529482529182902085905590518481527f8c5be1e5ebec7d5bd14f71427d1e84f3dd0314c0f7b2291e5b200ac8c7c3b92591015b60405180910390a3505050565b61120c81336137b3565b6001600160a01b038316612fbf5760405162461bcd60e51b815260206004820152602560248201527f45524332303a207472616e736665722066726f6d20746865207a65726f206164604482015264647265737360d81b6064820152608401610d33565b6001600160a01b0382166130215760405162461bcd60e51b815260206004820152602360248201527f45524332303a207472616e7366657220746f20746865207a65726f206164647260448201526265737360e81b6064820152608401610d33565b61302c8383836137ec565b6001600160a01b0383166000908152602081905260409020546130509082906143fe565b6001600160a01b0380851660009081526020819052604080822093909355908416815220546130809082906143b8565b6001600160a01b038381166000818152602081815260409182902094909455518481529092918616917fddf252ad1be2c89b69c2b068fc378daa952ba7f163c4a11628f55a4df523b3ef9101612f44565b6000600080516020614ad08339815191526130ec8484611b97565b61316c576000848152602082815260408083206001600160a01b03871684529091529020805460ff191660011790556131223390565b6001600160a01b0316836001600160a01b0316857f2f8788117e7eff1d82e926ec794901d17c78024a50270940304540a733656f0d60405160405180910390a46001915050610bf0565b6000915050610bf0565b6000600080516020614ad08339815191526131918484611b97565b1561316c576000848152602082815260408083206001600160a01b0387168085529252808320805460ff1916905551339287917ff6391f5c32d9c69d2a47ea670b442974b53935d1edc7fd64eb21e047a839171b9190a46001915050610bf0565b6001600160a01b0382166132485760405162461bcd60e51b815260206004820152601f60248201527f45524332303a206d696e7420746f20746865207a65726f2061646472657373006044820152606401610d33565b613254600083836137ec565b8060025461326291906143b8565b6002556001600160a01b0382166000908152602081905260409020546132899082906143b8565b6001600160a01b038316600081815260208181526040808320949094559251848152919290917fddf252ad1be2c89b69c2b068fc378daa952ba7f163c4a11628f55a4df523b3ef91015b60405180910390a35050565b6000807ff0c57e16840df040f15088dc2f81fe391c3923bec73e23a9662efc9c229c6a00610bf0565b805160600151158061331d5750805160800151155b806133335750805160a0015165ffffffffffff16155b1561335157604051634762470b60e11b815260040160405180910390fd5b6020810151516001600160a01b0316158061337a575060208082015101516001600160a01b0316155b8061339457506020810151608001516001600160a01b0316155b156133b2576040516332691b5760e01b815260040160405180910390fd5b6020810151610140015115806133cf575060208101516101600151155b156133ed57604051634762470b60e11b815260040160405180910390fd5b604081015160200151158061340d57506040808201516020810151910151105b1561120c57604051634762470b60e11b815260040160405180910390fd5b61343361372b565b565b61343d61372b565b6134336138a3565b306001600160a01b037f00000000000000000000000000000000000000000000000000000000000000001614806134cc57507f00000000000000000000000000000000000000000000000000000000000000006001600160a01b03166134c0600080516020614a90833981519152546001600160a01b031690565b6001600160a01b031614155b156134335760405163703e46dd60e11b815260040160405180910390fd5b600080516020614a7083398151915261350281612f51565b816001600160a01b03163b6000036117ad576040516332691b5760e01b815260040160405180910390fd5b816001600160a01b03166352d1902d6040518163ffffffff1660e01b8152600401602060405180830381865afa925050508015613587575060408051601f3d908101601f1916820190925261358491810190614a3a565b60015b6135af57604051634c9c8ce360e01b81526001600160a01b0383166004820152602401610d33565b600080516020614a9083398151915281146135e057604051632a87526960e21b815260048101829052602401610d33565b61107983836138d1565b306001600160a01b037f000000000000000000000000000000000000000000000000000000000000000016146134335760405163703e46dd60e11b815260040160405180910390fd5b6001600160a01b0382166136935760405162461bcd60e51b815260206004820152602160248201527f45524332303a206275726e2066726f6d20746865207a65726f206164647265736044820152607360f81b6064820152608401610d33565b61369f826000836137ec565b6001600160a01b0382166000908152602081905260409020546136c39082906143fe565b6001600160a01b0383166000908152602081905260409020556002546136ea9082906143fe565b6002556040518181526000906001600160a01b038416907fddf252ad1be2c89b69c2b068fc378daa952ba7f163c4a11628f55a4df523b3ef906020016132d3565b613733613927565b61343357604051631afcd79f60e31b815260040160405180910390fd5b600080516020614ad0833981519152600061376a84611002565b600085815260208490526040808220600101869055519192508491839187917fbd79b86ffe0ab8e8776151514217cd7cacd52c909f66475c3af44e129f0b00ff9190a450505050565b6137bd8282611b97565b6117ad5760405163e2517d3f60e01b81526001600160a01b038216600482015260248101839052604401610d33565b60095460ff161561380f5760405162461bcd60e51b8152600401610d3390614411565b60515460ff16613832576040516301c1a59160e11b815260040160405180910390fd5b6001600160a01b0382161580159061385857506047546001600160a01b03838116911614155b1561107957604f5481101561388057604051634762470b60e11b815260040160405180910390fd5b60505481111561107957604051634762470b60e11b815260040160405180910390fd5b6138ab61372b565b60017f9b779b17422d0df92223018b32b4d1fa46e071723d6817e2486d003becc55f0055565b6138da82613941565b6040516001600160a01b038316907fbc7cd75a20ee27fd9adebab32041f755214dbc6bffa90cc0225b39da2e5c2d3b90600090a280511561391f5761107982826139a6565b6117ad613a1c565b60006139316132df565b54600160401b900460ff16919050565b806001600160a01b03163b60000361397757604051634c9c8ce360e01b81526001600160a01b0382166004820152602401610d33565b600080516020614a9083398151915280546001600160a01b0319166001600160a01b0392909216919091179055565b6060600080846001600160a01b0316846040516139c39190614a53565b600060405180830381855af49150503d80600081146139fe576040519150601f19603f3d011682016040523d82523d6000602084013e613a03565b606091505b5091509150613a13858383613a3b565b95945050505050565b34156134335760405163b398979f60e01b815260040160405180910390fd5b606082613a5057613a4b82613a97565b610ffb565b8151158015613a6757506001600160a01b0384163b155b15613a9057604051639996b31560e01b81526001600160a01b0385166004820152602401610d33565b5080610ffb565b805115613aa657805160208201fd5b60405163d6bda27560e01b815260040160405180910390fd5b600060208284031215613ad157600080fd5b81356001600160e01b031981168114610ffb57600080fd5b60005b83811015613b04578181015183820152602001613aec565b50506000910152565b60008151808452613b25816020860160208601613ae9565b601f01601f19169290920160200192915050565b602081526000610ffb6020830184613b0d565b80356001600160a01b0381168114613b6357600080fd5b919050565b60008060408385031215613b7b57600080fd5b613b8483613b4c565b946020939093013593505050565b600060208284031215613ba457600080fd5b610ffb82613b4c565b60008083601f840112613bbf57600080fd5b5081356001600160401b03811115613bd657600080fd5b6020830191508360208260051b8501011115613bf157600080fd5b9250929050565b60008060008060408587031215613c0e57600080fd5b84356001600160401b0380821115613c2557600080fd5b613c3188838901613bad565b90965094506020870135915080821115613c4a57600080fd5b50613c5787828801613bad565b95989497509550505050565b600080600060608486031215613c7857600080fd5b613c8184613b4c565b9250613c8f60208501613b4c565b9150604084013590509250925092565b600060208284031215613cb157600080fd5b5035919050565b60008060408385031215613ccb57600080fd5b82359150613cdb60208401613b4c565b90509250929050565b60008060008060008060608789031215613cfd57600080fd5b86356001600160401b0380821115613d1457600080fd5b613d208a838b01613bad565b90985096506020890135915080821115613d3957600080fd5b613d458a838b01613bad565b90965094506040890135915080821115613d5e57600080fd5b50613d6b89828a01613bad565b979a9699509497509295939492505050565b60008083601f840112613d8f57600080fd5b5081356001600160401b03811115613da657600080fd5b602083019150836020828501011115613bf157600080fd5b60008060208385031215613dd157600080fd5b82356001600160401b03811115613de757600080fd5b613df385828601613d7d565b90969095509350505050565b634e487b7160e01b600052604160045260246000fd5b60405161018081016001600160401b0381118282101715613e3857613e38613dff565b60405290565b604051606081016001600160401b0381118282101715613e3857613e38613dff565b60405160e081016001600160401b0381118282101715613e3857613e38613dff565b60006001600160401b0380841115613e9c57613e9c613dff565b604051601f8501601f19908116603f01168101908282118183101715613ec457613ec4613dff565b81604052809350858152868686011115613edd57600080fd5b858560208301376000602087830101525050509392505050565b60008060408385031215613f0a57600080fd5b613f1383613b4c565b915060208301356001600160401b03811115613f2e57600080fd5b8301601f81018513613f3f57600080fd5b613f4e85823560208401613e82565b9150509250929050565b634e487b7160e01b600052602160045260246000fd5b6000815160e08452613f8360e0850182613b0d565b905060208301518482036020860152613f9c8282613b0d565b91505060ff6040840151166040850152606083015160608501526080830151608085015265ffffffffffff60a08401511660a085015260c083015160048110613ff557634e487b7160e01b600052602160045260246000fd5b8060c0860152508091505092915050565b80516001600160a01b03168252602081015161402d60208401826001600160a01b03169052565b50604081015161404860408401826001600160a01b03169052565b50606081015161406360608401826001600160a01b03169052565b50608081015161407e60808401826001600160a01b03169052565b5060a081015161409960a08401826001600160a01b03169052565b5060c08101516140b460c08401826001600160a01b03169052565b5060e08101516140cf60e08401826001600160a01b03169052565b5061010081810151908301526101208082015190830152610140808201519083015261016090810151910152565b600061022080835261411181840187613f6e565b9150506141216020830185614006565b82516101a083015260208301516101c083015260408301516101e0830152606083015115156102008301525b949350505050565b60008060006060848603121561416a57600080fd5b61417384613b4c565b925061418160208501613b4c565b915061418f60408501613b4c565b90509250925092565b801515811461120c57600080fd5b600080604083850312156141b957600080fd5b6141c283613b4c565b915060208301356141d281614198565b809150509250929050565b600080600080608085870312156141f357600080fd5b6141fc85613b4c565b935061420a60208601613b4c565b925061421860408601613b4c565b9396929550929360600135925050565b6000806040838503121561423b57600080fd5b61424483613b4c565b9150613cdb60208401613b4c565b6000806040838503121561426557600080fd5b8235915060208301356141d281614198565b600082601f83011261428857600080fd5b610ffb83833560208501613e82565b803560ff81168114613b6357600080fd5b600080600080600080600080610100898b0312156142c557600080fd5b6142ce89613b4c565b97506142dc60208a01613b4c565b965060408901356001600160401b03808211156142f857600080fd5b6143048c838d01614277565b975060608b013591508082111561431a57600080fd5b506143278b828c01614277565b95505061433660808a01614297565b935060a0890135925061434b60c08a01613b4c565b915061435960e08a01613b4c565b90509295985092959890939650565b600181811c9082168061437c57607f821691505b60208210810361439c57634e487b7160e01b600052602260045260246000fd5b50919050565b634e487b7160e01b600052601160045260246000fd5b80820180821115610bf057610bf06143a2565b634e487b7160e01b600052603260045260246000fd5b6000602082840312156143f357600080fd5b8135610ffb81614198565b81810381811115610bf057610bf06143a2565b60208082526010908201526f14185d5cd8589b194e881c185d5cd95960821b604082015260600190565b600080835461444981614368565b600182811680156144615760018114614476576144a5565b60ff19841687528215158302870194506144a5565b8760005260208060002060005b8581101561449c5781548a820152908401908201614483565b50505082870194505b50929695505050505050565b60ff8316815260406020820152600061414d6040830184613b0d565b803565ffffffffffff81168114613b6357600080fd5b803560048110613b6357600080fd5b6000610180828403121561450557600080fd5b61450d613e15565b905061451882613b4c565b815261452660208301613b4c565b602082015261453760408301613b4c565b604082015261454860608301613b4c565b606082015261455960808301613b4c565b608082015261456a60a08301613b4c565b60a082015261457b60c08301613b4c565b60c082015261458c60e08301613b4c565b60e08201526101008281013590820152610120808301359082015261014080830135908201526101609182013591810191909152919050565b6000608082840312156145d757600080fd5b604051608081018181106001600160401b03821117156145f9576145f9613dff565b8060405250809150823581526020830135602082015260408301356040820152606083013561462781614198565b6060919091015292915050565b60006020828403121561464657600080fd5b81356001600160401b038082111561465d57600080fd5b90830190610220828603121561467257600080fd5b61467a613e3e565b82358281111561468957600080fd5b830160e0818803121561469b57600080fd5b6146a3613e60565b8135848111156146b257600080fd5b6146be89828501614277565b8252506020820135848111156146d357600080fd5b6146df89828501614277565b6020830152506146f160408301614297565b6040820152606082013560608201526080820135608082015261471660a083016144cd565b60a082015261472760c083016144e3565b60c082015282525061473c86602085016144f2565b602082015261474f866101a085016145c5565b604082015295945050505050565b601f821115611079576000816000526020600020601f850160051c810160208610156147865750805b601f850160051c820191505b818110156147a557828155600101614792565b505050505050565b81516001600160401b038111156147c6576147c6613dff565b6147da816147d48454614368565b8461475d565b602080601f83116001811461480f57600084156147f75750858301515b600019600386901b1c1916600185901b1785556147a5565b600085815260208120601f198616915b8281101561483e5788860151825594840194600190910190840161481f565b508582101561485c5787850151600019600388901b60f8161c191681555b5050505050600190811b01905550565b6020815260008251610220602084015261488a610240840182613f6e565b9050602084015161489e6040850182614006565b5060408481015180516101c086015260208101516101e08601529081015161020085015260608101511515610220850152611f31565b6000602082840312156148e657600080fd5b8151610ffb81614198565b60006020828403121561490357600080fd5b815161ffff81168114610ffb57600080fd5b60208152816020820152818360408301376000818301604090810191909152601f909201601f19160101919050565b6020808252601f908201527f696e76616c696420617267756d656e74202d20656d70747920737472696e6700604082015260600190565b6001600160401b0383111561499257614992613dff565b6149a6836149a08354614368565b8361475d565b6000601f8411600181146149da57600085156149c25750838201355b600019600387901b1c1916600186901b178355610e21565b600083815260209020601f19861690835b82811015614a0b57868501358255602094850194600190920191016149eb565b5086821015614a285760001960f88860031b161c19848701351681555b505060018560011b0183555050505050565b600060208284031215614a4c57600080fd5b5051919050565b60008251614a65818460208701613ae9565b919091019291505056fe52eafc11f6f81f86878bffd31109a0d92f37506527754f00788853ff9f63b130360894a13ba1a3210667c828492db98dca3e2076cc3735a920a3ca505d382bbc9f2df0fed2c77648de5860a4cc508cd0818c85b8b8a1ab4ceeef8d981c8956a602dd7bc7dec4dceedda775e58dd541e08a116c6c53815c0bd028192f7b626800a49807205ce4d355092ef5a8a18f56e8913cf4a201fbe287825b095693c21775a2646970667358221220c16af6e70925164281160276ae9e358d7c25c8185370e55aa9ad2de9ea9e01c464736f6c63430008180033","linkReferences":{}},"methodIdentifiers":{"DEFAULT_ADMIN_ROLE()":"a217fddf","UPGRADE_INTERFACE_VERSION()":"ad3cb1cc","allowance(address,address)":"dd62ed3e","approve(address,uint256)":"095ea7b3","balanceOf(address)":"70a08231","batchBurn(address[],uint256[])":"4a6cc677","batchForcedTransfer(address[],address[],uint256[])":"42a47abc","batchFreezePartialTokens(address[],uint256[])":"fc7e5fa8","batchMint(address[],uint256[])":"68573107","batchSetAddressFrozen(address[],bool[])":"1a7af379","batchTransfer(address[],uint256[])":"88d695b2","batchUnfreezePartialTokens(address[],uint256[])":"4710362d","burn(address,uint256)":"9dc29fac","compliance()":"6290865d","config()":"79502c55","deactivateProject(bytes32)":"d7a66382","decimals()":"313ce567","decreaseAllowance(address,uint256)":"a457c2d7","forcedTransfer(address,address,uint256)":"9fc1d0e7","freezePartialTokens(address,uint256)":"125c4a33","getFrozenTokens(address)":"158b1a57","getInvestmentLimits()":"787de777","getIsActive()":"fba7cc79","getProjectDetails()":"ff3a9c7e","getProjectOwner()":"e6d68595","getRoleAdmin(bytes32)":"248a9ca3","grantRole(bytes32,address)":"2f2ff15d","hasRole(bytes32,address)":"91d14854","identityRegistry()":"134e18f4","increaseAllowance(address,uint256)":"39509351","init(address,address,string,string,uint8,uint256,address,address)":"e21b496f","initialize(bytes)":"439fab91","isFrozen(address)":"e5839836","maxSupply()":"d5abeb01","mint(address,uint256)":"40c10f19","name()":"06fdde03","onchainID()":"aba63705","pause()":"8456cb59","paused()":"5c975abb","proxiableUUID()":"52d1902d","recoveryAddress(address,address,address)":"9285948a","renounceRole(bytes32,address)":"36568abe","revokeRole(bytes32,address)":"d547741f","setAddressFrozen(address,bool)":"c69c09cf","setCompliance(address)":"f8981789","setIdentityRegistry(address)":"cbf3f861","setName(string)":"c47f0027","setOnchainID(address)":"3d1ddc5b","setProjectContracts(address,address,address,uint256)":"cf501b68","setSymbol(string)":"b84c8246","supportsInterface(bytes4)":"01ffc9a7","symbol()":"95d89b41","tokenPrice()":"7ff9b596","totalSupply()":"18160ddd","transfer(address,uint256)":"a9059cbb","transferFrom(address,address,uint256)":"23b872dd","unfreezePartialTokens(address,uint256)":"1fe56f7d","unpause()":"3f4ba83a","updateMetadataCID(bytes32,bool)":"df2bbf01","upgradeToAndCall(address,bytes)":"4f1ef286","version()":"54fd4d50"},"id":83}