{"abi":[{"type":"function","name":"ADMIN_ROLE","inputs":[],"outputs":[{"name":"","type":"bytes32","internalType":"bytes32"}],"stateMutability":"view"},{"type":"function","name":"DEFAULT_ADMIN_ROLE","inputs":[],"outputs":[{"name":"","type":"bytes32","internalType":"bytes32"}],"stateMutability":"view"},{"type":"function","name":"UPGRADE_INTERFACE_VERSION","inputs":[],"outputs":[{"name":"","type":"string","internalType":"string"}],"stateMutability":"view"},{"type":"function","name":"addSigner","inputs":[{"name":"signer","type":"address","internalType":"address"}],"outputs":[],"stateMutability":"nonpayable"},{"type":"function","name":"executeFallback","inputs":[{"name":"proposalId","type":"uint256","internalType":"uint256"}],"outputs":[],"stateMutability":"nonpayable"},{"type":"function","name":"getProposalCount","inputs":[],"outputs":[{"name":"","type":"uint16","internalType":"uint16"}],"stateMutability":"view"},{"type":"function","name":"getProposalStatus","inputs":[{"name":"proposalId","type":"uint256","internalType":"uint256"}],"outputs":[{"name":"","type":"tuple","internalType":"struct ProplexDAO.Proposal","components":[{"name":"startTime","type":"uint48","internalType":"uint48"},{"name":"endTime","type":"uint48","internalType":"uint48"},{"name":"deadline","type":"uint48","internalType":"uint48"},{"name":"forVotes","type":"uint40","internalType":"uint40"},{"name":"againstVotes","type":"uint40","internalType":"uint40"},{"name":"signatureCount","type":"uint8","internalType":"uint8"},{"name":"executed","type":"bool","internalType":"bool"}]}],"stateMutability":"view"},{"type":"function","name":"getQuorumThreshold","inputs":[],"outputs":[{"name":"","type":"uint8","internalType":"uint8"}],"stateMutability":"view"},{"type":"function","name":"getRoleAdmin","inputs":[{"name":"role","type":"bytes32","internalType":"bytes32"}],"outputs":[{"name":"","type":"bytes32","internalType":"bytes32"}],"stateMutability":"view"},{"type":"function","name":"grantRole","inputs":[{"name":"role","type":"bytes32","internalType":"bytes32"},{"name":"account","type":"address","internalType":"address"}],"outputs":[],"stateMutability":"nonpayable"},{"type":"function","name":"hasRole","inputs":[{"name":"role","type":"bytes32","internalType":"bytes32"},{"name":"account","type":"address","internalType":"address"}],"outputs":[{"name":"","type":"bool","internalType":"bool"}],"stateMutability":"view"},{"type":"function","name":"initialize","inputs":[{"name":"_project","type":"address","internalType":"address"},{"name":"_quorumThreshold","type":"uint8","internalType":"uint8"},{"name":"owner","type":"address","internalType":"address"}],"outputs":[],"stateMutability":"nonpayable"},{"type":"function","name":"pause","inputs":[],"outputs":[],"stateMutability":"nonpayable"},{"type":"function","name":"paused","inputs":[],"outputs":[{"name":"","type":"bool","internalType":"bool"}],"stateMutability":"view"},{"type":"function","name":"project","inputs":[],"outputs":[{"name":"","type":"address","internalType":"address"}],"stateMutability":"view"},{"type":"function","name":"proposalCount","inputs":[],"outputs":[{"name":"","type":"uint16","internalType":"uint16"}],"stateMutability":"view"},{"type":"function","name":"proposals","inputs":[{"name":"","type":"uint256","internalType":"uint256"}],"outputs":[{"name":"startTime","type":"uint48","internalType":"uint48"},{"name":"endTime","type":"uint48","internalType":"uint48"},{"name":"deadline","type":"uint48","internalType":"uint48"},{"name":"forVotes","type":"uint40","internalType":"uint40"},{"name":"againstVotes","type":"uint40","internalType":"uint40"},{"name":"signatureCount","type":"uint8","internalType":"uint8"},{"name":"executed","type":"bool","internalType":"bool"}],"stateMutability":"view"},{"type":"function","name":"propose","inputs":[{"name":"description","type":"string","internalType":"string"},{"name":"delay","type":"uint48","internalType":"uint48"}],"outputs":[],"stateMutability":"nonpayable"},{"type":"function","name":"proxiableUUID","inputs":[],"outputs":[{"name":"","type":"bytes32","internalType":"bytes32"}],"stateMutability":"view"},{"type":"function","name":"quorumThreshold","inputs":[],"outputs":[{"name":"","type":"uint8","internalType":"uint8"}],"stateMutability":"view"},{"type":"function","name":"renounceRole","inputs":[{"name":"role","type":"bytes32","internalType":"bytes32"},{"name":"callerConfirmation","type":"address","internalType":"address"}],"outputs":[],"stateMutability":"nonpayable"},{"type":"function","name":"requiredSignatures","inputs":[],"outputs":[{"name":"","type":"uint8","internalType":"uint8"}],"stateMutability":"view"},{"type":"function","name":"revokeRole","inputs":[{"name":"role","type":"bytes32","internalType":"bytes32"},{"name":"account","type":"address","internalType":"address"}],"outputs":[],"stateMutability":"nonpayable"},{"type":"function","name":"revokeSigner","inputs":[{"name":"signer","type":"address","internalType":"address"}],"outputs":[],"stateMutability":"nonpayable"},{"type":"function","name":"setGovernanceParams","inputs":[{"name":"_requiredSignatures","type":"uint8","internalType":"uint8"},{"name":"_quorumThreshold","type":"uint8","internalType":"uint8"}],"outputs":[],"stateMutability":"nonpayable"},{"type":"function","name":"signProposal","inputs":[{"name":"proposalId","type":"uint256","internalType":"uint256"}],"outputs":[],"stateMutability":"nonpayable"},{"type":"function","name":"supportsInterface","inputs":[{"name":"interfaceId","type":"bytes4","internalType":"bytes4"}],"outputs":[{"name":"","type":"bool","internalType":"bool"}],"stateMutability":"view"},{"type":"function","name":"unpause","inputs":[],"outputs":[],"stateMutability":"nonpayable"},{"type":"function","name":"upgradeToAndCall","inputs":[{"name":"newImplementation","type":"address","internalType":"address"},{"name":"data","type":"bytes","internalType":"bytes"}],"outputs":[],"stateMutability":"payable"},{"type":"function","name":"vote","inputs":[{"name":"proposalId","type":"uint256","internalType":"uint256"},{"name":"support","type":"bool","internalType":"bool"}],"outputs":[],"stateMutability":"nonpayable"},{"type":"event","name":"DAOInitialized","inputs":[{"name":"project","type":"address","indexed":true,"internalType":"address"},{"name":"quorumThreshold","type":"uint8","indexed":false,"internalType":"uint8"}],"anonymous":false},{"type":"event","name":"FallbackExecution","inputs":[{"name":"proposalId","type":"uint256","indexed":true,"internalType":"uint256"}],"anonymous":false},{"type":"event","name":"GovernanceParamsSet","inputs":[{"name":"requiredSignatures","type":"uint8","indexed":false,"internalType":"uint8"},{"name":"quorumThreshold","type":"uint8","indexed":false,"internalType":"uint8"}],"anonymous":false},{"type":"event","name":"Initialized","inputs":[{"name":"version","type":"uint64","indexed":false,"internalType":"uint64"}],"anonymous":false},{"type":"event","name":"Paused","inputs":[{"name":"account","type":"address","indexed":false,"internalType":"address"}],"anonymous":false},{"type":"event","name":"ProposalCreated","inputs":[{"name":"proposalId","type":"uint256","indexed":true,"internalType":"uint256"},{"name":"proposer","type":"address","indexed":true,"internalType":"address"},{"name":"descriptionHash","type":"bytes32","indexed":false,"internalType":"bytes32"},{"name":"delay","type":"uint48","indexed":false,"internalType":"uint48"}],"anonymous":false},{"type":"event","name":"ProposalExecuted","inputs":[{"name":"proposalId","type":"uint256","indexed":true,"internalType":"uint256"}],"anonymous":false},{"type":"event","name":"ProposalSigned","inputs":[{"name":"proposalId","type":"uint256","indexed":true,"internalType":"uint256"},{"name":"signer","type":"address","indexed":true,"internalType":"address"}],"anonymous":false},{"type":"event","name":"RoleAdminChanged","inputs":[{"name":"role","type":"bytes32","indexed":true,"internalType":"bytes32"},{"name":"previousAdminRole","type":"bytes32","indexed":true,"internalType":"bytes32"},{"name":"newAdminRole","type":"bytes32","indexed":true,"internalType":"bytes32"}],"anonymous":false},{"type":"event","name":"RoleGranted","inputs":[{"name":"role","type":"bytes32","indexed":true,"internalType":"bytes32"},{"name":"account","type":"address","indexed":true,"internalType":"address"},{"name":"sender","type":"address","indexed":true,"internalType":"address"}],"anonymous":false},{"type":"event","name":"RoleRevoked","inputs":[{"name":"role","type":"bytes32","indexed":true,"internalType":"bytes32"},{"name":"account","type":"address","indexed":true,"internalType":"address"},{"name":"sender","type":"address","indexed":true,"internalType":"address"}],"anonymous":false},{"type":"event","name":"SignerAdded","inputs":[{"name":"signer","type":"address","indexed":true,"internalType":"address"}],"anonymous":false},{"type":"event","name":"SignerRevoked","inputs":[{"name":"signer","type":"address","indexed":true,"internalType":"address"}],"anonymous":false},{"type":"event","name":"Unpaused","inputs":[{"name":"account","type":"address","indexed":false,"internalType":"address"}],"anonymous":false},{"type":"event","name":"Upgraded","inputs":[{"name":"implementation","type":"address","indexed":true,"internalType":"address"}],"anonymous":false},{"type":"event","name":"Voted","inputs":[{"name":"proposalId","type":"uint256","indexed":true,"internalType":"uint256"},{"name":"voter","type":"address","indexed":true,"internalType":"address"},{"name":"support","type":"bool","indexed":false,"internalType":"bool"},{"name":"weight","type":"uint256","indexed":false,"internalType":"uint256"}],"anonymous":false},{"type":"error","name":"AccessControlBadConfirmation","inputs":[]},{"type":"error","name":"AccessControlUnauthorizedAccount","inputs":[{"name":"account","type":"address","internalType":"address"},{"name":"neededRole","type":"bytes32","internalType":"bytes32"}]},{"type":"error","name":"AddressEmptyCode","inputs":[{"name":"target","type":"address","internalType":"address"}]},{"type":"error","name":"AlreadySigned","inputs":[]},{"type":"error","name":"AlreadyVoted","inputs":[]},{"type":"error","name":"CannotModifyAdmin","inputs":[]},{"type":"error","name":"ERC1967InvalidImplementation","inputs":[{"name":"implementation","type":"address","internalType":"address"}]},{"type":"error","name":"ERC1967NonPayable","inputs":[]},{"type":"error","name":"EnforcedPause","inputs":[]},{"type":"error","name":"ExpectedPause","inputs":[]},{"type":"error","name":"FailedCall","inputs":[]},{"type":"error","name":"InsufficientBalance","inputs":[]},{"type":"error","name":"InsufficientQuorum","inputs":[]},{"type":"error","name":"InsufficientSignatures","inputs":[]},{"type":"error","name":"InvalidAddress","inputs":[]},{"type":"error","name":"InvalidDelay","inputs":[]},{"type":"error","name":"InvalidInitialization","inputs":[]},{"type":"error","name":"InvalidParameter","inputs":[]},{"type":"error","name":"InvalidSignatureCount","inputs":[]},{"type":"error","name":"NotInitializing","inputs":[]},{"type":"error","name":"ProposalExpired","inputs":[]},{"type":"error","name":"ProposalNotExpired","inputs":[]},{"type":"error","name":"ProposalNotFound","inputs":[]},{"type":"error","name":"ReentrancyGuardReentrantCall","inputs":[]},{"type":"error","name":"UUPSUnauthorizedCallContext","inputs":[]},{"type":"error","name":"UUPSUnsupportedProxiableUUID","inputs":[{"name":"slot","type":"bytes32","internalType":"bytes32"}]},{"type":"error","name":"VotingPeriodEnded","inputs":[]}],"bytecode":{"object":"0x60a06040523060805234801561001457600080fd5b5060805161224661003e6000396000818161187e015281816118a70152611a2801526122466000f3fe6080604052600436106101cd5760003560e01c80638456cb59116100f7578063c08cc02d11610095578063da35c66411610064578063da35c66414610722578063eb12d61e14610744578063f35f9e4514610764578063f60ca60d1461078457600080fd5b8063c08cc02d14610693578063c34b44a0146106c2578063c9d27afe146106e2578063d547741f1461070257600080fd5b8063a217fddf116100d1578063a217fddf14610600578063ab27301614610615578063ad3cb1cc14610635578063be40fbdd1461067357600080fd5b80638456cb59146105aa5780638d068043146105bf57806391d14854146105e057600080fd5b80633f4ba83a1161016f57806352d1902d1161013e57806352d1902d1461052d5780635c975abb1461054257806375b238fc146105675780637b7a91dd1461058957600080fd5b80633f4ba83a14610380578063401853b7146103955780634afa71b9146104ed5780634f1ef2861461051a57600080fd5b8063248a9ca3116101ab578063248a9ca3146102f25780632f2ff15d1461032057806336568abe146103405780633e0ec2ba1461036057600080fd5b8063013cf08b146101d257806301ffc9a7146102a057806317fa1078146102d0575b600080fd5b3480156101de57600080fd5b5061024c6101ed366004611d77565b60016020526000908152604090205465ffffffffffff80821691600160301b8104821691600160601b8204169064ffffffffff600160901b8204811691600160b81b81049091169060ff600160e01b8204811691600160e81b90041687565b6040805165ffffffffffff98891681529688166020880152949096169385019390935264ffffffffff918216606085015216608083015260ff1660a082015290151560c082015260e0015b60405180910390f35b3480156102ac57600080fd5b506102c06102bb366004611d90565b6107bc565b6040519015158152602001610297565b3480156102dc57600080fd5b506102f06102eb366004611d77565b6107f3565b005b3480156102fe57600080fd5b5061031261030d366004611d77565b610975565b604051908152602001610297565b34801561032c57600080fd5b506102f061033b366004611dd6565b610997565b34801561034c57600080fd5b506102f061035b366004611dd6565b6109b9565b34801561036c57600080fd5b506102f061037b366004611e02565b6109f1565b34801561038c57600080fd5b506102f0610ca0565b3480156103a157600080fd5b506104776103b0366004611d77565b6040805160e081018252600080825260208201819052918101829052606081018290526080810182905260a0810182905260c081019190915250600090815260016020908152604091829020825160e081018452905465ffffffffffff8082168352600160301b8204811693830193909352600160601b81049092169281019290925264ffffffffff600160901b820481166060840152600160b81b820416608083015260ff600160e01b8204811660a0840152600160e81b90910416151560c082015290565b6040516102979190600060e08201905065ffffffffffff80845116835280602085015116602084015280604085015116604084015250606083015164ffffffffff8082166060850152806080860151166080850152505060ff60a08401511660a083015260c0830151151560c083015292915050565b3480156104f957600080fd5b50600054600160b81b900460ff165b60405160ff9091168152602001610297565b6102f0610528366004611ea6565b610cc3565b34801561053957600080fd5b50610312610ce2565b34801561054e57600080fd5b506000805160206121b18339815191525460ff166102c0565b34801561057357600080fd5b506103126000805160206121f183398151915281565b34801561059557600080fd5b5060005461050890600160b81b900460ff1681565b3480156105b657600080fd5b506102f0610cff565b3480156105cb57600080fd5b5060005461050890600160b01b900460ff1681565b3480156105ec57600080fd5b506102c06105fb366004611dd6565b610d1f565b34801561060c57600080fd5b50610312600081565b34801561062157600080fd5b506102f0610630366004611d77565b610d57565b34801561064157600080fd5b50610666604051806040016040528060058152602001640352e302e360dc1b81525081565b6040516102979190611f8c565b34801561067f57600080fd5b506102f061068e366004611fd0565b610fb4565b34801561069f57600080fd5b50600054600160a01b900461ffff165b60405161ffff9091168152602001610297565b3480156106ce57600080fd5b506102f06106dd366004611ffa565b6110a4565b3480156106ee57600080fd5b506102f06106fd366004612015565b61117f565b34801561070e57600080fd5b506102f061071d366004611dd6565b61138e565b34801561072e57600080fd5b506000546106af90600160a01b900461ffff1681565b34801561075057600080fd5b506102f061075f366004611ffa565b6113aa565b34801561077057600080fd5b506102f061077f36600461204a565b611463565b34801561079057600080fd5b506000546107a4906001600160a01b031681565b6040516001600160a01b039091168152602001610297565b60006001600160e01b03198216637965db0b60e01b14806107ed57506301ffc9a760e01b6001600160e01b03198316145b92915050565b6000805160206121f183398151915261080b81611662565b61081361166c565b60008281526001602052604081208054909165ffffffffffff909116900361084e5760405163635e873760e01b815260040160405180910390fd5b8054600160601b900465ffffffffffff16421161087e576040516308251df360e41b815260040160405180910390fd5b8054600160e81b900460ff16156108a85760405163635e873760e01b815260040160405180910390fd5b80546000906108ce9064ffffffffff600160b81b8204811691600160901b9004166120a3565b9050662386f26fc1000081108061091557506000546108f8908290600160b81b900460ff166120b6565b825461091390600160901b900464ffffffffff1660646120b6565b105b156109335760405163284422c160e11b815260040160405180910390fd5b815460ff60e81b1916600160e81b17825560405184907fa0fa89a981a6fc3c3456b7708f7b1b4f6d487361ba2077b2d2c6a47d7c30a95190600090a250505050565b6000908152600080516020612191833981519152602052604090206001015490565b6109a082610975565b6109a981611662565b6109b3838361169f565b50505050565b6001600160a01b03811633146109e25760405163334bd91960e11b815260040160405180910390fd5b6109ec828261174b565b505050565b6109f96117c7565b610a0161166c565b662386f26fc1000033311015610a2a57604051631e9acf1760e31b815260040160405180910390fd5b610e108165ffffffffffff161080610a4c575062278d008165ffffffffffff16115b15610a6a576040516327df2edd60e11b815260040160405180910390fd5b81801580610a7957506103e881115b15610a9757604051630309cb8760e51b815260040160405180910390fd5b600080548190601490610ab490600160a01b900461ffff166120cd565b825461ffff9182166101009390930a838102920219161790915590506000610ae465ffffffffffff8516426120a3565b90506040518060e001604052808265ffffffffffff1681526020016203f48083610b0e91906120ee565b65ffffffffffff168152602001610b2862093a80846120ee565b65ffffffffffff9081168252600060208084018290526040808501839052606080860184905260809586018490528884526001835292819020865181549388015188840151958901519789015160a08a015160c0909a01519288166bffffffffffffffffffffffff1990961695909517600160301b91881691909102176affffffffffffffffffffff60601b1916600160601b959096169490940264ffffffffff60901b191694909417600160901b64ffffffffff968716021765ffffffffffff60b81b1916600160b81b959092169490940260ff60e01b191617600160e01b60ff909516949094029390931760ff60e81b1916600160e81b931515939093029290921790915551339083907f2399f6afe9885b05c85e31ed8a757881cb623072fc27ab4fa66257ae873a994c90610c63908a908a9061210d565b60408051918290038220825265ffffffffffff891660208301520160405180910390a35050506109ec60016000805160206121d183398151915255565b6000805160206121f1833981519152610cb881611662565b610cc0611813565b50565b610ccb611873565b610cd482611918565b610cde828261195b565b5050565b6000610cec611a1d565b5060008051602061217183398151915290565b6000805160206121f1833981519152610d1781611662565b610cc0611a66565b6000918252600080516020612191833981519152602090815260408084206001600160a01b0393909316845291905290205460ff1690565b610d5f6117c7565b6000805160206121f1833981519152610d7781611662565b610d7f61166c565b60008281526001602052604081208054909165ffffffffffff9091169003610dba5760405163635e873760e01b815260040160405180910390fd5b8054600160601b900465ffffffffffff16421115610deb576040516328a7237960e01b815260040160405180910390fd5b600083815260036020908152604080832033600881901c80865291909352922054909190600160ff84161b90811615610e375760405163585eb56560e11b815260040160405180910390fd5b600086815260036020908152604080832085845290915281208054831790558454610e799064ffffffffff600160b81b8204811691600160901b9004166120a3565b9050662386f26fc10000811080610ec05750600054610ea3908290600160b81b900460ff166120b6565b8554610ebe90600160901b900464ffffffffff1660646120b6565b105b15610ede5760405163284422c160e11b815260040160405180910390fd5b600054855460ff60e01b19811660ff600160e01b9283900481166001018116928302919091178855600160b01b90920490911611801590610f2857508454600160e81b900460ff16155b15610f6a57845460ff60e81b1916600160e81b17855560405187907f712ae1383f79ac853f8d882153778e0260ef8f03b504e2866e0593e04d2b291f90600090a25b604051339088907fc47a1536197401b36a117101725a5dfa1495e2643f664e4a10289c7bba94444790600090a3505050505050610cc060016000805160206121d183398151915255565b6000805160206121f1833981519152610fcc81611662565b60028360ff161080610fe15750600a8360ff16115b15610fff576040516322e5ce4360e21b815260040160405180910390fd5b60328260ff161080611014575060648260ff16115b1561103257604051630309cb8760e51b815260040160405180910390fd5b6000805461ffff60b01b1916600160b01b60ff86811691820260ff60b81b191692909217600160b81b928616928302179092556040805192835260208301919091527f9007903648c97ba1d75ba7150b378cc5d65ca8a56c586f6fba043caf106fc895910160405180910390a1505050565b6000805160206121f18339815191526110bc81611662565b6001600160a01b03821615806110e757506110e56000805160206121f183398151915283610d1f565b155b156111055760405163e6c4247b60e01b815260040160405180910390fd5b611110600083610d1f565b1561112e5760405163f68a1b1560e01b815260040160405180910390fd5b6111466000805160206121f18339815191528361174b565b506040516001600160a01b038316907f99a705a3c2c3339d0051f56b36a60fef91e30142c93353002617999f27aec4af90600090a25050565b6111876117c7565b61118f61166c565b60008281526001602052604081208054909165ffffffffffff90911690036111ca5760405163635e873760e01b815260040160405180910390fd5b805465ffffffffffff164210806111f057508054600160301b900465ffffffffffff1642115b1561120e5760405163370ec37160e21b815260040160405180910390fd5b600083815260026020908152604080832033600881901c80865291909352922054909190600160ff84161b9081161561125a57604051637c9a1cf960e01b815260040160405180910390fd5b600086815260026020908152604080832085845290915290208054821790553331662386f26fc100008110156112a357604051631e9acf1760e31b815260040160405180910390fd5b85156112f0578454819086906012906112cb908490600160901b900464ffffffffff1661211d565b92506101000a81548164ffffffffff021916908364ffffffffff160217905550611333565b845481908690601790611312908490600160b81b900464ffffffffff1661211d565b92506101000a81548164ffffffffff021916908364ffffffffff1602179055505b60408051871515815260208101839052339189917f7c2de587c00d75474a0c6c6fa96fd3b45dc974cd4e8a75f712bb84c950dce1b5910160405180910390a35050505050610cde60016000805160206121d183398151915255565b61139782610975565b6113a081611662565b6109b3838361174b565b6000805160206121f18339815191526113c281611662565b6001600160a01b0382166113e95760405163e6c4247b60e01b815260040160405180910390fd5b6113f4600083610d1f565b156114125760405163f68a1b1560e01b815260040160405180910390fd5b61142a6000805160206121f18339815191528361169f565b506040516001600160a01b038316907f47d1c22a25bb3a5d4e481b9b1e6944c2eade3181a0a20b495ed61d35b5323f2490600090a25050565b600061146d611aaf565b805490915060ff600160401b820416159067ffffffffffffffff166000811580156114955750825b905060008267ffffffffffffffff1660011480156114b25750303b155b9050811580156114c0575080155b156114de5760405163f92ee8a960e01b815260040160405180910390fd5b845467ffffffffffffffff19166001178555831561150857845460ff60401b1916600160401b1785555b6001600160a01b03881661152f5760405163e6c4247b60e01b815260040160405180910390fd5b60328760ff161080611544575060648760ff16115b1561156257604051630309cb8760e51b815260040160405180910390fd5b61156a611ad8565b611572611ad8565b61157a611ae0565b611582611ad8565b6000805460ff8916600160b81b02600163ff00000160a01b03199091166001600160a01b038b16171781556115b7908761169f565b506115d06000805160206121f18339815191528761169f565b5060405160ff881681526001600160a01b038916907f04f788882fde9a3dbd4c4783cd668dcb41d004c055fe452affa030aa9186c81b9060200160405180910390a2831561165857845460ff60401b19168555604051600181527fc7f505b2f371ae2175ee4913f4499e1f2633a7b5936321eed1cdaeb6115181d29060200160405180910390a15b5050505050505050565b610cc08133611af0565b6000805160206121b18339815191525460ff161561169d5760405163d93c066560e01b815260040160405180910390fd5b565b60006000805160206121918339815191526116ba8484610d1f565b61173a576000848152602082815260408083206001600160a01b03871684529091529020805460ff191660011790556116f03390565b6001600160a01b0316836001600160a01b0316857f2f8788117e7eff1d82e926ec794901d17c78024a50270940304540a733656f0d60405160405180910390a460019150506107ed565b60009150506107ed565b5092915050565b60006000805160206121918339815191526117668484610d1f565b1561173a576000848152602082815260408083206001600160a01b0387168085529252808320805460ff1916905551339287917ff6391f5c32d9c69d2a47ea670b442974b53935d1edc7fd64eb21e047a839171b9190a460019150506107ed565b6000805160206121d18339815191528054600119016117f957604051633ee5aeb560e01b815260040160405180910390fd5b60029055565b60016000805160206121d183398151915255565b61181b611b29565b6000805160206121b1833981519152805460ff191681557f5db9ee0a495bf2e6ff9c91a7834c1ba4fdd244a5e8aa4e537bd38aeae4b073aa335b6040516001600160a01b03909116815260200160405180910390a150565b306001600160a01b037f00000000000000000000000000000000000000000000000000000000000000001614806118fa57507f00000000000000000000000000000000000000000000000000000000000000006001600160a01b03166118ee600080516020612171833981519152546001600160a01b031690565b6001600160a01b031614155b1561169d5760405163703e46dd60e11b815260040160405180910390fd5b6000805160206121f183398151915261193081611662565b816001600160a01b03163b600003610cde5760405163e6c4247b60e01b815260040160405180910390fd5b816001600160a01b03166352d1902d6040518163ffffffff1660e01b8152600401602060405180830381865afa9250505080156119b5575060408051601f3d908101601f191682019092526119b29181019061213b565b60015b6119e257604051634c9c8ce360e01b81526001600160a01b03831660048201526024015b60405180910390fd5b6000805160206121718339815191528114611a1357604051632a87526960e21b8152600481018290526024016119d9565b6109ec8383611b59565b306001600160a01b037f0000000000000000000000000000000000000000000000000000000000000000161461169d5760405163703e46dd60e11b815260040160405180910390fd5b611a6e61166c565b6000805160206121b1833981519152805460ff191660011781557f62e78cea01bee320cd4e420270b5ea74000d11b0c9f74754ebdbfc544b05a25833611855565b6000807ff0c57e16840df040f15088dc2f81fe391c3923bec73e23a9662efc9c229c6a006107ed565b61169d611baf565b611ae8611baf565b61169d611bd4565b611afa8282610d1f565b610cde5760405163e2517d3f60e01b81526001600160a01b0382166004820152602481018390526044016119d9565b6000805160206121b18339815191525460ff1661169d57604051638dfc202b60e01b815260040160405180910390fd5b611b6282611bdc565b6040516001600160a01b038316907fbc7cd75a20ee27fd9adebab32041f755214dbc6bffa90cc0225b39da2e5c2d3b90600090a2805115611ba7576109ec8282611c41565b610cde611cb7565b611bb7611cd6565b61169d57604051631afcd79f60e31b815260040160405180910390fd5b6117ff611baf565b806001600160a01b03163b600003611c1257604051634c9c8ce360e01b81526001600160a01b03821660048201526024016119d9565b60008051602061217183398151915280546001600160a01b0319166001600160a01b0392909216919091179055565b6060600080846001600160a01b031684604051611c5e9190612154565b600060405180830381855af49150503d8060008114611c99576040519150601f19603f3d011682016040523d82523d6000602084013e611c9e565b606091505b5091509150611cae858383611cf0565b95945050505050565b341561169d5760405163b398979f60e01b815260040160405180910390fd5b6000611ce0611aaf565b54600160401b900460ff16919050565b606082611d0557611d0082611d4f565b611d48565b8151158015611d1c57506001600160a01b0384163b155b15611d4557604051639996b31560e01b81526001600160a01b03851660048201526024016119d9565b50805b9392505050565b805115611d5e57805160208201fd5b60405163d6bda27560e01b815260040160405180910390fd5b600060208284031215611d8957600080fd5b5035919050565b600060208284031215611da257600080fd5b81356001600160e01b031981168114611d4857600080fd5b80356001600160a01b0381168114611dd157600080fd5b919050565b60008060408385031215611de957600080fd5b82359150611df960208401611dba565b90509250929050565b600080600060408486031215611e1757600080fd5b833567ffffffffffffffff80821115611e2f57600080fd5b818601915086601f830112611e4357600080fd5b813581811115611e5257600080fd5b876020828501011115611e6457600080fd5b6020928301955093505084013565ffffffffffff81168114611e8557600080fd5b809150509250925092565b634e487b7160e01b600052604160045260246000fd5b60008060408385031215611eb957600080fd5b611ec283611dba565b9150602083013567ffffffffffffffff80821115611edf57600080fd5b818501915085601f830112611ef357600080fd5b813581811115611f0557611f05611e90565b604051601f8201601f19908116603f01168101908382118183101715611f2d57611f2d611e90565b81604052828152886020848701011115611f4657600080fd5b8260208601602083013760006020848301015280955050505050509250929050565b60005b83811015611f83578181015183820152602001611f6b565b50506000910152565b6020815260008251806020840152611fab816040850160208701611f68565b601f01601f19169190910160400192915050565b803560ff81168114611dd157600080fd5b60008060408385031215611fe357600080fd5b611fec83611fbf565b9150611df960208401611fbf565b60006020828403121561200c57600080fd5b611d4882611dba565b6000806040838503121561202857600080fd5b823591506020830135801515811461203f57600080fd5b809150509250929050565b60008060006060848603121561205f57600080fd5b61206884611dba565b925061207660208501611fbf565b915061208460408501611dba565b90509250925092565b634e487b7160e01b600052601160045260246000fd5b808201808211156107ed576107ed61208d565b80820281158282048414176107ed576107ed61208d565b600061ffff8083168181036120e4576120e461208d565b6001019392505050565b65ffffffffffff8181168382160190808211156117445761174461208d565b8183823760009101908152919050565b64ffffffffff8181168382160190808211156117445761174461208d565b60006020828403121561214d57600080fd5b5051919050565b60008251612166818460208701611f68565b919091019291505056fe360894a13ba1a3210667c828492db98dca3e2076cc3735a920a3ca505d382bbc02dd7bc7dec4dceedda775e58dd541e08a116c6c53815c0bd028192f7b626800cd5ed15c6e187e77e9aee88184c21f4f2182ab5827cb3b7e07fbedcd63f033009b779b17422d0df92223018b32b4d1fa46e071723d6817e2486d003becc55f00a49807205ce4d355092ef5a8a18f56e8913cf4a201fbe287825b095693c21775a26469706673582212203868b91126b6af9757f0386be2854edc39605a1e94cb4c707e14b579709801a464736f6c63430008180033","linkReferences":{}},"methodIdentifiers":{"ADMIN_ROLE()":"75b238fc","DEFAULT_ADMIN_ROLE()":"a217fddf","UPGRADE_INTERFACE_VERSION()":"ad3cb1cc","addSigner(address)":"eb12d61e","executeFallback(uint256)":"17fa1078","getProposalCount()":"c08cc02d","getProposalStatus(uint256)":"401853b7","getQuorumThreshold()":"4afa71b9","getRoleAdmin(bytes32)":"248a9ca3","grantRole(bytes32,address)":"2f2ff15d","hasRole(bytes32,address)":"91d14854","initialize(address,uint8,address)":"f35f9e45","pause()":"8456cb59","paused()":"5c975abb","project()":"f60ca60d","proposalCount()":"da35c664","proposals(uint256)":"013cf08b","propose(string,uint48)":"3e0ec2ba","proxiableUUID()":"52d1902d","quorumThreshold()":"7b7a91dd","renounceRole(bytes32,address)":"36568abe","requiredSignatures()":"8d068043","revokeRole(bytes32,address)":"d547741f","revokeSigner(address)":"c34b44a0","setGovernanceParams(uint8,uint8)":"be40fbdd","signProposal(uint256)":"ab273016","supportsInterface(bytes4)":"01ffc9a7","unpause()":"3f4ba83a","upgradeToAndCall(address,bytes)":"4f1ef286","vote(uint256,bool)":"c9d27afe"},"id":80}