{"abi":[{"type":"receive","stateMutability":"payable"},{"type":"function","name":"ADMIN_ROLE","inputs":[],"outputs":[{"name":"","type":"bytes32","internalType":"bytes32"}],"stateMutability":"view"},{"type":"function","name":"DEFAULT_ADMIN_ROLE","inputs":[],"outputs":[{"name":"","type":"bytes32","internalType":"bytes32"}],"stateMutability":"view"},{"type":"function","name":"UPGRADE_INTERFACE_VERSION","inputs":[],"outputs":[{"name":"","type":"string","internalType":"string"}],"stateMutability":"view"},{"type":"function","name":"deposit","inputs":[{"name":"orderId","type":"bytes32","internalType":"bytes32"},{"name":"buyer","type":"address","internalType":"address"},{"name":"assetId","type":"bytes32","internalType":"bytes32"}],"outputs":[],"stateMutability":"payable"},{"type":"function","name":"depositDividend","inputs":[],"outputs":[],"stateMutability":"payable"},{"type":"function","name":"deposits","inputs":[{"name":"","type":"bytes32","internalType":"bytes32"}],"outputs":[{"name":"buyer","type":"address","internalType":"address"},{"name":"amountWei","type":"uint256","internalType":"uint256"},{"name":"assetId","type":"bytes32","internalType":"bytes32"}],"stateMutability":"view"},{"type":"function","name":"disputeNonce","inputs":[],"outputs":[{"name":"","type":"uint32","internalType":"uint32"}],"stateMutability":"view"},{"type":"function","name":"disputeSigCount","inputs":[{"name":"","type":"bytes32","internalType":"bytes32"}],"outputs":[{"name":"","type":"uint256","internalType":"uint256"}],"stateMutability":"view"},{"type":"function","name":"disputeSigned","inputs":[{"name":"","type":"bytes32","internalType":"bytes32"},{"name":"","type":"address","internalType":"address"}],"outputs":[{"name":"","type":"bool","internalType":"bool"}],"stateMutability":"view"},{"type":"function","name":"disputes","inputs":[{"name":"","type":"bytes32","internalType":"bytes32"}],"outputs":[{"name":"buyer","type":"address","internalType":"address"},{"name":"amountWei","type":"uint256","internalType":"uint256"},{"name":"assetId","type":"bytes32","internalType":"bytes32"},{"name":"orderId","type":"bytes32","internalType":"bytes32"},{"name":"disputeTimeout","type":"uint48","internalType":"uint48"},{"name":"disputeExpiration","type":"uint48","internalType":"uint48"},{"name":"resolvedTo","type":"address","internalType":"address"},{"name":"resolved","type":"bool","internalType":"bool"}],"stateMutability":"view"},{"type":"function","name":"distributeDividend","inputs":[{"name":"recipient","type":"address","internalType":"address"},{"name":"amountWei","type":"uint128","internalType":"uint128"}],"outputs":[],"stateMutability":"nonpayable"},{"type":"function","name":"dividendPoolBalance","inputs":[],"outputs":[{"name":"","type":"uint128","internalType":"uint128"}],"stateMutability":"view"},{"type":"function","name":"dividendPoolWei","inputs":[],"outputs":[{"name":"","type":"uint128","internalType":"uint128"}],"stateMutability":"view"},{"type":"function","name":"emergencyWithdraw","inputs":[{"name":"recipient","type":"address","internalType":"address"},{"name":"amountWei","type":"uint128","internalType":"uint128"}],"outputs":[],"stateMutability":"nonpayable"},{"type":"function","name":"getDepositStatus","inputs":[{"name":"id","type":"bytes32","internalType":"bytes32"}],"outputs":[{"name":"","type":"tuple","internalType":"struct ProplexEscrow.Deposit","components":[{"name":"buyer","type":"address","internalType":"address"},{"name":"amountWei","type":"uint256","internalType":"uint256"},{"name":"assetId","type":"bytes32","internalType":"bytes32"}]}],"stateMutability":"view"},{"type":"function","name":"getDisputeStatus","inputs":[{"name":"id","type":"bytes32","internalType":"bytes32"}],"outputs":[{"name":"","type":"tuple","internalType":"struct ProplexEscrow.Dispute","components":[{"name":"buyer","type":"address","internalType":"address"},{"name":"amountWei","type":"uint256","internalType":"uint256"},{"name":"assetId","type":"bytes32","internalType":"bytes32"},{"name":"orderId","type":"bytes32","internalType":"bytes32"},{"name":"disputeTimeout","type":"uint48","internalType":"uint48"},{"name":"disputeExpiration","type":"uint48","internalType":"uint48"},{"name":"resolvedTo","type":"address","internalType":"address"},{"name":"resolved","type":"bool","internalType":"bool"}]}],"stateMutability":"view"},{"type":"function","name":"getRoleAdmin","inputs":[{"name":"role","type":"bytes32","internalType":"bytes32"}],"outputs":[{"name":"","type":"bytes32","internalType":"bytes32"}],"stateMutability":"view"},{"type":"function","name":"grantRole","inputs":[{"name":"role","type":"bytes32","internalType":"bytes32"},{"name":"account","type":"address","internalType":"address"}],"outputs":[],"stateMutability":"nonpayable"},{"type":"function","name":"hasRole","inputs":[{"name":"role","type":"bytes32","internalType":"bytes32"},{"name":"account","type":"address","internalType":"address"}],"outputs":[{"name":"","type":"bool","internalType":"bool"}],"stateMutability":"view"},{"type":"function","name":"initialize","inputs":[{"name":"_project","type":"address","internalType":"address"},{"name":"_owner","type":"address","internalType":"address"}],"outputs":[],"stateMutability":"nonpayable"},{"type":"function","name":"pause","inputs":[],"outputs":[],"stateMutability":"nonpayable"},{"type":"function","name":"paused","inputs":[],"outputs":[{"name":"","type":"bool","internalType":"bool"}],"stateMutability":"view"},{"type":"function","name":"project","inputs":[],"outputs":[{"name":"","type":"address","internalType":"contract IProplexRealEstateToken"}],"stateMutability":"view"},{"type":"function","name":"proxiableUUID","inputs":[],"outputs":[{"name":"","type":"bytes32","internalType":"bytes32"}],"stateMutability":"view"},{"type":"function","name":"raiseDispute","inputs":[{"name":"orderId","type":"bytes32","internalType":"bytes32"},{"name":"reason","type":"string","internalType":"string"}],"outputs":[{"name":"disputeId","type":"bytes32","internalType":"bytes32"}],"stateMutability":"nonpayable"},{"type":"function","name":"releaseSigCount","inputs":[{"name":"","type":"bytes32","internalType":"bytes32"}],"outputs":[{"name":"","type":"uint256","internalType":"uint256"}],"stateMutability":"view"},{"type":"function","name":"releaseSigned","inputs":[{"name":"","type":"bytes32","internalType":"bytes32"},{"name":"","type":"address","internalType":"address"}],"outputs":[{"name":"","type":"bool","internalType":"bool"}],"stateMutability":"view"},{"type":"function","name":"renounceRole","inputs":[{"name":"role","type":"bytes32","internalType":"bytes32"},{"name":"callerConfirmation","type":"address","internalType":"address"}],"outputs":[],"stateMutability":"nonpayable"},{"type":"function","name":"revokeRole","inputs":[{"name":"role","type":"bytes32","internalType":"bytes32"},{"name":"account","type":"address","internalType":"address"}],"outputs":[],"stateMutability":"nonpayable"},{"type":"function","name":"signDisputeResolution","inputs":[{"name":"disputeId","type":"bytes32","internalType":"bytes32"},{"name":"resolvedTo","type":"address","internalType":"address"}],"outputs":[],"stateMutability":"nonpayable"},{"type":"function","name":"signRelease","inputs":[{"name":"orderId","type":"bytes32","internalType":"bytes32"},{"name":"to","type":"address","internalType":"address"},{"name":"amountWei","type":"uint256","internalType":"uint256"}],"outputs":[],"stateMutability":"nonpayable"},{"type":"function","name":"supportsInterface","inputs":[{"name":"interfaceId","type":"bytes4","internalType":"bytes4"}],"outputs":[{"name":"","type":"bool","internalType":"bool"}],"stateMutability":"view"},{"type":"function","name":"unpause","inputs":[],"outputs":[],"stateMutability":"nonpayable"},{"type":"function","name":"upgradeToAndCall","inputs":[{"name":"newImplementation","type":"address","internalType":"address"},{"name":"data","type":"bytes","internalType":"bytes"}],"outputs":[],"stateMutability":"payable"},{"type":"event","name":"Deposited","inputs":[{"name":"orderId","type":"bytes32","indexed":true,"internalType":"bytes32"},{"name":"buyer","type":"address","indexed":true,"internalType":"address"},{"name":"amountWei","type":"uint256","indexed":false,"internalType":"uint256"},{"name":"assetId","type":"bytes32","indexed":false,"internalType":"bytes32"}],"anonymous":false},{"type":"event","name":"DisputeRaised","inputs":[{"name":"disputeId","type":"bytes32","indexed":true,"internalType":"bytes32"},{"name":"buyer","type":"address","indexed":true,"internalType":"address"},{"name":"amountWei","type":"uint256","indexed":false,"internalType":"uint256"},{"name":"reason","type":"string","indexed":false,"internalType":"string"}],"anonymous":false},{"type":"event","name":"DisputeResolved","inputs":[{"name":"disputeId","type":"bytes32","indexed":true,"internalType":"bytes32"},{"name":"resolvedTo","type":"address","indexed":true,"internalType":"address"},{"name":"amountWei","type":"uint256","indexed":false,"internalType":"uint256"}],"anonymous":false},{"type":"event","name":"DisputeSigned","inputs":[{"name":"disputeId","type":"bytes32","indexed":true,"internalType":"bytes32"},{"name":"signer","type":"address","indexed":true,"internalType":"address"}],"anonymous":false},{"type":"event","name":"DividendDeposited","inputs":[{"name":"depositor","type":"address","indexed":true,"internalType":"address"},{"name":"amountWei","type":"uint256","indexed":false,"internalType":"uint256"}],"anonymous":false},{"type":"event","name":"DividendDistributed","inputs":[{"name":"recipient","type":"address","indexed":true,"internalType":"address"},{"name":"amountWei","type":"uint256","indexed":false,"internalType":"uint256"}],"anonymous":false},{"type":"event","name":"EmergencyWithdrawal","inputs":[{"name":"recipient","type":"address","indexed":true,"internalType":"address"},{"name":"amountWei","type":"uint256","indexed":false,"internalType":"uint256"}],"anonymous":false},{"type":"event","name":"EscrowInitialized","inputs":[{"name":"project","type":"address","indexed":true,"internalType":"address"}],"anonymous":false},{"type":"event","name":"Initialized","inputs":[{"name":"version","type":"uint64","indexed":false,"internalType":"uint64"}],"anonymous":false},{"type":"event","name":"Paused","inputs":[{"name":"account","type":"address","indexed":false,"internalType":"address"}],"anonymous":false},{"type":"event","name":"Released","inputs":[{"name":"orderId","type":"bytes32","indexed":true,"internalType":"bytes32"},{"name":"to","type":"address","indexed":true,"internalType":"address"},{"name":"amountWei","type":"uint256","indexed":false,"internalType":"uint256"}],"anonymous":false},{"type":"event","name":"RoleAdminChanged","inputs":[{"name":"role","type":"bytes32","indexed":true,"internalType":"bytes32"},{"name":"previousAdminRole","type":"bytes32","indexed":true,"internalType":"bytes32"},{"name":"newAdminRole","type":"bytes32","indexed":true,"internalType":"bytes32"}],"anonymous":false},{"type":"event","name":"RoleGranted","inputs":[{"name":"role","type":"bytes32","indexed":true,"internalType":"bytes32"},{"name":"account","type":"address","indexed":true,"internalType":"address"},{"name":"sender","type":"address","indexed":true,"internalType":"address"}],"anonymous":false},{"type":"event","name":"RoleRevoked","inputs":[{"name":"role","type":"bytes32","indexed":true,"internalType":"bytes32"},{"name":"account","type":"address","indexed":true,"internalType":"address"},{"name":"sender","type":"address","indexed":true,"internalType":"address"}],"anonymous":false},{"type":"event","name":"Unpaused","inputs":[{"name":"account","type":"address","indexed":false,"internalType":"address"}],"anonymous":false},{"type":"event","name":"Upgraded","inputs":[{"name":"implementation","type":"address","indexed":true,"internalType":"address"}],"anonymous":false},{"type":"error","name":"AccessControlBadConfirmation","inputs":[]},{"type":"error","name":"AccessControlUnauthorizedAccount","inputs":[{"name":"account","type":"address","internalType":"address"},{"name":"neededRole","type":"bytes32","internalType":"bytes32"}]},{"type":"error","name":"AddressEmptyCode","inputs":[{"name":"target","type":"address","internalType":"address"}]},{"type":"error","name":"AlreadySigned","inputs":[]},{"type":"error","name":"DepositNotFound","inputs":[]},{"type":"error","name":"DisputeExpired","inputs":[]},{"type":"error","name":"DisputeNotFound","inputs":[]},{"type":"error","name":"DisputeTimeoutNotMet","inputs":[]},{"type":"error","name":"ERC1967InvalidImplementation","inputs":[{"name":"implementation","type":"address","internalType":"address"}]},{"type":"error","name":"ERC1967NonPayable","inputs":[]},{"type":"error","name":"EnforcedPause","inputs":[]},{"type":"error","name":"ExpectedPause","inputs":[]},{"type":"error","name":"FailedCall","inputs":[]},{"type":"error","name":"InsufficientFunds","inputs":[]},{"type":"error","name":"InvalidAddress","inputs":[]},{"type":"error","name":"InvalidAmount","inputs":[]},{"type":"error","name":"InvalidInitialization","inputs":[]},{"type":"error","name":"InvalidParameter","inputs":[]},{"type":"error","name":"NotInitializing","inputs":[]},{"type":"error","name":"ReentrancyGuardReentrantCall","inputs":[]},{"type":"error","name":"UUPSUnauthorizedCallContext","inputs":[]},{"type":"error","name":"UUPSUnsupportedProxiableUUID","inputs":[{"name":"slot","type":"bytes32","internalType":"bytes32"}]},{"type":"error","name":"Unauthorized","inputs":[]},{"type":"error","name":"ZeroValue","inputs":[]}],"bytecode":{"object":"0x60a06040523060805234801561001457600080fd5b506080516125fd61003e60003960008181611c1801528181611c410152611dbd01526125fd6000f3fe6080604052600436106101fd5760003560e01c8063880789451161010d578063be7b8a77116100a0578063d7abbdbc1161006f578063d7abbdbc146108bb578063e126dd13146108d9578063e513fb0714610912578063f138c88614610925578063f60ca60d1461095257600080fd5b8063be7b8a77146107c1578063c905c9e7146107e1578063d3b880031461087b578063d547741f1461089b57600080fd5b8063a289d187116100dc578063a289d187146105f7578063a5f17e91146105ff578063ad3cb1cc1461061f578063b2ec24761461065d57600080fd5b8063880789451461056757806391d14854146105875780639eb6f792146105a7578063a217fddf146105e257600080fd5b80633f4ba83a1161019057806352d1902d1161015f57806352d1902d146104d65780635c975abb146104eb57806375b238fc146105105780637cd670b1146105325780638456cb591461055257600080fd5b80633f4ba83a14610456578063485cc9551461046b5780634f1ef2861461048b578063520d69f71461049e57600080fd5b80632f2ff15d116101cc5780632f2ff15d1461037b578063354fb76a1461039d57806336568abe146103ca5780633d4dff7b146103ea57600080fd5b806301ffc9a71461020957806311be19971461023e5780631c21cbf714610312578063248a9ca31461034d57600080fd5b3661020457005b600080fd5b34801561021557600080fd5b50610229610224366004612145565b61098a565b60405190151581526020015b60405180910390f35b34801561024a57600080fd5b506102bd61025936600461216f565b60036020819052600091825260409091208054600182015460028301549383015460048401546005909401546001600160a01b039384169592949293919265ffffffffffff80821693600160301b830490911692600160601b909204169060ff1688565b604080516001600160a01b03998a1681526020810198909852870195909552606086019390935265ffffffffffff91821660808601521660a084015290921660c082015290151560e082015261010001610235565b34801561031e57600080fd5b5061022961032d3660046121a4565b600660209081526000928352604080842090915290825290205460ff1681565b34801561035957600080fd5b5061036d61036836600461216f565b6109c1565b604051908152602001610235565b34801561038757600080fd5b5061039b6103963660046121a4565b6109e3565b005b3480156103a957600080fd5b5061036d6103b836600461216f565b60046020526000908152604090205481565b3480156103d657600080fd5b5061039b6103e53660046121a4565b610a05565b3480156103f657600080fd5b5061043161040536600461216f565b60026020819052600091825260409091208054600182015491909201546001600160a01b039092169183565b604080516001600160a01b039094168452602084019290925290820152606001610235565b34801561046257600080fd5b5061039b610a3d565b34801561047757600080fd5b5061039b6104863660046121d0565b610a60565b61039b610499366004612210565b610c22565b3480156104aa57600080fd5b506001546104be906001600160801b031681565b6040516001600160801b039091168152602001610235565b3480156104e257600080fd5b5061036d610c41565b3480156104f757600080fd5b506000805160206125688339815191525460ff16610229565b34801561051c57600080fd5b5061036d6000805160206125a883398151915281565b34801561053e57600080fd5b5061039b61054d3660046122d2565b610c5e565b34801561055e57600080fd5b5061039b610e25565b34801561057357600080fd5b5061039b6105823660046121a4565b610e45565b34801561059357600080fd5b506102296105a23660046121a4565b61110d565b3480156105b357600080fd5b506102296105c23660046121a4565b600760209081526000928352604080842090915290825290205460ff1681565b3480156105ee57600080fd5b5061036d600081565b61039b611145565b34801561060b57600080fd5b5061039b61061a366004612315565b611221565b34801561062b57600080fd5b50610650604051806040016040528060058152602001640352e302e360dc1b81525081565b604051610235919061236e565b34801561066957600080fd5b5061074461067836600461216f565b6040805161010081018252600080825260208201819052918101829052606081018290526080810182905260a0810182905260c0810182905260e08101919091525060009081526003602081815260409283902083516101008101855281546001600160a01b039081168252600183015493820193909352600282015494810194909452918201546060840152600482015465ffffffffffff8082166080860152600160301b82041660a0850152600160601b90041660c08301526005015460ff16151560e082015290565b604051610235919060006101008201905060018060a01b03808451168352602084015160208401526040840151604084015260608401516060840152608084015165ffffffffffff80821660808601528060a08701511660a086015250508060c08501511660c08401525060e0830151151560e083015292915050565b3480156107cd57600080fd5b5061036d6107dc3660046123a1565b611418565b3480156107ed57600080fd5b506108506107fc36600461216f565b6040805160608082018352600080835260208084018290529284018190529384526002808352938390208351918201845280546001600160a01b031682526001810154928201929092529201549082015290565b6040805182516001600160a01b03168152602080840151908201529181015190820152606001610235565b34801561088757600080fd5b5061039b6108963660046122d2565b61171f565b3480156108a757600080fd5b5061039b6108b63660046121a4565b611896565b3480156108c757600080fd5b506001546001600160801b03166104be565b3480156108e557600080fd5b506000546108fd90600160a01b900463ffffffff1681565b60405163ffffffff9091168152602001610235565b61039b610920366004612315565b6118b2565b34801561093157600080fd5b5061036d61094036600461216f565b60056020526000908152604090205481565b34801561095e57600080fd5b50600054610972906001600160a01b031681565b6040516001600160a01b039091168152602001610235565b60006001600160e01b03198216637965db0b60e01b14806109bb57506301ffc9a760e01b6001600160e01b03198316145b92915050565b6000908152600080516020612548833981519152602052604090206001015490565b6109ec826109c1565b6109f581611a3a565b6109ff8383611a44565b50505050565b6001600160a01b0381163314610a2e5760405163334bd91960e11b815260040160405180910390fd5b610a388282611af0565b505050565b6000805160206125a8833981519152610a5581611a3a565b610a5d611b6c565b50565b6000610a6a611bcc565b805490915060ff600160401b820416159067ffffffffffffffff16600081158015610a925750825b905060008267ffffffffffffffff166001148015610aaf5750303b155b905081158015610abd575080155b15610adb5760405163f92ee8a960e01b815260040160405180910390fd5b845467ffffffffffffffff191660011785558315610b0557845460ff60401b1916600160401b1785555b6001600160a01b0387161580610b2257506001600160a01b038616155b15610b405760405163e6c4247b60e01b815260040160405180910390fd5b610b48611bf5565b610b50611bf5565b610b58611bfd565b610b60611bf5565b600080546001600160a01b0319166001600160a01b038916178155610b859087611a44565b50610b9e6000805160206125a883398151915287611a44565b506040516001600160a01b038816907f8bc676e1a16b3a59cce15b4ce528a9772920fbeacc490bf8caef53305edaae1a90600090a28315610c1957845460ff60401b19168555604051600181527fc7f505b2f371ae2175ee4913f4499e1f2633a7b5936321eed1cdaeb6115181d29060200160405180910390a15b50505050505050565b610c2a611c0d565b610c3382611cb2565b610c3d8282611cf5565b5050565b6000610c4b611db2565b5060008051602061252883398151915290565b610c66611dfb565b6000805160206125a8833981519152610c7e81611a3a565b610c86611e33565b6001600160a01b038316610cad5760405163e6c4247b60e01b815260040160405180910390fd5b816001600160801b0316600003610cd757604051637c946ed760e01b815260040160405180910390fd5b6001546001600160801b0380841691161015610d065760405163356680b760e01b815260040160405180910390fd5b60018054839190600090610d249084906001600160801b0316612433565b92506101000a8154816001600160801b0302191690836001600160801b031602179055506000836001600160a01b0316836001600160801b031660405160006040518083038185875af1925050503d8060008114610d9e576040519150601f19603f3d011682016040523d82523d6000602084013e610da3565b606091505b5050905080610dc55760405163e6c4247b60e01b815260040160405180910390fd5b6040516001600160801b03841681526001600160a01b038516907f84fcdd4a7f507f2206dd50958e7473061bf941f91791c6ffaf74033a07c82f129060200160405180910390a25050610c3d600160008051602061258883398151915255565b6000805160206125a8833981519152610e3d81611a3a565b610a5d611e78565b610e4d611dfb565b6000805160206125a8833981519152610e6581611a3a565b610e6d611e33565b600083815260036020526040902080546001600160a01b0316610ea35760405163084a15e160e31b815260040160405180910390fd5b600581015460ff1615610ec95760405163084a15e160e31b815260040160405180910390fd5b600481015465ffffffffffff16421015610ef5576040516254b3e760e61b815260040160405180910390fd5b6004810154600160301b900465ffffffffffff16421115610f29576040516314de936f60e31b815260040160405180910390fd5b6001600160a01b038316610f505760405163e6c4247b60e01b815260040160405180910390fd5b600084815260076020908152604080832033845290915290205460ff1615610f8b5760405163585eb56560e11b815260040160405180910390fd5b60008481526007602090815260408083203384529091529020805460ff19166001908117909155810154471015610fd55760405163356680b760e01b815260040160405180910390fd5b600581018054600160ff1990911681179091556004820180546bffffffffffffffffffffffff16600160601b6001600160a01b038716908102919091179091559082015460405160009291908381818185875af1925050503d8060008114611059576040519150601f19603f3d011682016040523d82523d6000602084013e61105e565b606091505b50509050806110805760405163e6c4247b60e01b815260040160405180910390fd5b6003820154600090815260026020818152604080842080546001600160a01b031916815560018082018690559301939093559084015491519182526001600160a01b0386169187917fe44b3676d6df957def7f6b146c2d11487456be34f4233923b46216cfb196467d910160405180910390a3505050610c3d600160008051602061258883398151915255565b6000918252600080516020612548833981519152602090815260408084206001600160a01b0393909316845291905290205460ff1690565b61114d611dfb565b611155611e33565b3460000361117657604051637c946ed760e01b815260040160405180910390fd5b600180543491906000906111949084906001600160801b0316612453565b92506101000a8154816001600160801b0302191690836001600160801b03160217905550336001600160a01b03167fbc6649fd5a3b1c469e2597719e34abed740a2e561754af459620a934587f5d043460405161120091906001600160801b0391909116815260200190565b60405180910390a261121f600160008051602061258883398151915255565b565b611229611dfb565b6000805160206125a883398151915261124181611a3a565b611249611e33565b600084815260026020526040902080546001600160a01b031661127f5760405163411321ed60e01b815260040160405180910390fd5b6001600160a01b0384166112a65760405163e6c4247b60e01b815260040160405180910390fd5b82158015906112b9575080600101548311155b6112fb5760405162461bcd60e51b815260206004820152600e60248201526d125b9d985b1a5908185b5bdd5b9d60921b60448201526064015b60405180910390fd5b8281600101600082825461130f9190612473565b90915550506040516000906001600160a01b0386169085908381818185875af1925050503d806000811461135f576040519150601f19603f3d011682016040523d82523d6000602084013e611364565b606091505b50509050806113865760405163e6c4247b60e01b815260040160405180910390fd5b81600101546000036113ba576000868152600260208190526040822080546001600160a01b03191681556001810183905501555b846001600160a01b0316867fc8fa66dff4b9073528c3f1bf21a8dc9a18fdf09847e88e96188bc953aef519f0866040516113f691815260200190565b60405180910390a3505050610a38600160008051602061258883398151915255565b6000611422611dfb565b61142a611e33565b600084815260026020526040902080546001600160a01b03166114605760405163411321ed60e01b815260040160405180910390fd5b80546001600160a01b031633146114a85760405162461bcd60e51b815260206004820152600c60248201526b155b985d5d1a1bdc9a5e995960a21b60448201526064016112f2565b8215806114b6575061010083115b156114d457604051630309cb8760e51b815260040160405180910390fd5b80546000805442926001600160a01b0316918891600160a01b900463ffffffff1690601461150183612486565b91906101000a81548163ffffffff021916908363ffffffff160217905550604051602001611567949392919093845260609290921b6bffffffffffffffffffffffff19166020840152603483015260e01b6001600160e01b031916605482015260580190565b60408051601f1981840301815282825280516020918201206101008401835284546001600160a01b03168452600185015491840191909152600284015491830191909152606082018790529250608081016115c562093a80426124a9565b65ffffffffffff1681526020016115df62278d00426124a9565b65ffffffffffff9081168252600060208084018290526040938401829052868252600380825291849020855181546001600160a01b0319166001600160a01b0391821617825591860151600180830191909155868601516002830155606087015193820193909355608086015160048201805460a089015160c08a01519388166bffffffffffffffffffffffff1990921691909117600160301b9190971602959095176bffffffffffffffffffffffff16600160601b918416919091021790935560e0909401516005909201805460ff191692151592909217909155835490840154915192169184917fd5b83bfdc10da98d20a9346a525f6e8f83a73e9d36ccbece5103f34b4a08048e916116f89190899089906124bc565b60405180910390a350611718600160008051602061258883398151915255565b9392505050565b6000805160206125a883398151915261173781611a3a565b61173f611dfb565b6001600160a01b0383166117665760405163e6c4247b60e01b815260040160405180910390fd5b816001600160801b031660000361179057604051637c946ed760e01b815260040160405180910390fd5b816001600160801b03164710156117ba5760405163356680b760e01b815260040160405180910390fd5b6000836001600160a01b0316836001600160801b031660405160006040518083038185875af1925050503d8060008114611810576040519150601f19603f3d011682016040523d82523d6000602084013e611815565b606091505b50509050806118375760405163e6c4247b60e01b815260040160405180910390fd5b6040516001600160801b03841681526001600160a01b038516907f23d6711a1d031134a36921253c75aa59e967d38e369ac625992824315e204f209060200160405180910390a250610a38600160008051602061258883398151915255565b61189f826109c1565b6118a881611a3a565b6109ff8383611af0565b6118ba611dfb565b6118c2611e33565b6001600160a01b0382166118e95760405163e6c4247b60e01b815260040160405180910390fd5b3460000361190a5760405163162908e360e11b815260040160405180910390fd5b8061192857604051630309cb8760e51b815260040160405180910390fd5b6000838152600260205260409020546001600160a01b0316156119865760405162461bcd60e51b81526020600482015260166024820152754465706f73697420416c72656164792045786973747360501b60448201526064016112f2565b604080516060810182526001600160a01b03848116808352346001600160801b0316602080850182815285870188815260008b8152600280855290899020975188546001600160a01b03191697169690961787559051600187015551949093019390935583519283529082018490529185917f9f446da7d176604d31e0998f1eb89d66d203c770afae11443bc871964c168267910160405180910390a3610a38600160008051602061258883398151915255565b610a5d8133611ec1565b6000600080516020612548833981519152611a5f848461110d565b611adf576000848152602082815260408083206001600160a01b03871684529091529020805460ff19166001179055611a953390565b6001600160a01b0316836001600160a01b0316857f2f8788117e7eff1d82e926ec794901d17c78024a50270940304540a733656f0d60405160405180910390a460019150506109bb565b60009150506109bb565b5092915050565b6000600080516020612548833981519152611b0b848461110d565b15611adf576000848152602082815260408083206001600160a01b0387168085529252808320805460ff1916905551339287917ff6391f5c32d9c69d2a47ea670b442974b53935d1edc7fd64eb21e047a839171b9190a460019150506109bb565b611b74611efa565b600080516020612568833981519152805460ff191681557f5db9ee0a495bf2e6ff9c91a7834c1ba4fdd244a5e8aa4e537bd38aeae4b073aa335b6040516001600160a01b03909116815260200160405180910390a150565b6000807ff0c57e16840df040f15088dc2f81fe391c3923bec73e23a9662efc9c229c6a006109bb565b61121f611f2a565b611c05611f2a565b61121f611f4f565b306001600160a01b037f0000000000000000000000000000000000000000000000000000000000000000161480611c9457507f00000000000000000000000000000000000000000000000000000000000000006001600160a01b0316611c88600080516020612528833981519152546001600160a01b031690565b6001600160a01b031614155b1561121f5760405163703e46dd60e11b815260040160405180910390fd5b6000805160206125a8833981519152611cca81611a3a565b816001600160a01b03163b600003610c3d5760405163e6c4247b60e01b815260040160405180910390fd5b816001600160a01b03166352d1902d6040518163ffffffff1660e01b8152600401602060405180830381865afa925050508015611d4f575060408051601f3d908101601f19168201909252611d4c918101906124f2565b60015b611d7757604051634c9c8ce360e01b81526001600160a01b03831660048201526024016112f2565b6000805160206125288339815191528114611da857604051632a87526960e21b8152600481018290526024016112f2565b610a388383611f57565b306001600160a01b037f0000000000000000000000000000000000000000000000000000000000000000161461121f5760405163703e46dd60e11b815260040160405180910390fd5b600080516020612588833981519152805460011901611e2d57604051633ee5aeb560e01b815260040160405180910390fd5b60029055565b6000805160206125688339815191525460ff161561121f5760405163d93c066560e01b815260040160405180910390fd5b600160008051602061258883398151915255565b611e80611e33565b600080516020612568833981519152805460ff191660011781557f62e78cea01bee320cd4e420270b5ea74000d11b0c9f74754ebdbfc544b05a25833611bae565b611ecb828261110d565b610c3d5760405163e2517d3f60e01b81526001600160a01b0382166004820152602481018390526044016112f2565b6000805160206125688339815191525460ff1661121f57604051638dfc202b60e01b815260040160405180910390fd5b611f32611fad565b61121f57604051631afcd79f60e31b815260040160405180910390fd5b611e64611f2a565b611f6082611fc7565b6040516001600160a01b038316907fbc7cd75a20ee27fd9adebab32041f755214dbc6bffa90cc0225b39da2e5c2d3b90600090a2805115611fa557610a38828261202c565b610c3d6120a2565b6000611fb7611bcc565b54600160401b900460ff16919050565b806001600160a01b03163b600003611ffd57604051634c9c8ce360e01b81526001600160a01b03821660048201526024016112f2565b60008051602061252883398151915280546001600160a01b0319166001600160a01b0392909216919091179055565b6060600080846001600160a01b031684604051612049919061250b565b600060405180830381855af49150503d8060008114612084576040519150601f19603f3d011682016040523d82523d6000602084013e612089565b606091505b50915091506120998583836120c1565b95945050505050565b341561121f5760405163b398979f60e01b815260040160405180910390fd5b6060826120d6576120d18261211d565b611718565b81511580156120ed57506001600160a01b0384163b155b1561211657604051639996b31560e01b81526001600160a01b03851660048201526024016112f2565b5080611718565b80511561212c57805160208201fd5b60405163d6bda27560e01b815260040160405180910390fd5b60006020828403121561215757600080fd5b81356001600160e01b03198116811461171857600080fd5b60006020828403121561218157600080fd5b5035919050565b80356001600160a01b038116811461219f57600080fd5b919050565b600080604083850312156121b757600080fd5b823591506121c760208401612188565b90509250929050565b600080604083850312156121e357600080fd5b6121ec83612188565b91506121c760208401612188565b634e487b7160e01b600052604160045260246000fd5b6000806040838503121561222357600080fd5b61222c83612188565b9150602083013567ffffffffffffffff8082111561224957600080fd5b818501915085601f83011261225d57600080fd5b81358181111561226f5761226f6121fa565b604051601f8201601f19908116603f01168101908382118183101715612297576122976121fa565b816040528281528860208487010111156122b057600080fd5b8260208601602083013760006020848301015280955050505050509250929050565b600080604083850312156122e557600080fd5b6122ee83612188565b915060208301356001600160801b038116811461230a57600080fd5b809150509250929050565b60008060006060848603121561232a57600080fd5b8335925061233a60208501612188565b9150604084013590509250925092565b60005b8381101561236557818101518382015260200161234d565b50506000910152565b602081526000825180602084015261238d81604085016020870161234a565b601f01601f19169190910160400192915050565b6000806000604084860312156123b657600080fd5b83359250602084013567ffffffffffffffff808211156123d557600080fd5b818601915086601f8301126123e957600080fd5b8135818111156123f857600080fd5b87602082850101111561240a57600080fd5b6020830194508093505050509250925092565b634e487b7160e01b600052601160045260246000fd5b6001600160801b03828116828216039080821115611ae957611ae961241d565b6001600160801b03818116838216019080821115611ae957611ae961241d565b818103818111156109bb576109bb61241d565b600063ffffffff80831681810361249f5761249f61241d565b6001019392505050565b808201808211156109bb576109bb61241d565b83815260406020820152816040820152818360608301376000818301606090810191909152601f909201601f1916010192915050565b60006020828403121561250457600080fd5b5051919050565b6000825161251d81846020870161234a565b919091019291505056fe360894a13ba1a3210667c828492db98dca3e2076cc3735a920a3ca505d382bbc02dd7bc7dec4dceedda775e58dd541e08a116c6c53815c0bd028192f7b626800cd5ed15c6e187e77e9aee88184c21f4f2182ab5827cb3b7e07fbedcd63f033009b779b17422d0df92223018b32b4d1fa46e071723d6817e2486d003becc55f00a49807205ce4d355092ef5a8a18f56e8913cf4a201fbe287825b095693c21775a264697066735822122062a01e789b8c8ec21954b42c6ce0c3aaf8ce9f5bcd858ce20b6e09aba668136d64736f6c63430008180033","linkReferences":{}},"methodIdentifiers":{"ADMIN_ROLE()":"75b238fc","DEFAULT_ADMIN_ROLE()":"a217fddf","UPGRADE_INTERFACE_VERSION()":"ad3cb1cc","deposit(bytes32,address,bytes32)":"e513fb07","depositDividend()":"a289d187","deposits(bytes32)":"3d4dff7b","disputeNonce()":"e126dd13","disputeSigCount(bytes32)":"f138c886","disputeSigned(bytes32,address)":"9eb6f792","disputes(bytes32)":"11be1997","distributeDividend(address,uint128)":"7cd670b1","dividendPoolBalance()":"d7abbdbc","dividendPoolWei()":"520d69f7","emergencyWithdraw(address,uint128)":"d3b88003","getDepositStatus(bytes32)":"c905c9e7","getDisputeStatus(bytes32)":"b2ec2476","getRoleAdmin(bytes32)":"248a9ca3","grantRole(bytes32,address)":"2f2ff15d","hasRole(bytes32,address)":"91d14854","initialize(address,address)":"485cc955","pause()":"8456cb59","paused()":"5c975abb","project()":"f60ca60d","proxiableUUID()":"52d1902d","raiseDispute(bytes32,string)":"be7b8a77","releaseSigCount(bytes32)":"354fb76a","releaseSigned(bytes32,address)":"1c21cbf7","renounceRole(bytes32,address)":"36568abe","revokeRole(bytes32,address)":"d547741f","signDisputeResolution(bytes32,address)":"88078945","signRelease(bytes32,address,uint256)":"a5f17e91","supportsInterface(bytes4)":"01ffc9a7","unpause()":"3f4ba83a","upgradeToAndCall(address,bytes)":"4f1ef286"},"id":81}