{"abi":[{"type":"function","name":"ADMIN_ROLE","inputs":[],"outputs":[{"name":"","type":"bytes32","internalType":"bytes32"}],"stateMutability":"view"},{"type":"function","name":"DEFAULT_ADMIN_ROLE","inputs":[],"outputs":[{"name":"","type":"bytes32","internalType":"bytes32"}],"stateMutability":"view"},{"type":"function","name":"UPGRADE_INTERFACE_VERSION","inputs":[],"outputs":[{"name":"","type":"string","internalType":"string"}],"stateMutability":"view"},{"type":"function","name":"VERSION","inputs":[],"outputs":[{"name":"","type":"string","internalType":"string"}],"stateMutability":"view"},{"type":"function","name":"companies","inputs":[{"name":"","type":"uint256","internalType":"uint256"}],"outputs":[{"name":"owner","type":"address","internalType":"address"},{"name":"companyType","type":"uint8","internalType":"enum ProplexRegistry.CompanyType"},{"name":"isActive","type":"bool","internalType":"bool"},{"name":"__gap","type":"bytes24","internalType":"bytes24"},{"name":"name","type":"bytes32","internalType":"bytes32"},{"name":"jurisdiction","type":"bytes32","internalType":"bytes32"}],"stateMutability":"view"},{"type":"function","name":"companyCount","inputs":[],"outputs":[{"name":"","type":"uint256","internalType":"uint256"}],"stateMutability":"view"},{"type":"function","name":"companyOf","inputs":[{"name":"","type":"address","internalType":"address"}],"outputs":[{"name":"","type":"uint256","internalType":"uint256"}],"stateMutability":"view"},{"type":"function","name":"deactivateProject","inputs":[{"name":"projectId","type":"uint256","internalType":"uint256"}],"outputs":[],"stateMutability":"nonpayable"},{"type":"function","name":"getCompany","inputs":[{"name":"id","type":"uint256","internalType":"uint256"}],"outputs":[{"name":"","type":"tuple","internalType":"struct ProplexRegistry.Company","components":[{"name":"owner","type":"address","internalType":"address"},{"name":"companyType","type":"uint8","internalType":"enum ProplexRegistry.CompanyType"},{"name":"isActive","type":"bool","internalType":"bool"},{"name":"__gap","type":"bytes24","internalType":"bytes24"},{"name":"name","type":"bytes32","internalType":"bytes32"},{"name":"jurisdiction","type":"bytes32","internalType":"bytes32"}]}],"stateMutability":"view"},{"type":"function","name":"getProject","inputs":[{"name":"id","type":"uint256","internalType":"uint256"}],"outputs":[{"name":"","type":"tuple","internalType":"struct ProplexRegistry.Project","components":[{"name":"projectAddress","type":"address","internalType":"address"},{"name":"escrow","type":"address","internalType":"address"},{"name":"orderManager","type":"address","internalType":"address"},{"name":"dao","type":"address","internalType":"address"},{"name":"assetType","type":"uint8","internalType":"enum ProplexRegistry.AssetType"},{"name":"isActive","type":"bool","internalType":"bool"},{"name":"__gap","type":"bytes10","internalType":"bytes10"},{"name":"name","type":"bytes32","internalType":"bytes32"},{"name":"symbol","type":"bytes32","internalType":"bytes32"},{"name":"metadataCID","type":"bytes32","internalType":"bytes32"},{"name":"legalCID","type":"bytes32","internalType":"bytes32"}]}],"stateMutability":"view"},{"type":"function","name":"getRoleAdmin","inputs":[{"name":"role","type":"bytes32","internalType":"bytes32"}],"outputs":[{"name":"","type":"bytes32","internalType":"bytes32"}],"stateMutability":"view"},{"type":"function","name":"grantRole","inputs":[{"name":"role","type":"bytes32","internalType":"bytes32"},{"name":"account","type":"address","internalType":"address"}],"outputs":[],"stateMutability":"nonpayable"},{"type":"function","name":"hasRole","inputs":[{"name":"role","type":"bytes32","internalType":"bytes32"},{"name":"account","type":"address","internalType":"address"}],"outputs":[{"name":"","type":"bool","internalType":"bool"}],"stateMutability":"view"},{"type":"function","name":"initialize","inputs":[],"outputs":[],"stateMutability":"nonpayable"},{"type":"function","name":"pause","inputs":[],"outputs":[],"stateMutability":"nonpayable"},{"type":"function","name":"paused","inputs":[],"outputs":[{"name":"","type":"bool","internalType":"bool"}],"stateMutability":"view"},{"type":"function","name":"projectCount","inputs":[],"outputs":[{"name":"","type":"uint256","internalType":"uint256"}],"stateMutability":"view"},{"type":"function","name":"projectIdsByCompany","inputs":[{"name":"companyId","type":"uint256","internalType":"uint256"}],"outputs":[{"name":"","type":"uint256[]","internalType":"uint256[]"}],"stateMutability":"view"},{"type":"function","name":"projectIdsOf","inputs":[{"name":"","type":"uint256","internalType":"uint256"},{"name":"","type":"uint256","internalType":"uint256"}],"outputs":[{"name":"","type":"uint256","internalType":"uint256"}],"stateMutability":"view"},{"type":"function","name":"projects","inputs":[{"name":"","type":"uint256","internalType":"uint256"}],"outputs":[{"name":"projectAddress","type":"address","internalType":"address"},{"name":"escrow","type":"address","internalType":"address"},{"name":"orderManager","type":"address","internalType":"address"},{"name":"dao","type":"address","internalType":"address"},{"name":"assetType","type":"uint8","internalType":"enum ProplexRegistry.AssetType"},{"name":"isActive","type":"bool","internalType":"bool"},{"name":"__gap","type":"bytes10","internalType":"bytes10"},{"name":"name","type":"bytes32","internalType":"bytes32"},{"name":"symbol","type":"bytes32","internalType":"bytes32"},{"name":"metadataCID","type":"bytes32","internalType":"bytes32"},{"name":"legalCID","type":"bytes32","internalType":"bytes32"}],"stateMutability":"view"},{"type":"function","name":"proxiableUUID","inputs":[],"outputs":[{"name":"","type":"bytes32","internalType":"bytes32"}],"stateMutability":"view"},{"type":"function","name":"registerCompany","inputs":[{"name":"owner","type":"address","internalType":"address"},{"name":"name","type":"bytes32","internalType":"bytes32"},{"name":"jurisdiction","type":"bytes32","internalType":"bytes32"},{"name":"companyType","type":"uint8","internalType":"enum ProplexRegistry.CompanyType"}],"outputs":[{"name":"id","type":"uint256","internalType":"uint256"}],"stateMutability":"nonpayable"},{"type":"function","name":"registerProject","inputs":[{"name":"companyId","type":"uint256","internalType":"uint256"},{"name":"name","type":"bytes32","internalType":"bytes32"},{"name":"symbol","type":"bytes32","internalType":"bytes32"},{"name":"metadataCID","type":"bytes32","internalType":"bytes32"},{"name":"legalCID","type":"bytes32","internalType":"bytes32"},{"name":"assetType","type":"uint8","internalType":"enum ProplexRegistry.AssetType"},{"name":"projectAddress","type":"address","internalType":"address"},{"name":"escrow","type":"address","internalType":"address"},{"name":"orderManager","type":"address","internalType":"address"},{"name":"dao","type":"address","internalType":"address"}],"outputs":[{"name":"id","type":"uint256","internalType":"uint256"}],"stateMutability":"nonpayable"},{"type":"function","name":"renounceRole","inputs":[{"name":"role","type":"bytes32","internalType":"bytes32"},{"name":"callerConfirmation","type":"address","internalType":"address"}],"outputs":[],"stateMutability":"nonpayable"},{"type":"function","name":"revokeRole","inputs":[{"name":"role","type":"bytes32","internalType":"bytes32"},{"name":"account","type":"address","internalType":"address"}],"outputs":[],"stateMutability":"nonpayable"},{"type":"function","name":"supportsInterface","inputs":[{"name":"interfaceId","type":"bytes4","internalType":"bytes4"}],"outputs":[{"name":"","type":"bool","internalType":"bool"}],"stateMutability":"view"},{"type":"function","name":"unpause","inputs":[],"outputs":[],"stateMutability":"nonpayable"},{"type":"function","name":"updateMetadata","inputs":[{"name":"projectId","type":"uint256","internalType":"uint256"},{"name":"isLegal","type":"bool","internalType":"bool"},{"name":"newCID","type":"bytes32","internalType":"bytes32"}],"outputs":[],"stateMutability":"nonpayable"},{"type":"function","name":"upgradeToAndCall","inputs":[{"name":"newImplementation","type":"address","internalType":"address"},{"name":"data","type":"bytes","internalType":"bytes"}],"outputs":[],"stateMutability":"payable"},{"type":"event","name":"CompanyRegistered","inputs":[{"name":"id","type":"uint256","indexed":true,"internalType":"uint256"},{"name":"owner","type":"address","indexed":true,"internalType":"address"},{"name":"name","type":"bytes32","indexed":false,"internalType":"bytes32"}],"anonymous":false},{"type":"event","name":"Initialized","inputs":[{"name":"version","type":"uint64","indexed":false,"internalType":"uint64"}],"anonymous":false},{"type":"event","name":"Initialized","inputs":[{"name":"admin","type":"address","indexed":true,"internalType":"address"}],"anonymous":false},{"type":"event","name":"MetadataUpdated","inputs":[{"name":"projectId","type":"uint256","indexed":true,"internalType":"uint256"},{"name":"isLegal","type":"bool","indexed":false,"internalType":"bool"},{"name":"newCID","type":"bytes32","indexed":false,"internalType":"bytes32"}],"anonymous":false},{"type":"event","name":"Paused","inputs":[{"name":"account","type":"address","indexed":false,"internalType":"address"}],"anonymous":false},{"type":"event","name":"ProjectDeactivated","inputs":[{"name":"companyId","type":"uint256","indexed":true,"internalType":"uint256"},{"name":"projectId","type":"uint256","indexed":true,"internalType":"uint256"}],"anonymous":false},{"type":"event","name":"ProjectRegistered","inputs":[{"name":"companyId","type":"uint256","indexed":true,"internalType":"uint256"},{"name":"projectId","type":"uint256","indexed":true,"internalType":"uint256"},{"name":"addr","type":"address","indexed":true,"internalType":"address"}],"anonymous":false},{"type":"event","name":"RoleAdminChanged","inputs":[{"name":"role","type":"bytes32","indexed":true,"internalType":"bytes32"},{"name":"previousAdminRole","type":"bytes32","indexed":true,"internalType":"bytes32"},{"name":"newAdminRole","type":"bytes32","indexed":true,"internalType":"bytes32"}],"anonymous":false},{"type":"event","name":"RoleGranted","inputs":[{"name":"role","type":"bytes32","indexed":true,"internalType":"bytes32"},{"name":"account","type":"address","indexed":true,"internalType":"address"},{"name":"sender","type":"address","indexed":true,"internalType":"address"}],"anonymous":false},{"type":"event","name":"RoleRevoked","inputs":[{"name":"role","type":"bytes32","indexed":true,"internalType":"bytes32"},{"name":"account","type":"address","indexed":true,"internalType":"address"},{"name":"sender","type":"address","indexed":true,"internalType":"address"}],"anonymous":false},{"type":"event","name":"Unpaused","inputs":[{"name":"account","type":"address","indexed":false,"internalType":"address"}],"anonymous":false},{"type":"event","name":"Upgraded","inputs":[{"name":"implementation","type":"address","indexed":true,"internalType":"address"}],"anonymous":false},{"type":"error","name":"AccessControlBadConfirmation","inputs":[]},{"type":"error","name":"AccessControlUnauthorizedAccount","inputs":[{"name":"account","type":"address","internalType":"address"},{"name":"neededRole","type":"bytes32","internalType":"bytes32"}]},{"type":"error","name":"AddressEmptyCode","inputs":[{"name":"target","type":"address","internalType":"address"}]},{"type":"error","name":"BadAddress","inputs":[]},{"type":"error","name":"BadLength","inputs":[]},{"type":"error","name":"BadParameter","inputs":[]},{"type":"error","name":"ERC1967InvalidImplementation","inputs":[{"name":"implementation","type":"address","internalType":"address"}]},{"type":"error","name":"ERC1967NonPayable","inputs":[]},{"type":"error","name":"EnforcedPause","inputs":[]},{"type":"error","name":"Exists","inputs":[]},{"type":"error","name":"ExpectedPause","inputs":[]},{"type":"error","name":"FailedCall","inputs":[]},{"type":"error","name":"InvalidInitialization","inputs":[]},{"type":"error","name":"NotFound","inputs":[]},{"type":"error","name":"NotInitializing","inputs":[]},{"type":"error","name":"ReentrancyGuardReentrantCall","inputs":[]},{"type":"error","name":"UUPSUnauthorizedCallContext","inputs":[]},{"type":"error","name":"UUPSUnsupportedProxiableUUID","inputs":[{"name":"slot","type":"bytes32","internalType":"bytes32"}]}],"bytecode":{"object":"0x60a06040523060805234801561001457600080fd5b5060805161213e61003e60003960008181611577015281816115a00152611721015261213e6000f3fe6080604052600436106101c25760003560e01c806357d13917116100f757806391d1485411610095578063e6d39eaa11610064578063e6d39eaa146105d6578063e842273b146105f6578063f0f3f2c814610623578063ffa1ad741461065057600080fd5b806391d1485414610543578063a217fddf14610563578063ad3cb1cc14610578578063d547741f146105b657600080fd5b80637bc4e9d3116100d15780637bc4e9d3146104e35780638129fc1c146105035780638456cb59146105185780638e75dd471461052d57600080fd5b806357d139171461046f5780635c975abb1461049c57806375b238fc146104c157600080fd5b806336568abe11610164578063436e69581161013e578063436e6958146103fa5780634f1ef2861461041a5780634f43deb11461042d57806352d1902d1461045a57600080fd5b806336568abe146103af57806336fbad26146103cf5780633f4ba83a146103e557600080fd5b80631da6556a116101a05780631da6556a146102c8578063248a9ca3146102f65780632813d19d146103165780632f2ff15d1461038f57600080fd5b806301ffc9a7146101c7578063091367a1146101fc578063107046bd1461021e575b600080fd5b3480156101d357600080fd5b506101e76101e2366004611a96565b610681565b60405190151581526020015b60405180910390f35b34801561020857600080fd5b5061021c610217366004611ac0565b6106b8565b005b34801561022a57600080fd5b506102b1610239366004611afd565b6003602081905260009182526040909120805460018201546002830154938301546004840154600585015460068601546007909601546001600160a01b0395861697948616969486169584169460ff600160a01b8604811695600160a81b810490911694600160b01b90910460b01b9390929091908b565b6040516101f39b9a99989796959493929190611b40565b3480156102d457600080fd5b506102e86102e3366004611bd3565b610792565b6040519081526020016101f3565b34801561030257600080fd5b506102e8610311366004611afd565b6109ac565b34801561032257600080fd5b5061037d610331366004611afd565b60026020819052600091825260409182902080546001820154928201546003909201546001600160a01b0382169460ff600160a01b8404811695600160a81b909404169392901b919086565b6040516101f396959493929190611c2f565b34801561039b57600080fd5b5061021c6103aa366004611c7b565b6109ce565b3480156103bb57600080fd5b5061021c6103ca366004611c7b565b6109f0565b3480156103db57600080fd5b506102e860015481565b3480156103f157600080fd5b5061021c610a28565b34801561040657600080fd5b5061021c610415366004611afd565b610a4b565b61021c610428366004611cbd565b610b14565b34801561043957600080fd5b506102e8610448366004611d7f565b60046020526000908152604090205481565b34801561046657600080fd5b506102e8610b33565b34801561047b57600080fd5b5061048f61048a366004611afd565b610b50565b6040516101f39190611d9a565b3480156104a857600080fd5b506000805160206120c98339815191525460ff166101e7565b3480156104cd57600080fd5b506102e86000805160206120e983398151915281565b3480156104ef57600080fd5b506102e86104fe366004611dfa565b610c52565b34801561050f57600080fd5b5061021c610c83565b34801561052457600080fd5b5061021c610de5565b34801561053957600080fd5b506102e860005481565b34801561054f57600080fd5b506101e761055e366004611c7b565b610e05565b34801561056f57600080fd5b506102e8600081565b34801561058457600080fd5b506105a9604051806040016040528060058152602001640352e302e360dc1b81525081565b6040516101f39190611e40565b3480156105c257600080fd5b5061021c6105d1366004611c7b565b610e3d565b3480156105e257600080fd5b506102e86105f1366004611e73565b610e59565b34801561060257600080fd5b50610616610611366004611afd565b6111b7565b6040516101f39190611f10565b34801561062f57600080fd5b5061064361063e366004611afd565b611245565b6040516101f39190611f54565b34801561065c57600080fd5b506105a9604051806040016040528060058152602001640322e302e360dc1b81525081565b60006001600160e01b03198216637965db0b60e01b14806106b257506301ffc9a760e01b6001600160e01b03198316145b92915050565b6000805160206120e98339815191526106d0816113ae565b6106d86113b8565b8315806106e6575060015484115b156107045760405163c5723b5160e01b815260040160405180910390fd5b600082900361072657604051634762470b60e11b815260040160405180910390fd5b60008481526003602052604090208315610746576007810183905561074e565b600681018390555b6040805185151581526020810185905286917f3ced7b1e12b3ab55e9aa226f340a06c0e8e83ed6cafecee60b2d325d9b1eb289910160405180910390a25050505050565b60006000805160206120e98339815191526107ac816113ae565b6107b46113b8565b6001600160a01b0386166107db576040516332691b5760e01b815260040160405180910390fd5b8415806107e6575083155b1561080457604051634762470b60e11b815260040160405180910390fd5b6001600160a01b0386166000908152600460205260409020541561083b57604051634237602b60e11b815260040160405180910390fd5b60008081546108499061202c565b91905081905591506040518060c00160405280876001600160a01b0316815260200184600581111561087d5761087d611b16565b8152600160208083019190915260006040808401829052606084018a905260809093018890528581526002825291909120825181546001600160a01b039091166001600160a01b031982168117835592840151919283916001600160a81b03191617600160a01b8360058111156108f6576108f6611b16565b02179055506040828101518254901515600160a81b0260ff60a81b19909116178255606083015160018301805491831c6001600160c01b03199092169190911790556080830151600283015560a0909201516003909101556001600160a01b03871660008181526004602052829020849055905183907fb069a824617e72118bf39d59ee9fafa5da688fe4674a5f6592ebb635a0b69b7a9061099b9089815260200190565b60405180910390a350949350505050565b60009081526000805160206120a9833981519152602052604090206001015490565b6109d7826109ac565b6109e0816113ae565b6109ea83836113eb565b50505050565b6001600160a01b0381163314610a195760405163334bd91960e11b815260040160405180910390fd5b610a238282611490565b505050565b6000805160206120e9833981519152610a40816113ae565b610a4861150c565b50565b6000805160206120e9833981519152610a63816113ae565b610a6b6113b8565b811580610a79575060015482115b15610a975760405163c5723b5160e01b815260040160405180910390fd5b600082815260036020819052604090912090810154600160a81b900460ff16610ad35760405163c5723b5160e01b815260040160405180910390fd5b60038101805460ff60a81b1916905560405183906000907f4e1ed877689a20753863e8c5fdfa2933b80fe524db7fa73f94f51d15d8e38292908290a3505050565b610b1c61156c565b610b2582611611565b610b2f8282611654565b5050565b6000610b3d611716565b5060008051602061208983398151915290565b6040805160c081018252600080825260208201819052918101829052606081018290526080810182905260a0810191909152811580610b90575060005482115b15610bae5760405163c5723b5160e01b815260040160405180910390fd5b600082815260026020908152604091829020825160c0810190935280546001600160a01b03811684529091830190600160a01b900460ff166005811115610bf757610bf7611b16565b6005811115610c0857610c08611b16565b81528154600160a81b900460ff16151560208201526001820154604090811b67ffffffffffffffff1916908201526002820154606082015260039091015460809091015292915050565b60056020528160005260406000208181548110610c6e57600080fd5b90600052602060002001600091509150505481565b6000610c8d61175f565b805490915060ff600160401b820416159067ffffffffffffffff16600081158015610cb55750825b905060008267ffffffffffffffff166001148015610cd25750303b155b905081158015610ce0575080155b15610cfe5760405163f92ee8a960e01b815260040160405180910390fd5b845467ffffffffffffffff191660011785558315610d2857845460ff60401b1916600160401b1785555b610d30611788565b610d38611788565b610d40611788565b610d48611790565b610d536000336113eb565b50610d6c6000805160206120e9833981519152336113eb565b5060405133907f908408e307fc569b417f6cbec5d5a06f44a0a505ac0479b47d421a4b2fd6a1e690600090a28315610dde57845460ff60401b19168555604051600181527fc7f505b2f371ae2175ee4913f4499e1f2633a7b5936321eed1cdaeb6115181d29060200160405180910390a15b5050505050565b6000805160206120e9833981519152610dfd816113ae565b610a486117a0565b60009182526000805160206120a9833981519152602090815260408084206001600160a01b0393909316845291905290205460ff1690565b610e46826109ac565b610e4f816113ae565b6109ea8383611490565b60006000805160206120e9833981519152610e73816113ae565b610e7b6113b8565b8b1580610e8957506000548c115b15610ea75760405163c5723b5160e01b815260040160405180910390fd5b6001600160a01b0386161580610ec457506001600160a01b038516155b80610ed657506001600160a01b038416155b80610ee857506001600160a01b038316155b15610f06576040516332691b5760e01b815260040160405180910390fd5b8a1580610f11575089155b80610f1a575088155b80610f23575087155b15610f4157604051634762470b60e11b815260040160405180910390fd5b600160008154610f509061202c565b9190508190559150604051806101600160405280876001600160a01b03168152602001866001600160a01b03168152602001856001600160a01b03168152602001846001600160a01b03168152602001886003811115610fb257610fb2611b16565b8152602001600115158152602001600060b01b6001600160b01b03191681526020018c81526020018b81526020018a8152602001898152506003600084815260200190815260200160002060008201518160000160006101000a8154816001600160a01b0302191690836001600160a01b0316021790555060208201518160010160006101000a8154816001600160a01b0302191690836001600160a01b0316021790555060408201518160020160006101000a8154816001600160a01b0302191690836001600160a01b0316021790555060608201518160030160006101000a8154816001600160a01b0302191690836001600160a01b0316021790555060808201518160030160146101000a81548160ff021916908360038111156110db576110db611b16565b021790555060a082015160038201805460c085015160b01c600160b01b026001600160b01b03931515600160a81b02939093166001600160a81b039091161791909117905560e0820151600482015561010082015160058083019190915561012083015160068301556101409092015160079091015560008d815260209182526040808220805460018101825590835292822090920184905590516001600160a01b0388169184918f917f718b255a84139aecfbab57813fc3e5b5fc2c779128d7038e9d380e02bc0e2b2991a4509a9950505050505050505050565b60608115806111c7575060005482115b156111e55760405163c5723b5160e01b815260040160405180910390fd5b6000828152600560209081526040918290208054835181840281018401909452808452909183018282801561123957602002820191906000526020600020905b815481526020019060010190808311611225575b50505050509050919050565b6040805161016081018252600080825260208201819052918101829052606081018290526080810182905260a0810182905260c0810182905260e08101829052610100810182905261012081018290526101408101919091528115806112ac575060015482115b156112ca5760405163c5723b5160e01b815260040160405180910390fd5b60008281526003602081815260409283902083516101608101855281546001600160a01b03908116825260018301548116938201939093526002820154831694810194909452808301549182166060850152916080840191600160a01b900460ff169081111561133c5761133c611b16565b600381111561134d5761134d611b16565b81526003820154600160a81b810460ff1615156020830152600160b01b900460b01b6001600160b01b03191660408201526004820154606082015260058201546080820152600682015460a082015260079091015460c09091015292915050565b610a4881336117e9565b6000805160206120c98339815191525460ff16156113e95760405163d93c066560e01b815260040160405180910390fd5b565b60006000805160206120a98339815191526114068484610e05565b611486576000848152602082815260408083206001600160a01b03871684529091529020805460ff1916600117905561143c3390565b6001600160a01b0316836001600160a01b0316857f2f8788117e7eff1d82e926ec794901d17c78024a50270940304540a733656f0d60405160405180910390a460019150506106b2565b60009150506106b2565b60006000805160206120a98339815191526114ab8484610e05565b15611486576000848152602082815260408083206001600160a01b0387168085529252808320805460ff1916905551339287917ff6391f5c32d9c69d2a47ea670b442974b53935d1edc7fd64eb21e047a839171b9190a460019150506106b2565b611514611822565b6000805160206120c9833981519152805460ff191681557f5db9ee0a495bf2e6ff9c91a7834c1ba4fdd244a5e8aa4e537bd38aeae4b073aa335b6040516001600160a01b03909116815260200160405180910390a150565b306001600160a01b037f00000000000000000000000000000000000000000000000000000000000000001614806115f357507f00000000000000000000000000000000000000000000000000000000000000006001600160a01b03166115e7600080516020612089833981519152546001600160a01b031690565b6001600160a01b031614155b156113e95760405163703e46dd60e11b815260040160405180910390fd5b6000805160206120e9833981519152611629816113ae565b816001600160a01b03163b600003610b2f576040516332691b5760e01b815260040160405180910390fd5b816001600160a01b03166352d1902d6040518163ffffffff1660e01b8152600401602060405180830381865afa9250505080156116ae575060408051601f3d908101601f191682019092526116ab91810190612053565b60015b6116db57604051634c9c8ce360e01b81526001600160a01b03831660048201526024015b60405180910390fd5b600080516020612089833981519152811461170c57604051632a87526960e21b8152600481018290526024016116d2565b610a238383611852565b306001600160a01b037f000000000000000000000000000000000000000000000000000000000000000016146113e95760405163703e46dd60e11b815260040160405180910390fd5b6000807ff0c57e16840df040f15088dc2f81fe391c3923bec73e23a9662efc9c229c6a006106b2565b6113e96118a8565b6117986118a8565b6113e96118cd565b6117a86113b8565b6000805160206120c9833981519152805460ff191660011781557f62e78cea01bee320cd4e420270b5ea74000d11b0c9f74754ebdbfc544b05a2583361154e565b6117f38282610e05565b610b2f5760405163e2517d3f60e01b81526001600160a01b0382166004820152602481018390526044016116d2565b6000805160206120c98339815191525460ff166113e957604051638dfc202b60e01b815260040160405180910390fd5b61185b826118fb565b6040516001600160a01b038316907fbc7cd75a20ee27fd9adebab32041f755214dbc6bffa90cc0225b39da2e5c2d3b90600090a28051156118a057610a238282611960565b610b2f6119d6565b6118b06119f5565b6113e957604051631afcd79f60e31b815260040160405180910390fd5b6118d56118a8565b60017f9b779b17422d0df92223018b32b4d1fa46e071723d6817e2486d003becc55f0055565b806001600160a01b03163b60000361193157604051634c9c8ce360e01b81526001600160a01b03821660048201526024016116d2565b60008051602061208983398151915280546001600160a01b0319166001600160a01b0392909216919091179055565b6060600080846001600160a01b03168460405161197d919061206c565b600060405180830381855af49150503d80600081146119b8576040519150601f19603f3d011682016040523d82523d6000602084013e6119bd565b606091505b50915091506119cd858383611a0f565b95945050505050565b34156113e95760405163b398979f60e01b815260040160405180910390fd5b60006119ff61175f565b54600160401b900460ff16919050565b606082611a2457611a1f82611a6e565b611a67565b8151158015611a3b57506001600160a01b0384163b155b15611a6457604051639996b31560e01b81526001600160a01b03851660048201526024016116d2565b50805b9392505050565b805115611a7d57805160208201fd5b60405163d6bda27560e01b815260040160405180910390fd5b600060208284031215611aa857600080fd5b81356001600160e01b031981168114611a6757600080fd5b600080600060608486031215611ad557600080fd5b8335925060208401358015158114611aec57600080fd5b929592945050506040919091013590565b600060208284031215611b0f57600080fd5b5035919050565b634e487b7160e01b600052602160045260246000fd5b60048110611b3c57611b3c611b16565b9052565b6001600160a01b038c811682528b811660208301528a81166040830152891660608201526101608101611b76608083018a611b2c565b96151560a08201526001600160b01b03199590951660c086015260e08501939093526101008401919091526101208301526101409091015295945050505050565b80356001600160a01b0381168114611bce57600080fd5b919050565b60008060008060808587031215611be957600080fd5b611bf285611bb7565b93506020850135925060408501359150606085013560068110611c1457600080fd5b939692955090935050565b60068110611b3c57611b3c611b16565b6001600160a01b038716815260c08101611c4c6020830188611c1f565b941515604082015267ffffffffffffffff19939093166060840152608083019190915260a09091015292915050565b60008060408385031215611c8e57600080fd5b82359150611c9e60208401611bb7565b90509250929050565b634e487b7160e01b600052604160045260246000fd5b60008060408385031215611cd057600080fd5b611cd983611bb7565b9150602083013567ffffffffffffffff80821115611cf657600080fd5b818501915085601f830112611d0a57600080fd5b813581811115611d1c57611d1c611ca7565b604051601f8201601f19908116603f01168101908382118183101715611d4457611d44611ca7565b81604052828152886020848701011115611d5d57600080fd5b8260208601602083013760006020848301015280955050505050509250929050565b600060208284031215611d9157600080fd5b611a6782611bb7565b81516001600160a01b0316815260208083015160c0830191611dbe90840182611c1f565b5060408301511515604083015267ffffffffffffffff1960608401511660608301526080830151608083015260a083015160a083015292915050565b60008060408385031215611e0d57600080fd5b50508035926020909101359150565b60005b83811015611e37578181015183820152602001611e1f565b50506000910152565b6020815260008251806020840152611e5f816040850160208701611e1c565b601f01601f19169190910160400192915050565b6000806000806000806000806000806101408b8d031215611e9357600080fd5b8a35995060208b0135985060408b0135975060608b0135965060808b0135955060a08b013560048110611ec557600080fd5b9450611ed360c08c01611bb7565b9350611ee160e08c01611bb7565b9250611ef06101008c01611bb7565b9150611eff6101208c01611bb7565b90509295989b9194979a5092959850565b6020808252825182820181905260009190848201906040850190845b81811015611f4857835183529284019291840191600101611f2c565b50909695505050505050565b81516001600160a01b0316815261016081016020830151611f8060208401826001600160a01b03169052565b506040830151611f9b60408401826001600160a01b03169052565b506060830151611fb660608401826001600160a01b03169052565b506080830151611fc96080840182611b2c565b5060a0830151611fdd60a084018215159052565b5060c0830151611ff960c08401826001600160b01b0319169052565b5060e083810151908301526101008084015190830152610120808401519083015261014092830151929091019190915290565b60006001820161204c57634e487b7160e01b600052601160045260246000fd5b5060010190565b60006020828403121561206557600080fd5b5051919050565b6000825161207e818460208701611e1c565b919091019291505056fe360894a13ba1a3210667c828492db98dca3e2076cc3735a920a3ca505d382bbc02dd7bc7dec4dceedda775e58dd541e08a116c6c53815c0bd028192f7b626800cd5ed15c6e187e77e9aee88184c21f4f2182ab5827cb3b7e07fbedcd63f03300a49807205ce4d355092ef5a8a18f56e8913cf4a201fbe287825b095693c21775a2646970667358221220bc2a9afaf8df3c02cc82caec9d68e358deada0ef041b41233595b34141c99ec464736f6c63430008180033","linkReferences":{}},"methodIdentifiers":{"ADMIN_ROLE()":"75b238fc","DEFAULT_ADMIN_ROLE()":"a217fddf","UPGRADE_INTERFACE_VERSION()":"ad3cb1cc","VERSION()":"ffa1ad74","companies(uint256)":"2813d19d","companyCount()":"8e75dd47","companyOf(address)":"4f43deb1","deactivateProject(uint256)":"436e6958","getCompany(uint256)":"57d13917","getProject(uint256)":"f0f3f2c8","getRoleAdmin(bytes32)":"248a9ca3","grantRole(bytes32,address)":"2f2ff15d","hasRole(bytes32,address)":"91d14854","initialize()":"8129fc1c","pause()":"8456cb59","paused()":"5c975abb","projectCount()":"36fbad26","projectIdsByCompany(uint256)":"e842273b","projectIdsOf(uint256,uint256)":"7bc4e9d3","projects(uint256)":"107046bd","proxiableUUID()":"52d1902d","registerCompany(address,bytes32,bytes32,uint8)":"1da6556a","registerProject(uint256,bytes32,bytes32,bytes32,bytes32,uint8,address,address,address,address)":"e6d39eaa","renounceRole(bytes32,address)":"36568abe","revokeRole(bytes32,address)":"d547741f","supportsInterface(bytes4)":"01ffc9a7","unpause()":"3f4ba83a","updateMetadata(uint256,bool,bytes32)":"091367a1","upgradeToAndCall(address,bytes)":"4f1ef286"},"id":85}