{"abi":[{"type":"function","name":"ADMIN_ROLE","inputs":[],"outputs":[{"name":"","type":"bytes32","internalType":"bytes32"}],"stateMutability":"view"},{"type":"function","name":"DEFAULT_ADMIN_ROLE","inputs":[],"outputs":[{"name":"","type":"bytes32","internalType":"bytes32"}],"stateMutability":"view"},{"type":"function","name":"UPGRADE_INTERFACE_VERSION","inputs":[],"outputs":[{"name":"","type":"string","internalType":"string"}],"stateMutability":"view"},{"type":"function","name":"addressTo","inputs":[{"name":"","type":"address","internalType":"address"}],"outputs":[{"name":"escrowAddress","type":"address","internalType":"address"},{"name":"daoAddress","type":"address","internalType":"address"},{"name":"orderManagerAddress","type":"address","internalType":"address"}],"stateMutability":"view"},{"type":"function","name":"daoTemplate","inputs":[],"outputs":[{"name":"","type":"address","internalType":"address"}],"stateMutability":"view"},{"type":"function","name":"deployProject","inputs":[{"name":"p","type":"tuple","internalType":"struct ProplexRealEstateTokenFactory.DeployParams","components":[{"name":"identityRegistry","type":"address","internalType":"address"},{"name":"compliance","type":"address","internalType":"address"},{"name":"onchainID","type":"address","internalType":"address"},{"name":"name","type":"string","internalType":"string"},{"name":"symbol","type":"string","internalType":"string"},{"name":"decimals","type":"uint8","internalType":"uint8"},{"name":"maxSupply","type":"uint256","internalType":"uint256"},{"name":"tokenPrice","type":"uint256","internalType":"uint256"},{"name":"cancelDelay","type":"uint48","internalType":"uint48"},{"name":"projectOwner","type":"address","internalType":"address"},{"name":"assetId","type":"bytes32","internalType":"bytes32"},{"name":"metadataCID","type":"bytes32","internalType":"bytes32"},{"name":"assetType","type":"uint8","internalType":"enum IProplexRealEstateToken.AssetType"},{"name":"legalMetadataCID","type":"bytes32","internalType":"bytes32"},{"name":"dividendPct","type":"uint8","internalType":"uint8"},{"name":"preMintAmount","type":"uint256","internalType":"uint256"},{"name":"minInvestment","type":"uint256","internalType":"uint256"},{"name":"maxInvestment","type":"uint256","internalType":"uint256"}]}],"outputs":[{"name":"project","type":"address","internalType":"address"},{"name":"escrow","type":"address","internalType":"address"},{"name":"orderManager","type":"address","internalType":"address"},{"name":"dao","type":"address","internalType":"address"}],"stateMutability":"nonpayable"},{"type":"function","name":"escrowTemplate","inputs":[],"outputs":[{"name":"","type":"address","internalType":"address"}],"stateMutability":"view"},{"type":"function","name":"getAddresses","inputs":[{"name":"projectAddress","type":"address","internalType":"address"}],"outputs":[{"name":"","type":"tuple","internalType":"struct ProplexRealEstateTokenFactory.Addresses","components":[{"name":"escrowAddress","type":"address","internalType":"address"},{"name":"daoAddress","type":"address","internalType":"address"},{"name":"orderManagerAddress","type":"address","internalType":"address"}]}],"stateMutability":"view"},{"type":"function","name":"getRoleAdmin","inputs":[{"name":"role","type":"bytes32","internalType":"bytes32"}],"outputs":[{"name":"","type":"bytes32","internalType":"bytes32"}],"stateMutability":"view"},{"type":"function","name":"grantRole","inputs":[{"name":"role","type":"bytes32","internalType":"bytes32"},{"name":"account","type":"address","internalType":"address"}],"outputs":[],"stateMutability":"nonpayable"},{"type":"function","name":"hasRole","inputs":[{"name":"role","type":"bytes32","internalType":"bytes32"},{"name":"account","type":"address","internalType":"address"}],"outputs":[{"name":"","type":"bool","internalType":"bool"}],"stateMutability":"view"},{"type":"function","name":"initialize","inputs":[{"name":"_projectTemplate","type":"address","internalType":"address"},{"name":"_escrowTemplate","type":"address","internalType":"address"},{"name":"_orderManagerTemplate","type":"address","internalType":"address"},{"name":"_daoTemplate","type":"address","internalType":"address"}],"outputs":[],"stateMutability":"nonpayable"},{"type":"function","name":"orderManagerTemplate","inputs":[],"outputs":[{"name":"","type":"address","internalType":"address"}],"stateMutability":"view"},{"type":"function","name":"pause","inputs":[],"outputs":[],"stateMutability":"nonpayable"},{"type":"function","name":"paused","inputs":[],"outputs":[{"name":"","type":"bool","internalType":"bool"}],"stateMutability":"view"},{"type":"function","name":"projectTemplate","inputs":[],"outputs":[{"name":"","type":"address","internalType":"address"}],"stateMutability":"view"},{"type":"function","name":"proxiableUUID","inputs":[],"outputs":[{"name":"","type":"bytes32","internalType":"bytes32"}],"stateMutability":"view"},{"type":"function","name":"renounceRole","inputs":[{"name":"role","type":"bytes32","internalType":"bytes32"},{"name":"callerConfirmation","type":"address","internalType":"address"}],"outputs":[],"stateMutability":"nonpayable"},{"type":"function","name":"revokeRole","inputs":[{"name":"role","type":"bytes32","internalType":"bytes32"},{"name":"account","type":"address","internalType":"address"}],"outputs":[],"stateMutability":"nonpayable"},{"type":"function","name":"supportsInterface","inputs":[{"name":"interfaceId","type":"bytes4","internalType":"bytes4"}],"outputs":[{"name":"","type":"bool","internalType":"bool"}],"stateMutability":"view"},{"type":"function","name":"unpause","inputs":[],"outputs":[],"stateMutability":"nonpayable"},{"type":"function","name":"upgradeToAndCall","inputs":[{"name":"newImplementation","type":"address","internalType":"address"},{"name":"data","type":"bytes","internalType":"bytes"}],"outputs":[],"stateMutability":"payable"},{"type":"event","name":"FactoryInitialized","inputs":[],"anonymous":false},{"type":"event","name":"Initialized","inputs":[{"name":"version","type":"uint64","indexed":false,"internalType":"uint64"}],"anonymous":false},{"type":"event","name":"Paused","inputs":[{"name":"account","type":"address","indexed":false,"internalType":"address"}],"anonymous":false},{"type":"event","name":"ProjectDeployed","inputs":[{"name":"project","type":"address","indexed":true,"internalType":"address"},{"name":"escrow","type":"address","indexed":true,"internalType":"address"},{"name":"orderManager","type":"address","indexed":true,"internalType":"address"},{"name":"dao","type":"address","indexed":false,"internalType":"address"},{"name":"assetId","type":"bytes32","indexed":false,"internalType":"bytes32"},{"name":"name","type":"string","indexed":false,"internalType":"string"}],"anonymous":false},{"type":"event","name":"RoleAdminChanged","inputs":[{"name":"role","type":"bytes32","indexed":true,"internalType":"bytes32"},{"name":"previousAdminRole","type":"bytes32","indexed":true,"internalType":"bytes32"},{"name":"newAdminRole","type":"bytes32","indexed":true,"internalType":"bytes32"}],"anonymous":false},{"type":"event","name":"RoleGranted","inputs":[{"name":"role","type":"bytes32","indexed":true,"internalType":"bytes32"},{"name":"account","type":"address","indexed":true,"internalType":"address"},{"name":"sender","type":"address","indexed":true,"internalType":"address"}],"anonymous":false},{"type":"event","name":"RoleRevoked","inputs":[{"name":"role","type":"bytes32","indexed":true,"internalType":"bytes32"},{"name":"account","type":"address","indexed":true,"internalType":"address"},{"name":"sender","type":"address","indexed":true,"internalType":"address"}],"anonymous":false},{"type":"event","name":"Unpaused","inputs":[{"name":"account","type":"address","indexed":false,"internalType":"address"}],"anonymous":false},{"type":"event","name":"Upgraded","inputs":[{"name":"implementation","type":"address","indexed":true,"internalType":"address"}],"anonymous":false},{"type":"error","name":"AccessControlBadConfirmation","inputs":[]},{"type":"error","name":"AccessControlUnauthorizedAccount","inputs":[{"name":"account","type":"address","internalType":"address"},{"name":"neededRole","type":"bytes32","internalType":"bytes32"}]},{"type":"error","name":"AddressEmptyCode","inputs":[{"name":"target","type":"address","internalType":"address"}]},{"type":"error","name":"ERC1967InvalidImplementation","inputs":[{"name":"implementation","type":"address","internalType":"address"}]},{"type":"error","name":"ERC1967NonPayable","inputs":[]},{"type":"error","name":"EnforcedPause","inputs":[]},{"type":"error","name":"ExpectedPause","inputs":[]},{"type":"error","name":"FailedCall","inputs":[]},{"type":"error","name":"FailedDeployment","inputs":[]},{"type":"error","name":"InsufficientBalance","inputs":[{"name":"balance","type":"uint256","internalType":"uint256"},{"name":"needed","type":"uint256","internalType":"uint256"}]},{"type":"error","name":"InvalidInitialization","inputs":[]},{"type":"error","name":"InvalidParameter","inputs":[{"name":"field","type":"string","internalType":"string"}]},{"type":"error","name":"NotInitializing","inputs":[]},{"type":"error","name":"ReentrancyGuardReentrantCall","inputs":[]},{"type":"error","name":"UUPSUnauthorizedCallContext","inputs":[]},{"type":"error","name":"UUPSUnsupportedProxiableUUID","inputs":[{"name":"slot","type":"bytes32","internalType":"bytes32"}]},{"type":"error","name":"ZeroAddress","inputs":[]}],"bytecode":{"object":"0x60a06040523060805234801561001457600080fd5b50608051611f6961003e6000396000818161137e015281816113a701526114f80152611f696000f3fe6080604052600436106101355760003560e01c806355ced7e5116100ab57806391d148541161006f57806391d148541461046057806395c8297514610480578063a217fddf146104a0578063ad3cb1cc146104b5578063d547741f146104f3578063f8c8765e1461051357600080fd5b806355ced7e51461033a5780635c975abb1461035a57806375b238fc1461037f5780638456cb59146103a1578063906f6343146103b657600080fd5b80632f2ff15d116100fd5780632f2ff15d1461029b57806336568abe146102bd5780633f4ba83a146102dd578063470c80eb146102f25780634f1ef2861461031257806352d1902d1461032557600080fd5b806301ffc9a71461013a57806302a165601461016f5780631a8f575a146101c2578063248a9ca3146101fa57806326bda11c14610228575b600080fd5b34801561014657600080fd5b5061015a610155366004611903565b610533565b60405190151581526020015b60405180910390f35b34801561017b57600080fd5b5061018f61018a36600461192d565b61056a565b604080516001600160a01b0395861681529385166020850152918416918301919091529091166060820152608001610166565b3480156101ce57600080fd5b506002546101e2906001600160a01b031681565b6040516001600160a01b039091168152602001610166565b34801561020657600080fd5b5061021a610215366004611969565b610bf8565b604051908152602001610166565b34801561023457600080fd5b5061027161024336600461199e565b6004602052600090815260409020805460018201546002909201546001600160a01b03918216928216911683565b604080516001600160a01b0394851681529284166020840152921691810191909152606001610166565b3480156102a757600080fd5b506102bb6102b63660046119b9565b610c1a565b005b3480156102c957600080fd5b506102bb6102d83660046119b9565b610c3c565b3480156102e957600080fd5b506102bb610c74565b3480156102fe57600080fd5b506003546101e2906001600160a01b031681565b6102bb6103203660046119fb565b610c97565b34801561033157600080fd5b5061021a610cb6565b34801561034657600080fd5b506001546101e2906001600160a01b031681565b34801561036657600080fd5b50600080516020611ef48339815191525460ff1661015a565b34801561038b57600080fd5b5061021a600080516020611f1483398151915281565b3480156103ad57600080fd5b506102bb610cd3565b3480156103c257600080fd5b5061042e6103d136600461199e565b6040805160608082018352600080835260208084018290529284018190526001600160a01b039485168152600483528390208351918201845280548516825260018101548516928201929092526002909101549092169082015290565b6040805182516001600160a01b0390811682526020808501518216908301529282015190921690820152606001610166565b34801561046c57600080fd5b5061015a61047b3660046119b9565b610cf3565b34801561048c57600080fd5b506000546101e2906001600160a01b031681565b3480156104ac57600080fd5b5061021a600081565b3480156104c157600080fd5b506104e6604051806040016040528060058152602001640352e302e360dc1b81525081565b6040516101669190611b0d565b3480156104ff57600080fd5b506102bb61050e3660046119b9565b610d2b565b34801561051f57600080fd5b506102bb61052e366004611b20565b610d47565b60006001600160e01b03198216637965db0b60e01b148061056457506301ffc9a760e01b6001600160e01b03198316145b92915050565b600080600080600080516020611f1483398151915261058881610f4f565b610590610f59565b60006105a46101408801610120890161199e565b6001600160a01b0316036105cb5760405163d92e233d60e01b815260040160405180910390fd5b6105d486610f8c565b6000546105e9906001600160a01b03166111e5565b600154909550610601906001600160a01b03166111e5565b600254909450610619906001600160a01b03166111e5565b600354909350610631906001600160a01b03166111e5565b9150600060405180606001604052806040518060e001604052808a806060019061065b9190611b74565b8080601f0160208091040260200160405190810160405280939291908181526020018383808284376000920191909152505050908252506020016106a260808c018c611b74565b8080601f0160208091040260200160405190810160405280939291908181526020018383808284376000920191909152505050908252506020016106ec60c08c0160a08d01611bc2565b60ff16815260c08b0135602082015260e08b0135604082015260600161071a6101208c016101008d01611be5565b65ffffffffffff1681526020016107396101a08c016101808d01611c0d565b600381111561074a5761074a611c2e565b81525081526020016040518061018001604052808a6000016020810190610771919061199e565b6001600160a01b031681526020018a6020016020810190610792919061199e565b6001600160a01b031681526020016107b060608c0160408d0161199e565b6001600160a01b031681526020016107d06101408c016101208d0161199e565b6001600160a01b03168152602001306001600160a01b03168152602001886001600160a01b03168152602001876001600160a01b03168152602001866001600160a01b031681526020016000801b81526020018a610140013581526020018a610160013581526020018a6101a00135815250815260200160405180608001604052808a6101e0013581526020018a610200013581526020018a61022001358152602001600115158152508152509050856001600160a01b031663439fab918260405160200161089f9190611d3b565b6040516020818303038152906040526040518263ffffffff1660e01b81526004016108ca9190611b0d565b600060405180830381600087803b1580156108e457600080fd5b505af11580156108f8573d6000803e3d6000fd5b5050506001600160a01b038616905063485cc9558761091f6101408b016101208c0161199e565b6040516001600160e01b031960e085901b1681526001600160a01b03928316600482015291166024820152604401600060405180830381600087803b15801561096757600080fd5b505af115801561097b573d6000803e3d6000fd5b5050506001600160a01b038516905063c0c53b8b86886109a36101408c016101208d0161199e565b60405160e085901b6001600160e01b03191681526001600160a01b03938416600482015291831660248301529091166044820152606401600060405180830381600087803b1580156109f457600080fd5b505af1158015610a08573d6000803e3d6000fd5b5050506001600160a01b038416905063f35f9e4587603c610a316101408c016101208d0161199e565b6040516001600160e01b031960e086901b1681526001600160a01b03938416600482015260ff9092166024830152919091166044820152606401600060405180830381600087803b158015610a8557600080fd5b505af1158015610a99573d6000803e3d6000fd5b505050506040518060600160405280866001600160a01b03168152602001846001600160a01b03168152602001856001600160a01b031681525060046000886001600160a01b03166001600160a01b0316815260200190815260200160002060008201518160000160006101000a8154816001600160a01b0302191690836001600160a01b0316021790555060208201518160010160006101000a8154816001600160a01b0302191690836001600160a01b0316021790555060408201518160020160006101000a8154816001600160a01b0302191690836001600160a01b03160217905550905050836001600160a01b0316856001600160a01b0316876001600160a01b03167e3aa01523bf77db0dbe4d63d09d97dab40ce007019034bf8def67ba7701a0fe868b61014001358c8060600190610bd79190611b74565b604051610be79493929190611e36565b60405180910390a450509193509193565b6000908152600080516020611ed4833981519152602052604090206001015490565b610c2382610bf8565b610c2c81610f4f565b610c3683836111f2565b50505050565b6001600160a01b0381163314610c655760405163334bd91960e11b815260040160405180910390fd5b610c6f8282611297565b505050565b600080516020611f14833981519152610c8c81610f4f565b610c94611313565b50565b610c9f611373565b610ca882611418565b610cb28282611430565b5050565b6000610cc06114ed565b50600080516020611eb483398151915290565b600080516020611f14833981519152610ceb81610f4f565b610c94611536565b6000918252600080516020611ed4833981519152602090815260408084206001600160a01b0393909316845291905290205460ff1690565b610d3482610bf8565b610d3d81610f4f565b610c368383611297565b6000610d5161157f565b805490915060ff600160401b820416159067ffffffffffffffff16600081158015610d795750825b905060008267ffffffffffffffff166001148015610d965750303b155b905081158015610da4575080155b15610dc25760405163f92ee8a960e01b815260040160405180910390fd5b845467ffffffffffffffff191660011785558315610dec57845460ff60401b1916600160401b1785555b610df46115a8565b610dfc6115a8565b610e046115b0565b610e0c6115a8565b6001600160a01b0389161580610e2957506001600160a01b038816155b80610e3b57506001600160a01b038716155b80610e4d57506001600160a01b038616155b15610e6b5760405163d92e233d60e01b815260040160405180910390fd5b600080546001600160a01b03808c166001600160a01b0319928316178355600180548c8316908416179055600280548b831690841617905560038054918a1691909216179055610ebb90336111f2565b50610ed4600080516020611f14833981519152336111f2565b506040517f40386e97635538c75f9e248c3e11389fd726f2222b7bf6ec239e1f02529e47b090600090a18315610f4457845460ff60401b19168555604051600181527fc7f505b2f371ae2175ee4913f4499e1f2633a7b5936321eed1cdaeb6115181d29060200160405180910390a15b505050505050505050565b610c9481336115c0565b600080516020611ef48339815191525460ff1615610f8a5760405163d93c066560e01b815260040160405180910390fd5b565b610f996060820182611b74565b9050600003610fdd576040516305519d6f60e51b8152600401610fd4906020808252600490820152636e616d6560e01b604082015260600190565b60405180910390fd5b610fea6080820182611b74565b9050600003611025576040516305519d6f60e51b81526020600482015260066024820152651cde5b589bdb60d21b6044820152606401610fd4565b8060c00135600003611066576040516305519d6f60e51b81526020600482015260096024820152686d6178537570706c7960b81b6044820152606401610fd4565b8060e001356000036110a8576040516305519d6f60e51b815260206004820152600a602482015269746f6b656e507269636560b01b6044820152606401610fd4565b6110ba61012082016101008301611be5565b65ffffffffffff16600003611100576040516305519d6f60e51b815260206004820152600b60248201526a63616e63656c44656c617960a81b6044820152606401610fd4565b806102000135600003611146576040516305519d6f60e51b815260206004820152600d60248201526c1b5a5b925b9d995cdd1b595b9d609a1b6044820152606401610fd4565b8061020001358161022001351015611191576040516305519d6f60e51b815260206004820152600d60248201526c1b585e125b9d995cdd1b595b9d609a1b6044820152606401610fd4565b60326111a56101e083016101c08401611bc2565b60ff161115610c94576040516305519d6f60e51b815260206004820152600b60248201526a191a5d9a59195b991418dd60aa1b6044820152606401610fd4565b60006105648260006115f9565b6000600080516020611ed483398151915261120d8484610cf3565b61128d576000848152602082815260408083206001600160a01b03871684529091529020805460ff191660011790556112433390565b6001600160a01b0316836001600160a01b0316857f2f8788117e7eff1d82e926ec794901d17c78024a50270940304540a733656f0d60405160405180910390a46001915050610564565b6000915050610564565b6000600080516020611ed48339815191526112b28484610cf3565b1561128d576000848152602082815260408083206001600160a01b0387168085529252808320805460ff1916905551339287917ff6391f5c32d9c69d2a47ea670b442974b53935d1edc7fd64eb21e047a839171b9190a46001915050610564565b61131b61168f565b600080516020611ef4833981519152805460ff191681557f5db9ee0a495bf2e6ff9c91a7834c1ba4fdd244a5e8aa4e537bd38aeae4b073aa335b6040516001600160a01b03909116815260200160405180910390a150565b306001600160a01b037f00000000000000000000000000000000000000000000000000000000000000001614806113fa57507f00000000000000000000000000000000000000000000000000000000000000006001600160a01b03166113ee600080516020611eb4833981519152546001600160a01b031690565b6001600160a01b031614155b15610f8a5760405163703e46dd60e11b815260040160405180910390fd5b600080516020611f14833981519152610cb281610f4f565b816001600160a01b03166352d1902d6040518163ffffffff1660e01b8152600401602060405180830381865afa92505050801561148a575060408051601f3d908101601f1916820190925261148791810190611e7e565b60015b6114b257604051634c9c8ce360e01b81526001600160a01b0383166004820152602401610fd4565b600080516020611eb483398151915281146114e357604051632a87526960e21b815260048101829052602401610fd4565b610c6f83836116bf565b306001600160a01b037f00000000000000000000000000000000000000000000000000000000000000001614610f8a5760405163703e46dd60e11b815260040160405180910390fd5b61153e610f59565b600080516020611ef4833981519152805460ff191660011781557f62e78cea01bee320cd4e420270b5ea74000d11b0c9f74754ebdbfc544b05a25833611355565b6000807ff0c57e16840df040f15088dc2f81fe391c3923bec73e23a9662efc9c229c6a00610564565b610f8a611715565b6115b8611715565b610f8a61173a565b6115ca8282610cf3565b610cb25760405163e2517d3f60e01b81526001600160a01b038216600482015260248101839052604401610fd4565b6000814710156116255760405163cf47918160e01b815247600482015260248101839052604401610fd4565b763d602d80600a3d3981f3363d3d373d3d3d363d730000008360601b60e81c176000526e5af43d82803e903d91602b57fd5bf38360781b176020526037600983f090506001600160a01b0381166105645760405163b06ebf3d60e01b815260040160405180910390fd5b600080516020611ef48339815191525460ff16610f8a57604051638dfc202b60e01b815260040160405180910390fd5b6116c882611768565b6040516001600160a01b038316907fbc7cd75a20ee27fd9adebab32041f755214dbc6bffa90cc0225b39da2e5c2d3b90600090a280511561170d57610c6f82826117cd565b610cb2611843565b61171d611862565b610f8a57604051631afcd79f60e31b815260040160405180910390fd5b611742611715565b60017f9b779b17422d0df92223018b32b4d1fa46e071723d6817e2486d003becc55f0055565b806001600160a01b03163b60000361179e57604051634c9c8ce360e01b81526001600160a01b0382166004820152602401610fd4565b600080516020611eb483398151915280546001600160a01b0319166001600160a01b0392909216919091179055565b6060600080846001600160a01b0316846040516117ea9190611e97565b600060405180830381855af49150503d8060008114611825576040519150601f19603f3d011682016040523d82523d6000602084013e61182a565b606091505b509150915061183a85838361187c565b95945050505050565b3415610f8a5760405163b398979f60e01b815260040160405180910390fd5b600061186c61157f565b54600160401b900460ff16919050565b6060826118915761188c826118db565b6118d4565b81511580156118a857506001600160a01b0384163b155b156118d157604051639996b31560e01b81526001600160a01b0385166004820152602401610fd4565b50805b9392505050565b8051156118ea57805160208201fd5b60405163d6bda27560e01b815260040160405180910390fd5b60006020828403121561191557600080fd5b81356001600160e01b0319811681146118d457600080fd5b60006020828403121561193f57600080fd5b813567ffffffffffffffff81111561195657600080fd5b820161024081850312156118d457600080fd5b60006020828403121561197b57600080fd5b5035919050565b80356001600160a01b038116811461199957600080fd5b919050565b6000602082840312156119b057600080fd5b6118d482611982565b600080604083850312156119cc57600080fd5b823591506119dc60208401611982565b90509250929050565b634e487b7160e01b600052604160045260246000fd5b60008060408385031215611a0e57600080fd5b611a1783611982565b9150602083013567ffffffffffffffff80821115611a3457600080fd5b818501915085601f830112611a4857600080fd5b813581811115611a5a57611a5a6119e5565b604051601f8201601f19908116603f01168101908382118183101715611a8257611a826119e5565b81604052828152886020848701011115611a9b57600080fd5b8260208601602083013760006020848301015280955050505050509250929050565b60005b83811015611ad8578181015183820152602001611ac0565b50506000910152565b60008151808452611af9816020860160208601611abd565b601f01601f19169290920160200192915050565b6020815260006118d46020830184611ae1565b60008060008060808587031215611b3657600080fd5b611b3f85611982565b9350611b4d60208601611982565b9250611b5b60408601611982565b9150611b6960608601611982565b905092959194509250565b6000808335601e19843603018112611b8b57600080fd5b83018035915067ffffffffffffffff821115611ba657600080fd5b602001915036819003821315611bbb57600080fd5b9250929050565b600060208284031215611bd457600080fd5b813560ff811681146118d457600080fd5b600060208284031215611bf757600080fd5b813565ffffffffffff811681146118d457600080fd5b600060208284031215611c1f57600080fd5b8135600481106118d457600080fd5b634e487b7160e01b600052602160045260246000fd5b80516001600160a01b031682526020810151611c6b60208401826001600160a01b03169052565b506040810151611c8660408401826001600160a01b03169052565b506060810151611ca160608401826001600160a01b03169052565b506080810151611cbc60808401826001600160a01b03169052565b5060a0810151611cd760a08401826001600160a01b03169052565b5060c0810151611cf260c08401826001600160a01b03169052565b5060e0810151611d0d60e08401826001600160a01b03169052565b5061010081810151908301526101208082015190830152610140808201519083015261016090810151910152565b60208152600082516102206020840152805160e0610240850152611d63610320850182611ae1565b9050602082015161023f1985830301610260860152611d828282611ae1565b91505060ff60408301511661028085015260608201516102a085015260808201516102c085015265ffffffffffff60a0830151166102e085015260c0820151915060048210611de157634e487b7160e01b600052602160045260246000fd5b8161030085015260208501519150611dfc6040850183611c44565b60408581015180516101c087015260208101516101e087015290810151610200860152606081015115156102208601529150949350505050565b6001600160a01b0385168152602081018490526060604082018190528101829052818360808301376000818301608090810191909152601f909201601f191601019392505050565b600060208284031215611e9057600080fd5b5051919050565b60008251611ea9818460208701611abd565b919091019291505056fe360894a13ba1a3210667c828492db98dca3e2076cc3735a920a3ca505d382bbc02dd7bc7dec4dceedda775e58dd541e08a116c6c53815c0bd028192f7b626800cd5ed15c6e187e77e9aee88184c21f4f2182ab5827cb3b7e07fbedcd63f03300a49807205ce4d355092ef5a8a18f56e8913cf4a201fbe287825b095693c21775a2646970667358221220c2a5e89a05708eec43d4dc3c355da60e434c252d796b69eddc5ec287f7ffd56464736f6c63430008180033","linkReferences":{}},"methodIdentifiers":{"ADMIN_ROLE()":"75b238fc","DEFAULT_ADMIN_ROLE()":"a217fddf","UPGRADE_INTERFACE_VERSION()":"ad3cb1cc","addressTo(address)":"26bda11c","daoTemplate()":"470c80eb","deployProject((address,address,address,string,string,uint8,uint256,uint256,uint48,address,bytes32,bytes32,uint8,bytes32,uint8,uint256,uint256,uint256))":"02a16560","escrowTemplate()":"55ced7e5","getAddresses(address)":"906f6343","getRoleAdmin(bytes32)":"248a9ca3","grantRole(bytes32,address)":"2f2ff15d","hasRole(bytes32,address)":"91d14854","initialize(address,address,address,address)":"f8c8765e","orderManagerTemplate()":"1a8f575a","pause()":"8456cb59","paused()":"5c975abb","projectTemplate()":"95c82975","proxiableUUID()":"52d1902d","renounceRole(bytes32,address)":"36568abe","revokeRole(bytes32,address)":"d547741f","supportsInterface(bytes4)":"01ffc9a7","unpause()":"3f4ba83a","upgradeToAndCall(address,bytes)":"4f1ef286"},"id":84}