{"abi":[{"type":"receive","stateMutability":"payable"},{"type":"function","name":"ADMIN_ROLE","inputs":[],"outputs":[{"name":"","type":"bytes32","internalType":"bytes32"}],"stateMutability":"view"},{"type":"function","name":"DEFAULT_ADMIN_ROLE","inputs":[],"outputs":[{"name":"","type":"bytes32","internalType":"bytes32"}],"stateMutability":"view"},{"type":"function","name":"OPERATOR_ROLE","inputs":[],"outputs":[{"name":"","type":"bytes32","internalType":"bytes32"}],"stateMutability":"view"},{"type":"function","name":"UPGRADE_INTERFACE_VERSION","inputs":[],"outputs":[{"name":"","type":"string","internalType":"string"}],"stateMutability":"view"},{"type":"function","name":"cancelOrder","inputs":[{"name":"id","type":"bytes32","internalType":"bytes32"}],"outputs":[],"stateMutability":"nonpayable"},{"type":"function","name":"emergencyWithdraw","inputs":[{"name":"to","type":"address","internalType":"address"},{"name":"amountWei","type":"uint128","internalType":"uint128"}],"outputs":[],"stateMutability":"nonpayable"},{"type":"function","name":"escrow","inputs":[],"outputs":[{"name":"","type":"address","internalType":"address"}],"stateMutability":"view"},{"type":"function","name":"feeRecipient","inputs":[],"outputs":[{"name":"","type":"address","internalType":"address"}],"stateMutability":"view"},{"type":"function","name":"finalizeOrder","inputs":[{"name":"id","type":"bytes32","internalType":"bytes32"}],"outputs":[],"stateMutability":"nonpayable"},{"type":"function","name":"getEscrow","inputs":[],"outputs":[{"name":"","type":"address","internalType":"address"}],"stateMutability":"view"},{"type":"function","name":"getOrder","inputs":[{"name":"id","type":"bytes32","internalType":"bytes32"}],"outputs":[{"name":"","type":"tuple","internalType":"struct ProplexOrderManager.Order","components":[{"name":"buyer","type":"address","internalType":"address"},{"name":"amountTokens","type":"uint128","internalType":"uint128"},{"name":"totalWei","type":"uint256","internalType":"uint256"},{"name":"feesWei","type":"uint256","internalType":"uint256"},{"name":"assetId","type":"bytes32","internalType":"bytes32"},{"name":"createdAt","type":"uint48","internalType":"uint48"},{"name":"orderExpiry","type":"uint48","internalType":"uint48"},{"name":"releaseAfter","type":"uint48","internalType":"uint48"},{"name":"status","type":"uint8","internalType":"enum ProplexOrderManager.OrderStatus"},{"name":"projectAddress","type":"address","internalType":"address"},{"name":"escrowAddress","type":"address","internalType":"address"},{"name":"released","type":"bool","internalType":"bool"}]}],"stateMutability":"view"},{"type":"function","name":"getProject","inputs":[],"outputs":[{"name":"","type":"address","internalType":"address"}],"stateMutability":"view"},{"type":"function","name":"getRoleAdmin","inputs":[{"name":"role","type":"bytes32","internalType":"bytes32"}],"outputs":[{"name":"","type":"bytes32","internalType":"bytes32"}],"stateMutability":"view"},{"type":"function","name":"getShares","inputs":[{"name":"tokensBought","type":"uint256","internalType":"uint256"},{"name":"tokenPrice","type":"uint256","internalType":"uint256"},{"name":"assetPrice","type":"uint256","internalType":"uint256"},{"name":"rentTotal","type":"uint256","internalType":"uint256"}],"outputs":[{"name":"ownershipShare","type":"uint256","internalType":"uint256"},{"name":"rentShare","type":"uint256","internalType":"uint256"}],"stateMutability":"pure"},{"type":"function","name":"grantRole","inputs":[{"name":"role","type":"bytes32","internalType":"bytes32"},{"name":"account","type":"address","internalType":"address"}],"outputs":[],"stateMutability":"nonpayable"},{"type":"function","name":"hasRole","inputs":[{"name":"role","type":"bytes32","internalType":"bytes32"},{"name":"account","type":"address","internalType":"address"}],"outputs":[{"name":"","type":"bool","internalType":"bool"}],"stateMutability":"view"},{"type":"function","name":"hasSignedRelease","inputs":[{"name":"id","type":"bytes32","internalType":"bytes32"},{"name":"signer","type":"address","internalType":"address"}],"outputs":[{"name":"","type":"bool","internalType":"bool"}],"stateMutability":"view"},{"type":"function","name":"initialize","inputs":[{"name":"_escrow","type":"address","internalType":"address"},{"name":"_project","type":"address","internalType":"address"},{"name":"_owner","type":"address","internalType":"address"}],"outputs":[],"stateMutability":"nonpayable"},{"type":"function","name":"orders","inputs":[{"name":"","type":"bytes32","internalType":"bytes32"}],"outputs":[{"name":"buyer","type":"address","internalType":"address"},{"name":"amountTokens","type":"uint128","internalType":"uint128"},{"name":"totalWei","type":"uint256","internalType":"uint256"},{"name":"feesWei","type":"uint256","internalType":"uint256"},{"name":"assetId","type":"bytes32","internalType":"bytes32"},{"name":"createdAt","type":"uint48","internalType":"uint48"},{"name":"orderExpiry","type":"uint48","internalType":"uint48"},{"name":"releaseAfter","type":"uint48","internalType":"uint48"},{"name":"status","type":"uint8","internalType":"enum ProplexOrderManager.OrderStatus"},{"name":"projectAddress","type":"address","internalType":"address"},{"name":"escrowAddress","type":"address","internalType":"address"},{"name":"released","type":"bool","internalType":"bool"}],"stateMutability":"view"},{"type":"function","name":"pause","inputs":[],"outputs":[],"stateMutability":"nonpayable"},{"type":"function","name":"paused","inputs":[],"outputs":[{"name":"","type":"bool","internalType":"bool"}],"stateMutability":"view"},{"type":"function","name":"placeOrder","inputs":[{"name":"p","type":"tuple","internalType":"struct ProplexOrderManager.PlaceOrderParams","components":[{"name":"projectAddress","type":"address","internalType":"address"},{"name":"escrowAddress","type":"address","internalType":"address"},{"name":"assetId","type":"bytes32","internalType":"bytes32"},{"name":"amountTokens","type":"uint128","internalType":"uint128"},{"name":"feesWei","type":"uint128","internalType":"uint128"}]}],"outputs":[{"name":"id","type":"bytes32","internalType":"bytes32"}],"stateMutability":"payable"},{"type":"function","name":"platformFeeBps","inputs":[],"outputs":[{"name":"","type":"uint16","internalType":"uint16"}],"stateMutability":"view"},{"type":"function","name":"project","inputs":[],"outputs":[{"name":"","type":"address","internalType":"address"}],"stateMutability":"view"},{"type":"function","name":"proxiableUUID","inputs":[],"outputs":[{"name":"","type":"bytes32","internalType":"bytes32"}],"stateMutability":"view"},{"type":"function","name":"releaseSigCount","inputs":[{"name":"id","type":"bytes32","internalType":"bytes32"}],"outputs":[{"name":"","type":"uint8","internalType":"uint8"}],"stateMutability":"view"},{"type":"function","name":"renounceRole","inputs":[{"name":"role","type":"bytes32","internalType":"bytes32"},{"name":"callerConfirmation","type":"address","internalType":"address"}],"outputs":[],"stateMutability":"nonpayable"},{"type":"function","name":"requiredSigs","inputs":[],"outputs":[{"name":"","type":"uint8","internalType":"uint8"}],"stateMutability":"view"},{"type":"function","name":"resolveStuckOrder","inputs":[{"name":"id","type":"bytes32","internalType":"bytes32"}],"outputs":[],"stateMutability":"nonpayable"},{"type":"function","name":"revokeRole","inputs":[{"name":"role","type":"bytes32","internalType":"bytes32"},{"name":"account","type":"address","internalType":"address"}],"outputs":[],"stateMutability":"nonpayable"},{"type":"function","name":"setFeeRecipient","inputs":[{"name":"a","type":"address","internalType":"address"}],"outputs":[],"stateMutability":"nonpayable"},{"type":"function","name":"setPlatformFee","inputs":[{"name":"bps","type":"uint16","internalType":"uint16"}],"outputs":[],"stateMutability":"nonpayable"},{"type":"function","name":"setProjectContracts","inputs":[{"name":"_escrow","type":"address","internalType":"address"},{"name":"_project","type":"address","internalType":"address"}],"outputs":[],"stateMutability":"nonpayable"},{"type":"function","name":"setRequiredSignatures","inputs":[{"name":"n","type":"uint8","internalType":"uint8"}],"outputs":[],"stateMutability":"nonpayable"},{"type":"function","name":"signDocuments","inputs":[{"name":"id","type":"bytes32","internalType":"bytes32"}],"outputs":[],"stateMutability":"nonpayable"},{"type":"function","name":"supportsInterface","inputs":[{"name":"interfaceId","type":"bytes4","internalType":"bytes4"}],"outputs":[{"name":"","type":"bool","internalType":"bool"}],"stateMutability":"view"},{"type":"function","name":"unpause","inputs":[],"outputs":[],"stateMutability":"nonpayable"},{"type":"function","name":"upgradeToAndCall","inputs":[{"name":"newImplementation","type":"address","internalType":"address"},{"name":"data","type":"bytes","internalType":"bytes"}],"outputs":[],"stateMutability":"payable"},{"type":"event","name":"DocumentsSigned","inputs":[{"name":"id","type":"bytes32","indexed":true,"internalType":"bytes32"}],"anonymous":false},{"type":"event","name":"EmergencyWithdrawal","inputs":[{"name":"to","type":"address","indexed":true,"internalType":"address"},{"name":"amountWei","type":"uint128","indexed":false,"internalType":"uint128"}],"anonymous":false},{"type":"event","name":"FeeRecipientSet","inputs":[{"name":"oldRec","type":"address","indexed":true,"internalType":"address"},{"name":"newRec","type":"address","indexed":true,"internalType":"address"}],"anonymous":false},{"type":"event","name":"FundsReleased","inputs":[{"name":"id","type":"bytes32","indexed":true,"internalType":"bytes32"},{"name":"to","type":"address","indexed":true,"internalType":"address"},{"name":"amountWei","type":"uint128","indexed":false,"internalType":"uint128"}],"anonymous":false},{"type":"event","name":"Initialized","inputs":[{"name":"version","type":"uint64","indexed":false,"internalType":"uint64"}],"anonymous":false},{"type":"event","name":"Initialized","inputs":[{"name":"escrow","type":"address","indexed":true,"internalType":"address"},{"name":"project","type":"address","indexed":true,"internalType":"address"},{"name":"owner","type":"address","indexed":true,"internalType":"address"}],"anonymous":false},{"type":"event","name":"OrderCancelled","inputs":[{"name":"id","type":"bytes32","indexed":true,"internalType":"bytes32"},{"name":"buyer","type":"address","indexed":true,"internalType":"address"},{"name":"refundWei","type":"uint256","indexed":false,"internalType":"uint256"}],"anonymous":false},{"type":"event","name":"OrderFinalized","inputs":[{"name":"id","type":"bytes32","indexed":true,"internalType":"bytes32"}],"anonymous":false},{"type":"event","name":"OrderPlaced","inputs":[{"name":"id","type":"bytes32","indexed":true,"internalType":"bytes32"},{"name":"buyer","type":"address","indexed":true,"internalType":"address"},{"name":"tokens","type":"uint128","indexed":false,"internalType":"uint128"},{"name":"assetId","type":"bytes32","indexed":false,"internalType":"bytes32"},{"name":"totalWei","type":"uint256","indexed":false,"internalType":"uint256"}],"anonymous":false},{"type":"event","name":"Paused","inputs":[{"name":"account","type":"address","indexed":false,"internalType":"address"}],"anonymous":false},{"type":"event","name":"PlatformFeeSet","inputs":[{"name":"oldFee","type":"uint16","indexed":false,"internalType":"uint16"},{"name":"newFee","type":"uint16","indexed":false,"internalType":"uint16"}],"anonymous":false},{"type":"event","name":"ProjectContractsSet","inputs":[{"name":"escrow","type":"address","indexed":true,"internalType":"address"},{"name":"project","type":"address","indexed":true,"internalType":"address"}],"anonymous":false},{"type":"event","name":"ReleaseSigned","inputs":[{"name":"id","type":"bytes32","indexed":true,"internalType":"bytes32"},{"name":"signer","type":"address","indexed":true,"internalType":"address"}],"anonymous":false},{"type":"event","name":"RequiredSignaturesSet","inputs":[{"name":"oldVal","type":"uint8","indexed":false,"internalType":"uint8"},{"name":"newVal","type":"uint8","indexed":false,"internalType":"uint8"}],"anonymous":false},{"type":"event","name":"RoleAdminChanged","inputs":[{"name":"role","type":"bytes32","indexed":true,"internalType":"bytes32"},{"name":"previousAdminRole","type":"bytes32","indexed":true,"internalType":"bytes32"},{"name":"newAdminRole","type":"bytes32","indexed":true,"internalType":"bytes32"}],"anonymous":false},{"type":"event","name":"RoleGranted","inputs":[{"name":"role","type":"bytes32","indexed":true,"internalType":"bytes32"},{"name":"account","type":"address","indexed":true,"internalType":"address"},{"name":"sender","type":"address","indexed":true,"internalType":"address"}],"anonymous":false},{"type":"event","name":"RoleRevoked","inputs":[{"name":"role","type":"bytes32","indexed":true,"internalType":"bytes32"},{"name":"account","type":"address","indexed":true,"internalType":"address"},{"name":"sender","type":"address","indexed":true,"internalType":"address"}],"anonymous":false},{"type":"event","name":"StuckOrderResolved","inputs":[{"name":"id","type":"bytes32","indexed":true,"internalType":"bytes32"},{"name":"buyer","type":"address","indexed":true,"internalType":"address"},{"name":"refundWei","type":"uint256","indexed":false,"internalType":"uint256"}],"anonymous":false},{"type":"event","name":"Unpaused","inputs":[{"name":"account","type":"address","indexed":false,"internalType":"address"}],"anonymous":false},{"type":"event","name":"Upgraded","inputs":[{"name":"implementation","type":"address","indexed":true,"internalType":"address"}],"anonymous":false},{"type":"error","name":"AccessControlBadConfirmation","inputs":[]},{"type":"error","name":"AccessControlUnauthorizedAccount","inputs":[{"name":"account","type":"address","internalType":"address"},{"name":"neededRole","type":"bytes32","internalType":"bytes32"}]},{"type":"error","name":"AddressEmptyCode","inputs":[{"name":"target","type":"address","internalType":"address"}]},{"type":"error","name":"AlreadyReleased","inputs":[]},{"type":"error","name":"AlreadySigned","inputs":[]},{"type":"error","name":"BadAddress","inputs":[]},{"type":"error","name":"BadAmount","inputs":[]},{"type":"error","name":"BadParameter","inputs":[]},{"type":"error","name":"Delay","inputs":[]},{"type":"error","name":"DepositFailed","inputs":[]},{"type":"error","name":"ERC1967InvalidImplementation","inputs":[{"name":"implementation","type":"address","internalType":"address"}]},{"type":"error","name":"ERC1967NonPayable","inputs":[]},{"type":"error","name":"EnforcedPause","inputs":[]},{"type":"error","name":"ExpectedPause","inputs":[]},{"type":"error","name":"FailedCall","inputs":[]},{"type":"error","name":"InsufficientBalance","inputs":[]},{"type":"error","name":"InvalidInitialization","inputs":[]},{"type":"error","name":"NotInitializing","inputs":[]},{"type":"error","name":"OrderExpired","inputs":[]},{"type":"error","name":"OrderNotFinalized","inputs":[]},{"type":"error","name":"OrderNotFound","inputs":[]},{"type":"error","name":"OrderNotPending","inputs":[]},{"type":"error","name":"ReentrancyGuardReentrantCall","inputs":[]},{"type":"error","name":"Stuck","inputs":[]},{"type":"error","name":"Timelock","inputs":[]},{"type":"error","name":"UUPSUnauthorizedCallContext","inputs":[]},{"type":"error","name":"UUPSUnsupportedProxiableUUID","inputs":[{"name":"slot","type":"bytes32","internalType":"bytes32"}]},{"type":"error","name":"Unauthorized","inputs":[]}],"bytecode":{"object":"0x60a06040523060805234801561001457600080fd5b50608051612d5e61003e60003960008181611e9401528181611ebd01526120400152612d5e6000f3fe6080604052600436106102295760003560e01c80638456cb5911610123578063cba33942116100ab578063e74b981b1161006f578063e74b981b14610780578063f5b541a6146107a0578063f60ca60d146107d4578063f72935a8146107f4578063fab20c661461082957600080fd5b8063cba33942146106e0578063d3b8800314610700578063d547741f14610720578063dd5a10d814610740578063e2fdcc171461076057600080fd5b8063a208ae38116100f2578063a208ae381461063c578063a217fddf1461065a578063ad3cb1cc1461066f578063b5e3fd62146106ad578063c0c53b8b146106c057600080fd5b80638456cb591461051f57806391d148541461053457806395cdfa0d146105545780639c3f1e901461057457600080fd5b80634975b8b1116101b15780635cbc742c116101755780635cbc742c1461047e5780636e57b7001461049e5780637489ec23146104bc57806375b238fc146104dc5780637c0bbd5c146104fe57600080fd5b80634975b8b1146103e45780634f1ef2861461040457806352d1902d146104175780635778472a1461042c5780635c975abb1461045957600080fd5b80632f2ff15d116101f85780632f2ff15d14610313578063354fb76a1461033557806336568abe146103775780633f4ba83a1461039757806346904840146103ac57600080fd5b806301ffc9a71461023557806322dcd13e1461026a578063248a9ca31461029f578063252b0667146102cd57600080fd5b3661023057005b600080fd5b34801561024157600080fd5b5061025561025036600461265e565b610849565b60405190151581526020015b60405180910390f35b34801561027657600080fd5b5060015461028c90600160a81b900461ffff1681565b60405161ffff9091168152602001610261565b3480156102ab57600080fd5b506102bf6102ba366004612688565b610880565b604051908152602001610261565b3480156102d957600080fd5b506102556102e83660046126b8565b60009182526004602090815260408084206001600160a01b0393909316845291905290205460ff1690565b34801561031f57600080fd5b5061033361032e3660046126b8565b6108a2565b005b34801561034157600080fd5b50610365610350366004612688565b60009081526005602052604090205460ff1690565b60405160ff9091168152602001610261565b34801561038357600080fd5b506103336103923660046126b8565b6108c4565b3480156103a357600080fd5b506103336108fc565b3480156103b857600080fd5b506002546103cc906001600160a01b031681565b6040516001600160a01b039091168152602001610261565b3480156103f057600080fd5b506103336103ff3660046126e4565b61091f565b61033361041236600461271d565b6109cd565b34801561042357600080fd5b506102bf6109ec565b34801561043857600080fd5b5061044c610447366004612688565b610a09565b6040516102619190612817565b34801561046557600080fd5b50600080516020612cc98339815191525460ff16610255565b34801561048a57600080fd5b50610333610499366004612900565b610b67565b3480156104aa57600080fd5b506001546001600160a01b03166103cc565b3480156104c857600080fd5b506103336104d7366004612688565b610c04565b3480156104e857600080fd5b506102bf600080516020612d0983398151915281565b34801561050a57600080fd5b5060015461036590600160a01b900460ff1681565b34801561052b57600080fd5b50610333610de1565b34801561054057600080fd5b5061025561054f3660046126b8565b610e01565b34801561056057600080fd5b5061033361056f366004612688565b610e39565b34801561058057600080fd5b5061062461058f366004612688565b6003602081905260009182526040909120805460018201546002830154938301546004840154600585015460068601546007909601546001600160a01b03958616976001600160801b039095169694959394929365ffffffffffff80841694600160301b8504821694600160601b81049092169360ff600160901b9093048316939182169291811691600160a01b909104168c565b6040516102619c9b9a99989796959493929190612924565b34801561064857600080fd5b506000546001600160a01b03166103cc565b34801561066657600080fd5b506102bf600081565b34801561067b57600080fd5b506106a0604051806040016040528060058152602001640352e302e360dc1b81525081565b6040516102619190612a02565b6102bf6106bb366004612a15565b610fdf565b3480156106cc57600080fd5b506103336106db366004612a2d565b611569565b3480156106ec57600080fd5b506103336106fb366004612688565b6117c1565b34801561070c57600080fd5b5061033361071b366004612a87565b6118b8565b34801561072c57600080fd5b5061033361073b3660046126b8565b6119de565b34801561074c57600080fd5b5061033361075b366004612ab1565b6119fa565b34801561076c57600080fd5b506000546103cc906001600160a01b031681565b34801561078c57600080fd5b5061033361079b366004612adb565b611a61565b3480156107ac57600080fd5b506102bf7f97667070c54ef182b0f5858b034beac1b6f3089aa2d3188bb1e8929f4fa9b92981565b3480156107e057600080fd5b506001546103cc906001600160a01b031681565b34801561080057600080fd5b5061081461080f366004612af6565b611acc565b60408051928352602083019190915201610261565b34801561083557600080fd5b50610333610844366004612688565b611b5b565b60006001600160e01b03198216637965db0b60e01b148061087a57506301ffc9a760e01b6001600160e01b03198316145b92915050565b6000908152600080516020612ca9833981519152602052604090206001015490565b6108ab82610880565b6108b481611cf7565b6108be8383611d01565b50505050565b6001600160a01b03811633146108ed5760405163334bd91960e11b815260040160405180910390fd5b6108f78282611dad565b505050565b600080516020612d0983398151915261091481611cf7565b61091c611e29565b50565b600080516020612d0983398151915261093781611cf7565b60ff8216158061094a5750600a8260ff16115b1561096857604051634762470b60e11b815260040160405180910390fd5b6001805460ff848116600160a01b81810260ff60a01b1985161790945560408051949093049091168084526020840191909152917fc5559b172206a4abc6ade9bfbf7554b48269c627d54088610e106979364e69ff91015b60405180910390a1505050565b6109d5611e89565b6109de82611f30565b6109e88282611f73565b5050565b60006109f6612035565b50600080516020612c8983398151915290565b6040805161018081018252600080825260208201819052918101829052606081018290526080810182905260a0810182905260c0810182905260e0810182905261010081018290526101208101829052610140810182905261016081019190915260008281526003602081815260409283902083516101808101855281546001600160a01b0316815260018201546001600160801b03169281019290925260028101549382019390935282820154606082015260048301546080820152600583015465ffffffffffff80821660a0840152600160301b8204811660c0840152600160601b82041660e0830152909291610100840191600160901b900460ff1690811115610b1857610b186127df565b6003811115610b2957610b296127df565b815260068201546001600160a01b0390811660208301526007909201549182166040820152600160a01b90910460ff16151560609091015292915050565b600080516020612d09833981519152610b7f81611cf7565b6103e88261ffff161115610ba657604051634762470b60e11b815260040160405180910390fd5b6001805461ffff848116600160a81b81810261ffff60a81b1985161790945560408051949093049091168084526020840191909152917f57821a9dccca5cf12a4df4f033c989bd02bf3ade0c036c4f40e193bc94c1490791016109c0565b610c0c61207e565b600081815260036020526040902080546001600160a01b03163314801590610c495750610c47600080516020612d0983398151915233610e01565b155b15610c66576040516282b42960e81b815260040160405180910390fd5b60026005820154600160901b900460ff166003811115610c8857610c886127df565b03610ca65760405163340d215d60e11b815260040160405180910390fd5b6005810154610cc190620151809065ffffffffffff16612b3e565b65ffffffffffff1642108015610cec5750610cea600080516020612d0983398151915233610e01565b155b15610d0a57604051632becb6d960e11b815260040160405180910390fd5b600581018054600360901b60ff60901b199091161790556000548154600283015460405163a5f17e9160e01b8152600481018690526001600160a01b039283166024820152604481019190915291169063a5f17e9190606401600060405180830381600087803b158015610d7d57600080fd5b505af1158015610d91573d6000803e3d6000fd5b5050825460028401546040519081526001600160a01b0390911692508491507fb2705df32ac67fc3101f496cd7036bf59074a603544d97d73650b6f09744986a9060200160405180910390a35050565b600080516020612d09833981519152610df981611cf7565b61091c6120af565b6000918252600080516020612ca9833981519152602090815260408084206001600160a01b0393909316845291905290205460ff1690565b600080516020612d09833981519152610e5181611cf7565b610e5961207e565b6000828152600360205260408120906005820154600160901b900460ff166003811115610e8857610e886127df565b14158015610eb6575060016005820154600160901b900460ff166003811115610eb357610eb36127df565b14155b15610ed45760405163021b374160e01b815260040160405180910390fd5b6005810154600160301b900465ffffffffffff164211610f075760405163021b374160e01b815260040160405180910390fd5b600581018054600360901b60ff60901b199091161790556000548154600283015460405163a5f17e9160e01b8152600481018790526001600160a01b039283166024820152604481019190915291169063a5f17e9190606401600060405180830381600087803b158015610f7a57600080fd5b505af1158015610f8e573d6000803e3d6000fd5b5050825460028401546040519081526001600160a01b0390911692508591507f06fe4b0ccbdfbfe5f6e58c13bc28bd352f35e235571491b29765ce231a91b2259060200160405180910390a3505050565b6000610fe96120f8565b610ff161207e565b610ffa82612130565b60006110096020840184612adb565b6001600160a01b0316637ff9b5966040518163ffffffff1660e01b8152600401602060405180830381865afa158015611046573d6000803e3d6000fd5b505050506040513d601f19601f8201168201806040525081019061106a9190612b5d565b90506000670de0b6b3a7640000826110886080870160608801612b76565b6001600160801b031661109b9190612b91565b6110a59190612ba8565b600154909150600090612710906110c790600160a81b900461ffff1684612b91565b6110d19190612ba8565b905060006110e560a0870160808801612b76565b6001600160801b03166110f88385612bca565b6111029190612bca565b905061112b604051806040016040528060058152602001641d1bdd185b60da1b81525082612313565b611156604051806040016040528060098152602001686d73672e76616c756560b81b81525034612313565b80341461117657604051631e9acf1760e31b815260040160405180910390fd5b338660400135426002601481819054906101000a900467ffffffffffffffff16809291906111a390612bdd565b91906101000a81548167ffffffffffffffff021916908367ffffffffffffffff16021790555060405160200161120794939291906001600160a01b039490941684526020840192909252604083015267ffffffffffffffff16606082015260800190565b60408051601f1981840301815282825280516020918201206101808401909252338352909650810161123f6080890160608a01612b76565b6001600160801b031681526020810183905260400161126460a0890160808a01612b76565b6001600160801b03168152602001876040013581526020014265ffffffffffff16815260200162093a8065ffffffffffff16426112a19190612bca565b65ffffffffffff16815260006020820181905260409091019081526020908101906112ce90890189612adb565b6001600160a01b031681526020018760200160208101906112ef9190612adb565b6001600160a01b0390811682526000602092830181905288815260038084526040918290208551815494166001600160a01b0319909416939093178355928401516001830180546001600160801b039092166fffffffffffffffffffffffffffffffff1990921691909117905583015160028201556060830151818301556080830151600482015560a083015160058201805460c086015160e087015165ffffffffffff908116600160601b0265ffffffffffff60601b19928216600160301b026bffffffffffffffffffffffff19909416919095161791909117908116831782556101008601519394919260ff60901b191666ffffffffffffff60601b199091161790600160901b90849081111561140a5761140a6127df565b02179055506101208201516006820180546001600160a01b0319166001600160a01b039283161790556101408301516007909201805461016090940151929091166001600160a81b031990931692909217600160a01b9115159190910217905561147a6040870160208801612adb565b6040805163e513fb0760e01b8152600481018890523360248201529088013560448201526001600160a01b03919091169063e513fb079083906064016000604051808303818588803b1580156114cf57600080fd5b505af11580156114e3573d6000803e3d6000fd5b503393508892507fd7be71fa2d99088e684c75675a2512f5419f9849810c06fe34fda7fdb0fe0d67915061151f905060808a0160608b01612b76565b604080516001600160801b039092168252808b01356020830152810185905260600160405180910390a3505050506115646001600080516020612ce983398151915255565b919050565b600061157361236c565b805490915060ff600160401b820416159067ffffffffffffffff1660008115801561159b5750825b905060008267ffffffffffffffff1660011480156115b85750303b155b9050811580156115c6575080155b156115e45760405163f92ee8a960e01b815260040160405180910390fd5b845467ffffffffffffffff19166001178555831561160e57845460ff60401b1916600160401b1785555b6001600160a01b038816158061162b57506001600160a01b038716155b8061163d57506001600160a01b038616155b1561165b576040516332691b5760e01b815260040160405180910390fd5b611663612395565b61166b612395565b61167361239d565b61167b612395565b600080546001600160a01b03199081166001600160a01b038b811691909117835560018054600280549094168b841617909355908a16600162ffff0160a01b031990921691909117607d60a91b1760ff60a01b1916600160a11b1790556116e29087611d01565b506116fb600080516020612d0983398151915287611d01565b506117267f97667070c54ef182b0f5858b034beac1b6f3089aa2d3188bb1e8929f4fa9b92987611d01565b50856001600160a01b0316876001600160a01b0316896001600160a01b03167fad307780531f6353137c35adc50ad58d71b76e76aa891e729387f2e720f2de2060405160405180910390a483156117b757845460ff60401b19168555604051600181527fc7f505b2f371ae2175ee4913f4499e1f2633a7b5936321eed1cdaeb6115181d29060200160405180910390a15b5050505050505050565b6117c961207e565b600081815260036020526040902080546001600160a01b03163314611800576040516282b42960e81b815260040160405180910390fd5b60006005820154600160901b900460ff166003811115611822576118226127df565b1461184057604051635d12a4a360e11b815260040160405180910390fd5b6005810154600160301b900465ffffffffffff16421115611874576040516362b439dd60e11b815260040160405180910390fd5b60058101805460ff60901b1916600160901b17905560405182907f9ea3ff8efec72653d45e1ec03ceefcd7564d8378958b00c6138d96a313402a9e90600090a25050565b600080516020612d098339815191526118d081611cf7565b6118d86120f8565b816001600160801b03166000036119025760405163749b593960e01b815260040160405180910390fd5b6000836001600160a01b0316836001600160801b031660405160006040518083038185875af1925050503d8060008114611958576040519150601f19603f3d011682016040523d82523d6000602084013e61195d565b606091505b505090508061197f576040516332691b5760e01b815260040160405180910390fd5b6040516001600160801b03841681526001600160a01b038516907f25e7fff862e101f58872b71f8a3acf5460b020d1f27e6b47bb38e366b8cf16749060200160405180910390a2506108f76001600080516020612ce983398151915255565b6119e782610880565b6119f081611cf7565b6108be8383611dad565b6000611a0581611cf7565b600080546001600160a01b038086166001600160a01b0319928316811784556001805492871692909316821790925560405190927ff09890324299865c30277a7f60d051011301a28e9459773b72d2eaca09496a0b91a3505050565b600080516020612d09833981519152611a7981611cf7565b600280546001600160a01b038481166001600160a01b0319831681179093556040519116919082907f15d80a013f22151bc7246e3bc132e12828cde19de98870475e3fa7084015272190600090a3505050565b600080851580611ada575084155b80611ae3575083155b80611aec575082155b15611b0a57604051634762470b60e11b815260040160405180910390fd5b83611b158688612b91565b611b2790670de0b6b3a7640000612b91565b611b319190612ba8565b9150670de0b6b3a7640000611b468484612b91565b611b509190612ba8565b905094509492505050565b611b6361207e565b600081815260036020526040902080546001600160a01b03163314801590611ba05750611b9e600080516020612d0983398151915233610e01565b155b15611bbd576040516282b42960e81b815260040160405180910390fd5b60026005820154600160901b900460ff166003811115611bdf57611bdf6127df565b03611bfd5760405163340d215d60e11b815260040160405180910390fd5b6005810154600160301b900465ffffffffffff16421115611c31576040516362b439dd60e11b815260040160405180910390fd5b600581018054600160911b60ff60901b199091161790556006810154600782015460018301546040516323b872dd60e01b81526001600160a01b0392831660048201523360248201526001600160801b0390911660448201529116906323b872dd90606401600060405180830381600087803b158015611cb057600080fd5b505af1158015611cc4573d6000803e3d6000fd5b50506040518492507f6f0548662455006d5f13d897186acc99caaaf44b3258f0bf86d6507678e48caa9150600090a25050565b61091c81336123ad565b6000600080516020612ca9833981519152611d1c8484610e01565b611d9c576000848152602082815260408083206001600160a01b03871684529091529020805460ff19166001179055611d523390565b6001600160a01b0316836001600160a01b0316857f2f8788117e7eff1d82e926ec794901d17c78024a50270940304540a733656f0d60405160405180910390a4600191505061087a565b600091505061087a565b5092915050565b6000600080516020612ca9833981519152611dc88484610e01565b15611d9c576000848152602082815260408083206001600160a01b0387168085529252808320805460ff1916905551339287917ff6391f5c32d9c69d2a47ea670b442974b53935d1edc7fd64eb21e047a839171b9190a4600191505061087a565b611e316123e6565b600080516020612cc9833981519152805460ff191681557f5db9ee0a495bf2e6ff9c91a7834c1ba4fdd244a5e8aa4e537bd38aeae4b073aa335b6040516001600160a01b03909116815260200160405180910390a150565b306001600160a01b037f0000000000000000000000000000000000000000000000000000000000000000161480611f1057507f00000000000000000000000000000000000000000000000000000000000000006001600160a01b0316611f04600080516020612c89833981519152546001600160a01b031690565b6001600160a01b031614155b15611f2e5760405163703e46dd60e11b815260040160405180910390fd5b565b600080516020612d09833981519152611f4881611cf7565b816001600160a01b03163b6000036109e8576040516332691b5760e01b815260040160405180910390fd5b816001600160a01b03166352d1902d6040518163ffffffff1660e01b8152600401602060405180830381865afa925050508015611fcd575060408051601f3d908101601f19168201909252611fca91810190612b5d565b60015b611ffa57604051634c9c8ce360e01b81526001600160a01b03831660048201526024015b60405180910390fd5b600080516020612c89833981519152811461202b57604051632a87526960e21b815260048101829052602401611ff1565b6108f78383612416565b306001600160a01b037f00000000000000000000000000000000000000000000000000000000000000001614611f2e5760405163703e46dd60e11b815260040160405180910390fd5b600080516020612cc98339815191525460ff1615611f2e5760405163d93c066560e01b815260040160405180910390fd5b6120b761207e565b600080516020612cc9833981519152805460ff191660011781557f62e78cea01bee320cd4e420270b5ea74000d11b0c9f74754ebdbfc544b05a25833611e6b565b600080516020612ce983398151915280546001190161212a57604051633ee5aeb560e01b815260040160405180910390fd5b60029055565b604081013560000361215557604051634762470b60e11b815260040160405180910390fd5b6121626020820182612adb565b6001600160a01b03163b60000361218c576040516332691b5760e01b815260040160405180910390fd5b6121996020820182612adb565b6001600160a01b031663fba7cc796040518163ffffffff1660e01b8152600401602060405180830381865afa1580156121d6573d6000803e3d6000fd5b505050506040513d601f19601f820116820180604052508101906121fa9190612c04565b61221757604051634762470b60e11b815260040160405180910390fd5b6000806122276020840184612adb565b6001600160a01b031663787de7776040518163ffffffff1660e01b81526004016040805180830381865afa158015612263573d6000803e3d6000fd5b505050506040513d601f19601f820116820180604052508101906122879190612c26565b90925090508161229d6080850160608601612b76565b6001600160801b031610806122c95750806122be6080850160608601612b76565b6001600160801b0316115b806122f5575069d3c21bcecceda10000006122ea6080850160608601612b76565b6001600160801b0316115b156108f75760405163749b593960e01b815260040160405180910390fd5b6109e88282604051602401612329929190612c4a565b60408051601f198184030181529190526020810180516001600160e01b0316632d839cb360e21b17905261246c565b6001600080516020612ce983398151915255565b6000807ff0c57e16840df040f15088dc2f81fe391c3923bec73e23a9662efc9c229c6a0061087a565b611f2e612475565b6123a5612475565b611f2e61249a565b6123b78282610e01565b6109e85760405163e2517d3f60e01b81526001600160a01b038216600482015260248101839052604401611ff1565b600080516020612cc98339815191525460ff16611f2e57604051638dfc202b60e01b815260040160405180910390fd5b61241f826124a2565b6040516001600160a01b038316907fbc7cd75a20ee27fd9adebab32041f755214dbc6bffa90cc0225b39da2e5c2d3b90600090a2805115612464576108f78282612507565b6109e861257d565b61091c8161259c565b61247d6125bd565b611f2e57604051631afcd79f60e31b815260040160405180910390fd5b612358612475565b806001600160a01b03163b6000036124d857604051634c9c8ce360e01b81526001600160a01b0382166004820152602401611ff1565b600080516020612c8983398151915280546001600160a01b0319166001600160a01b0392909216919091179055565b6060600080846001600160a01b0316846040516125249190612c6c565b600060405180830381855af49150503d806000811461255f576040519150601f19603f3d011682016040523d82523d6000602084013e612564565b606091505b50915091506125748583836125d7565b95945050505050565b3415611f2e5760405163b398979f60e01b815260040160405180910390fd5b60006a636f6e736f6c652e6c6f679050600080835160208501845afa505050565b60006125c761236c565b54600160401b900460ff16919050565b6060826125ec576125e782612636565b61262f565b815115801561260357506001600160a01b0384163b155b1561262c57604051639996b31560e01b81526001600160a01b0385166004820152602401611ff1565b50805b9392505050565b80511561264557805160208201fd5b60405163d6bda27560e01b815260040160405180910390fd5b60006020828403121561267057600080fd5b81356001600160e01b03198116811461262f57600080fd5b60006020828403121561269a57600080fd5b5035919050565b80356001600160a01b038116811461156457600080fd5b600080604083850312156126cb57600080fd5b823591506126db602084016126a1565b90509250929050565b6000602082840312156126f657600080fd5b813560ff8116811461262f57600080fd5b634e487b7160e01b600052604160045260246000fd5b6000806040838503121561273057600080fd5b612739836126a1565b9150602083013567ffffffffffffffff8082111561275657600080fd5b818501915085601f83011261276a57600080fd5b81358181111561277c5761277c612707565b604051601f8201601f19908116603f011681019083821181831017156127a4576127a4612707565b816040528281528860208487010111156127bd57600080fd5b8260208601602083013760006020848301015280955050505050509250929050565b634e487b7160e01b600052602160045260246000fd5b6004811061281357634e487b7160e01b600052602160045260246000fd5b9052565b81516001600160a01b031681526101808101602083015161284360208401826001600160801b03169052565b5060408301516040830152606083015160608301526080830151608083015260a083015161287b60a084018265ffffffffffff169052565b5060c083015161289560c084018265ffffffffffff169052565b5060e08301516128af60e084018265ffffffffffff169052565b50610100808401516128c3828501826127f5565b5050610120838101516001600160a01b03908116918401919091526101408085015190911690830152610160928301511515929091019190915290565b60006020828403121561291257600080fd5b813561ffff8116811461262f57600080fd5b6001600160a01b038d811682526001600160801b038d166020830152604082018c9052606082018b9052608082018a905265ffffffffffff89811660a084015288811660c0840152871660e08301526101808201906129876101008401886127f5565b80861661012084015284166101408301528215156101608301529d9c50505050505050505050505050565b60005b838110156129cd5781810151838201526020016129b5565b50506000910152565b600081518084526129ee8160208601602086016129b2565b601f01601f19169290920160200192915050565b60208152600061262f60208301846129d6565b600060a08284031215612a2757600080fd5b50919050565b600080600060608486031215612a4257600080fd5b612a4b846126a1565b9250612a59602085016126a1565b9150612a67604085016126a1565b90509250925092565b80356001600160801b038116811461156457600080fd5b60008060408385031215612a9a57600080fd5b612aa3836126a1565b91506126db60208401612a70565b60008060408385031215612ac457600080fd5b612acd836126a1565b91506126db602084016126a1565b600060208284031215612aed57600080fd5b61262f826126a1565b60008060008060808587031215612b0c57600080fd5b5050823594602084013594506040840135936060013592509050565b634e487b7160e01b600052601160045260246000fd5b65ffffffffffff818116838216019080821115611da657611da6612b28565b600060208284031215612b6f57600080fd5b5051919050565b600060208284031215612b8857600080fd5b61262f82612a70565b808202811582820484141761087a5761087a612b28565b600082612bc557634e487b7160e01b600052601260045260246000fd5b500490565b8082018082111561087a5761087a612b28565b600067ffffffffffffffff808316818103612bfa57612bfa612b28565b6001019392505050565b600060208284031215612c1657600080fd5b8151801515811461262f57600080fd5b60008060408385031215612c3957600080fd5b505080516020909101519092909150565b604081526000612c5d60408301856129d6565b90508260208301529392505050565b60008251612c7e8184602087016129b2565b919091019291505056fe360894a13ba1a3210667c828492db98dca3e2076cc3735a920a3ca505d382bbc02dd7bc7dec4dceedda775e58dd541e08a116c6c53815c0bd028192f7b626800cd5ed15c6e187e77e9aee88184c21f4f2182ab5827cb3b7e07fbedcd63f033009b779b17422d0df92223018b32b4d1fa46e071723d6817e2486d003becc55f00a49807205ce4d355092ef5a8a18f56e8913cf4a201fbe287825b095693c21775a2646970667358221220542b310714f396ea569b311f2f1ea397de41a3e3af4121122d6134f2ca545d5164736f6c63430008180033","linkReferences":{}},"methodIdentifiers":{"ADMIN_ROLE()":"75b238fc","DEFAULT_ADMIN_ROLE()":"a217fddf","OPERATOR_ROLE()":"f5b541a6","UPGRADE_INTERFACE_VERSION()":"ad3cb1cc","cancelOrder(bytes32)":"7489ec23","emergencyWithdraw(address,uint128)":"d3b88003","escrow()":"e2fdcc17","feeRecipient()":"46904840","finalizeOrder(bytes32)":"fab20c66","getEscrow()":"a208ae38","getOrder(bytes32)":"5778472a","getProject()":"6e57b700","getRoleAdmin(bytes32)":"248a9ca3","getShares(uint256,uint256,uint256,uint256)":"f72935a8","grantRole(bytes32,address)":"2f2ff15d","hasRole(bytes32,address)":"91d14854","hasSignedRelease(bytes32,address)":"252b0667","initialize(address,address,address)":"c0c53b8b","orders(bytes32)":"9c3f1e90","pause()":"8456cb59","paused()":"5c975abb","placeOrder((address,address,bytes32,uint128,uint128))":"b5e3fd62","platformFeeBps()":"22dcd13e","project()":"f60ca60d","proxiableUUID()":"52d1902d","releaseSigCount(bytes32)":"354fb76a","renounceRole(bytes32,address)":"36568abe","requiredSigs()":"7c0bbd5c","resolveStuckOrder(bytes32)":"95cdfa0d","revokeRole(bytes32,address)":"d547741f","setFeeRecipient(address)":"e74b981b","setPlatformFee(uint16)":"5cbc742c","setProjectContracts(address,address)":"dd5a10d8","setRequiredSignatures(uint8)":"4975b8b1","signDocuments(bytes32)":"cba33942","supportsInterface(bytes4)":"01ffc9a7","unpause()":"3f4ba83a","upgradeToAndCall(address,bytes)":"4f1ef286"},"id":82}