{"abi":[{"type":"function","name":"ADMIN_ROLE","inputs":[],"outputs":[{"name":"","type":"bytes32","internalType":"bytes32"}],"stateMutability":"view"},{"type":"function","name":"DEFAULT_ADMIN_ROLE","inputs":[],"outputs":[{"name":"","type":"bytes32","internalType":"bytes32"}],"stateMutability":"view"},{"type":"function","name":"ProplexRegistry","inputs":[],"outputs":[{"name":"","type":"address","internalType":"contract IProplexRegistry"}],"stateMutability":"view"},{"type":"function","name":"UPGRADE_INTERFACE_VERSION","inputs":[],"outputs":[{"name":"","type":"string","internalType":"string"}],"stateMutability":"view"},{"type":"function","name":"VERSION","inputs":[],"outputs":[{"name":"","type":"string","internalType":"string"}],"stateMutability":"view"},{"type":"function","name":"companiesOf","inputs":[{"name":"owner","type":"address","internalType":"address"}],"outputs":[{"name":"","type":"uint256[]","internalType":"uint256[]"}],"stateMutability":"view"},{"type":"function","name":"companyAt","inputs":[{"name":"","type":"uint256","internalType":"uint256"}],"outputs":[{"name":"","type":"address","internalType":"address"}],"stateMutability":"view"},{"type":"function","name":"companyCounter","inputs":[],"outputs":[{"name":"","type":"uint256","internalType":"uint256"}],"stateMutability":"view"},{"type":"function","name":"companyImpl","inputs":[],"outputs":[{"name":"","type":"address","internalType":"address"}],"stateMutability":"view"},{"type":"function","name":"deployCompany","inputs":[{"name":"companyType","type":"uint8","internalType":"enum ProplexCompany.CompanyType"},{"name":"name","type":"bytes32","internalType":"bytes32"},{"name":"jurisdiction","type":"bytes32","internalType":"bytes32"}],"outputs":[{"name":"id","type":"uint256","internalType":"uint256"},{"name":"proxy","type":"address","internalType":"address"}],"stateMutability":"nonpayable"},{"type":"function","name":"getRoleAdmin","inputs":[{"name":"role","type":"bytes32","internalType":"bytes32"}],"outputs":[{"name":"","type":"bytes32","internalType":"bytes32"}],"stateMutability":"view"},{"type":"function","name":"grantRole","inputs":[{"name":"role","type":"bytes32","internalType":"bytes32"},{"name":"account","type":"address","internalType":"address"}],"outputs":[],"stateMutability":"nonpayable"},{"type":"function","name":"hasRole","inputs":[{"name":"role","type":"bytes32","internalType":"bytes32"},{"name":"account","type":"address","internalType":"address"}],"outputs":[{"name":"","type":"bool","internalType":"bool"}],"stateMutability":"view"},{"type":"function","name":"initialize","inputs":[{"name":"_impl","type":"address","internalType":"address"}],"outputs":[],"stateMutability":"nonpayable"},{"type":"function","name":"ownerIds","inputs":[{"name":"","type":"address","internalType":"address"},{"name":"","type":"uint256","internalType":"uint256"}],"outputs":[{"name":"","type":"uint256","internalType":"uint256"}],"stateMutability":"view"},{"type":"function","name":"pause","inputs":[],"outputs":[],"stateMutability":"nonpayable"},{"type":"function","name":"paused","inputs":[],"outputs":[{"name":"","type":"bool","internalType":"bool"}],"stateMutability":"view"},{"type":"function","name":"proxiableUUID","inputs":[],"outputs":[{"name":"","type":"bytes32","internalType":"bytes32"}],"stateMutability":"view"},{"type":"function","name":"renounceRole","inputs":[{"name":"role","type":"bytes32","internalType":"bytes32"},{"name":"callerConfirmation","type":"address","internalType":"address"}],"outputs":[],"stateMutability":"nonpayable"},{"type":"function","name":"revokeRole","inputs":[{"name":"role","type":"bytes32","internalType":"bytes32"},{"name":"account","type":"address","internalType":"address"}],"outputs":[],"stateMutability":"nonpayable"},{"type":"function","name":"setImpl","inputs":[{"name":"_new","type":"address","internalType":"address"}],"outputs":[],"stateMutability":"nonpayable"},{"type":"function","name":"supportsInterface","inputs":[{"name":"interfaceId","type":"bytes4","internalType":"bytes4"}],"outputs":[{"name":"","type":"bool","internalType":"bool"}],"stateMutability":"view"},{"type":"function","name":"unpause","inputs":[],"outputs":[],"stateMutability":"nonpayable"},{"type":"function","name":"upgradeToAndCall","inputs":[{"name":"newImplementation","type":"address","internalType":"address"},{"name":"data","type":"bytes","internalType":"bytes"}],"outputs":[],"stateMutability":"payable"},{"type":"event","name":"CompanyDeployed","inputs":[{"name":"id","type":"uint256","indexed":true,"internalType":"uint256"},{"name":"proxy","type":"address","indexed":true,"internalType":"address"},{"name":"owner","type":"address","indexed":true,"internalType":"address"},{"name":"companyType","type":"uint8","indexed":false,"internalType":"enum ProplexCompany.CompanyType"},{"name":"name","type":"bytes32","indexed":false,"internalType":"bytes32"},{"name":"jurisdiction","type":"bytes32","indexed":false,"internalType":"bytes32"}],"anonymous":false},{"type":"event","name":"ImplChanged","inputs":[{"name":"oldImpl","type":"address","indexed":true,"internalType":"address"},{"name":"newImpl","type":"address","indexed":true,"internalType":"address"}],"anonymous":false},{"type":"event","name":"Initialized","inputs":[{"name":"version","type":"uint64","indexed":false,"internalType":"uint64"}],"anonymous":false},{"type":"event","name":"Paused","inputs":[{"name":"account","type":"address","indexed":false,"internalType":"address"}],"anonymous":false},{"type":"event","name":"RoleAdminChanged","inputs":[{"name":"role","type":"bytes32","indexed":true,"internalType":"bytes32"},{"name":"previousAdminRole","type":"bytes32","indexed":true,"internalType":"bytes32"},{"name":"newAdminRole","type":"bytes32","indexed":true,"internalType":"bytes32"}],"anonymous":false},{"type":"event","name":"RoleGranted","inputs":[{"name":"role","type":"bytes32","indexed":true,"internalType":"bytes32"},{"name":"account","type":"address","indexed":true,"internalType":"address"},{"name":"sender","type":"address","indexed":true,"internalType":"address"}],"anonymous":false},{"type":"event","name":"RoleRevoked","inputs":[{"name":"role","type":"bytes32","indexed":true,"internalType":"bytes32"},{"name":"account","type":"address","indexed":true,"internalType":"address"},{"name":"sender","type":"address","indexed":true,"internalType":"address"}],"anonymous":false},{"type":"event","name":"Unpaused","inputs":[{"name":"account","type":"address","indexed":false,"internalType":"address"}],"anonymous":false},{"type":"event","name":"Upgraded","inputs":[{"name":"implementation","type":"address","indexed":true,"internalType":"address"}],"anonymous":false},{"type":"error","name":"AccessControlBadConfirmation","inputs":[]},{"type":"error","name":"AccessControlUnauthorizedAccount","inputs":[{"name":"account","type":"address","internalType":"address"},{"name":"neededRole","type":"bytes32","internalType":"bytes32"}]},{"type":"error","name":"AddressEmptyCode","inputs":[{"name":"target","type":"address","internalType":"address"}]},{"type":"error","name":"BadAddress","inputs":[]},{"type":"error","name":"BadInput","inputs":[]},{"type":"error","name":"BadLength","inputs":[]},{"type":"error","name":"ERC1967InvalidImplementation","inputs":[{"name":"implementation","type":"address","internalType":"address"}]},{"type":"error","name":"ERC1967NonPayable","inputs":[]},{"type":"error","name":"EnforcedPause","inputs":[]},{"type":"error","name":"ExpectedPause","inputs":[]},{"type":"error","name":"FailedCall","inputs":[]},{"type":"error","name":"FailedDeployment","inputs":[]},{"type":"error","name":"InsufficientBalance","inputs":[{"name":"balance","type":"uint256","internalType":"uint256"},{"name":"needed","type":"uint256","internalType":"uint256"}]},{"type":"error","name":"InvalidInitialization","inputs":[]},{"type":"error","name":"NotInitializing","inputs":[]},{"type":"error","name":"ReentrancyGuardReentrantCall","inputs":[]},{"type":"error","name":"UUPSUnauthorizedCallContext","inputs":[]},{"type":"error","name":"UUPSUnsupportedProxiableUUID","inputs":[{"name":"slot","type":"bytes32","internalType":"bytes32"}]}],"bytecode":{"object":"0x60a06040523060805234801561001457600080fd5b5060805161167961003e60003960008181610cec01528181610d150152610e9601526116796000f3fe60806040526004361061014b5760003560e01c80638456cb59116100b6578063b98ba8591161006f578063b98ba859146103e2578063c4d66de814610402578063d487c11914610422578063d547741f1461044f578063fd5c17621461046f578063ffa1ad741461048f57600080fd5b80638456cb59146102ec57806391d14854146103015780639244d926146103215780639e899ff31461036f578063a217fddf1461038f578063ad3cb1cc146103a457600080fd5b80634ededc64116101085780634ededc64146102475780634f1ef2861461025d57806352d1902d146102705780635c975abb14610285578063691bd2ae146102aa57806375b238fc146102ca57600080fd5b806301ffc9a7146101505780630c97047f14610185578063248a9ca3146101c25780632f2ff15d146101f057806336568abe146102125780633f4ba83a14610232575b600080fd5b34801561015c57600080fd5b5061017061016b36600461127b565b6104c0565b60405190151581526020015b60405180910390f35b34801561019157600080fd5b506101a56101a03660046112a5565b6104f7565b604080519283526001600160a01b0390911660208301520161017c565b3480156101ce57600080fd5b506101e26101dd3660046112de565b61069c565b60405190815260200161017c565b3480156101fc57600080fd5b5061021061020b366004611313565b6106be565b005b34801561021e57600080fd5b5061021061022d366004611313565b6106e0565b34801561023e57600080fd5b50610210610718565b34801561025357600080fd5b506101e260025481565b61021061026b366004611355565b61073b565b34801561027c57600080fd5b506101e261075a565b34801561029157600080fd5b506000805160206116048339815191525460ff16610170565b3480156102b657600080fd5b506102106102c5366004611417565b610777565b3480156102d657600080fd5b506101e260008051602061162483398151915281565b3480156102f857600080fd5b50610210610817565b34801561030d57600080fd5b5061017061031c366004611313565b610837565b34801561032d57600080fd5b5061035761033c3660046112de565b6003602052600090815260409020546001600160a01b031681565b6040516001600160a01b03909116815260200161017c565b34801561037b57600080fd5b50600054610357906001600160a01b031681565b34801561039b57600080fd5b506101e2600081565b3480156103b057600080fd5b506103d5604051806040016040528060058152602001640352e302e360dc1b81525081565b60405161017c9190611456565b3480156103ee57600080fd5b506101e26103fd366004611489565b61086f565b34801561040e57600080fd5b5061021061041d366004611417565b6108a0565b34801561042e57600080fd5b5061044261043d366004611417565b610a1e565b60405161017c91906114b3565b34801561045b57600080fd5b5061021061046a366004611313565b610a8a565b34801561047b57600080fd5b50600154610357906001600160a01b031681565b34801561049b57600080fd5b506103d5604051806040016040528060058152602001640312e302e360dc1b81525081565b60006001600160e01b03198216637965db0b60e01b14806104f157506301ffc9a760e01b6001600160e01b03198316145b92915050565b60008060008051602061162483398151915261051281610aa6565b61051a610ab0565b610522610ae3565b84158061052d575083155b1561054b57604051632bb9acf760e01b815260040160405180910390fd5b60026000815461055a906114f7565b9182905550600154909350610577906001600160a01b0316610b2d565b60405163342f31cf60e21b81529092506001600160a01b0383169063d0bcc73c906105ac9033908a908a908a90600401611540565b600060405180830381600087803b1580156105c657600080fd5b505af11580156105da573d6000803e3d6000fd5b505050600084815260036020908152604080832080546001600160a01b0319166001600160a01b0388169081179091553380855260048452828520805460018101825590865293909420909201879055519192509085907fc5c9e37c4189a87329bd184013851bf5ad17de979598bc90bcb2e1aee0228d0990610662908b908b908b9061156f565b60405180910390a461069360017f9b779b17422d0df92223018b32b4d1fa46e071723d6817e2486d003becc55f0055565b50935093915050565b60009081526000805160206115e4833981519152602052604090206001015490565b6106c78261069c565b6106d081610aa6565b6106da8383610b60565b50505050565b6001600160a01b03811633146107095760405163334bd91960e11b815260040160405180910390fd5b6107138282610c05565b505050565b60008051602061162483398151915261073081610aa6565b610738610c81565b50565b610743610ce1565b61074c82610d86565b6107568282610dc9565b5050565b6000610764610e8b565b506000805160206115c483398151915290565b60008051602061162483398151915261078f81610aa6565b816001600160a01b03163b6000036107ba576040516332691b5760e01b815260040160405180910390fd5b6001546040516001600160a01b038085169216907faad46b89531ed10d02d926f4d6bfe234a6126e3fffc02d3b07167575f9c1433790600090a350600180546001600160a01b0319166001600160a01b0392909216919091179055565b60008051602061162483398151915261082f81610aa6565b610738610ed4565b60009182526000805160206115e4833981519152602090815260408084206001600160a01b0393909316845291905290205460ff1690565b6004602052816000526040600020818154811061088b57600080fd5b90600052602060002001600091509150505481565b60006108aa610f1d565b805490915060ff600160401b820416159067ffffffffffffffff166000811580156108d25750825b905060008267ffffffffffffffff1660011480156108ef5750303b155b9050811580156108fd575080155b1561091b5760405163f92ee8a960e01b815260040160405180910390fd5b845467ffffffffffffffff19166001178555831561094557845460ff60401b1916600160401b1785555b856001600160a01b03163b600003610970576040516332691b5760e01b815260040160405180910390fd5b610978610f46565b610980610f46565b610988610f46565b610990610f4e565b600180546001600160a01b0319166001600160a01b0388161790556109b6600033610b60565b506109cf60008051602061162483398151915233610b60565b508315610a1657845460ff60401b19168555604051600181527fc7f505b2f371ae2175ee4913f4499e1f2633a7b5936321eed1cdaeb6115181d29060200160405180910390a15b505050505050565b6001600160a01b038116600090815260046020908152604091829020805483518184028101840190945280845260609392830182828015610a7e57602002820191906000526020600020905b815481526020019060010190808311610a6a575b50505050509050919050565b610a938261069c565b610a9c81610aa6565b6106da8383610c05565b6107388133610f5e565b6000805160206116048339815191525460ff1615610ae15760405163d93c066560e01b815260040160405180910390fd5b565b7f9b779b17422d0df92223018b32b4d1fa46e071723d6817e2486d003becc55f00805460011901610b2757604051633ee5aeb560e01b815260040160405180910390fd5b60029055565b60006104f1826000610f97565b60017f9b779b17422d0df92223018b32b4d1fa46e071723d6817e2486d003becc55f0055565b60006000805160206115e4833981519152610b7b8484610837565b610bfb576000848152602082815260408083206001600160a01b03871684529091529020805460ff19166001179055610bb13390565b6001600160a01b0316836001600160a01b0316857f2f8788117e7eff1d82e926ec794901d17c78024a50270940304540a733656f0d60405160405180910390a460019150506104f1565b60009150506104f1565b60006000805160206115e4833981519152610c208484610837565b15610bfb576000848152602082815260408083206001600160a01b0387168085529252808320805460ff1916905551339287917ff6391f5c32d9c69d2a47ea670b442974b53935d1edc7fd64eb21e047a839171b9190a460019150506104f1565b610c8961102d565b600080516020611604833981519152805460ff191681557f5db9ee0a495bf2e6ff9c91a7834c1ba4fdd244a5e8aa4e537bd38aeae4b073aa335b6040516001600160a01b03909116815260200160405180910390a150565b306001600160a01b037f0000000000000000000000000000000000000000000000000000000000000000161480610d6857507f00000000000000000000000000000000000000000000000000000000000000006001600160a01b0316610d5c6000805160206115c4833981519152546001600160a01b031690565b6001600160a01b031614155b15610ae15760405163703e46dd60e11b815260040160405180910390fd5b600080516020611624833981519152610d9e81610aa6565b816001600160a01b03163b600003610756576040516332691b5760e01b815260040160405180910390fd5b816001600160a01b03166352d1902d6040518163ffffffff1660e01b8152600401602060405180830381865afa925050508015610e23575060408051601f3d908101601f19168201909252610e209181019061158e565b60015b610e5057604051634c9c8ce360e01b81526001600160a01b03831660048201526024015b60405180910390fd5b6000805160206115c48339815191528114610e8157604051632a87526960e21b815260048101829052602401610e47565b610713838361105d565b306001600160a01b037f00000000000000000000000000000000000000000000000000000000000000001614610ae15760405163703e46dd60e11b815260040160405180910390fd5b610edc610ab0565b600080516020611604833981519152805460ff191660011781557f62e78cea01bee320cd4e420270b5ea74000d11b0c9f74754ebdbfc544b05a25833610cc3565b6000807ff0c57e16840df040f15088dc2f81fe391c3923bec73e23a9662efc9c229c6a006104f1565b610ae16110b3565b610f566110b3565b610ae16110d8565b610f688282610837565b6107565760405163e2517d3f60e01b81526001600160a01b038216600482015260248101839052604401610e47565b600081471015610fc35760405163cf47918160e01b815247600482015260248101839052604401610e47565b763d602d80600a3d3981f3363d3d373d3d3d363d730000008360601b60e81c176000526e5af43d82803e903d91602b57fd5bf38360781b176020526037600983f090506001600160a01b0381166104f15760405163b06ebf3d60e01b815260040160405180910390fd5b6000805160206116048339815191525460ff16610ae157604051638dfc202b60e01b815260040160405180910390fd5b611066826110e0565b6040516001600160a01b038316907fbc7cd75a20ee27fd9adebab32041f755214dbc6bffa90cc0225b39da2e5c2d3b90600090a28051156110ab576107138282611145565b6107566111bb565b6110bb6111da565b610ae157604051631afcd79f60e31b815260040160405180910390fd5b610b3a6110b3565b806001600160a01b03163b60000361111657604051634c9c8ce360e01b81526001600160a01b0382166004820152602401610e47565b6000805160206115c483398151915280546001600160a01b0319166001600160a01b0392909216919091179055565b6060600080846001600160a01b03168460405161116291906115a7565b600060405180830381855af49150503d806000811461119d576040519150601f19603f3d011682016040523d82523d6000602084013e6111a2565b606091505b50915091506111b28583836111f4565b95945050505050565b3415610ae15760405163b398979f60e01b815260040160405180910390fd5b60006111e4610f1d565b54600160401b900460ff16919050565b6060826112095761120482611253565b61124c565b815115801561122057506001600160a01b0384163b155b1561124957604051639996b31560e01b81526001600160a01b0385166004820152602401610e47565b50805b9392505050565b80511561126257805160208201fd5b60405163d6bda27560e01b815260040160405180910390fd5b60006020828403121561128d57600080fd5b81356001600160e01b03198116811461124c57600080fd5b6000806000606084860312156112ba57600080fd5b8335600681106112c957600080fd5b95602085013595506040909401359392505050565b6000602082840312156112f057600080fd5b5035919050565b80356001600160a01b038116811461130e57600080fd5b919050565b6000806040838503121561132657600080fd5b82359150611336602084016112f7565b90509250929050565b634e487b7160e01b600052604160045260246000fd5b6000806040838503121561136857600080fd5b611371836112f7565b9150602083013567ffffffffffffffff8082111561138e57600080fd5b818501915085601f8301126113a257600080fd5b8135818111156113b4576113b461133f565b604051601f8201601f19908116603f011681019083821181831017156113dc576113dc61133f565b816040528281528860208487010111156113f557600080fd5b8260208601602083013760006020848301015280955050505050509250929050565b60006020828403121561142957600080fd5b61124c826112f7565b60005b8381101561144d578181015183820152602001611435565b50506000910152565b6020815260008251806020840152611475816040850160208701611432565b601f01601f19169190910160400192915050565b6000806040838503121561149c57600080fd5b6114a5836112f7565b946020939093013593505050565b6020808252825182820181905260009190848201906040850190845b818110156114eb578351835292840192918401916001016114cf565b50909695505050505050565b60006001820161151757634e487b7160e01b600052601160045260246000fd5b5060010190565b6006811061153c57634e487b7160e01b600052602160045260246000fd5b9052565b6001600160a01b03851681526080810161155d602083018661151e565b60408201939093526060015292915050565b6060810161157d828661151e565b602082019390935260400152919050565b6000602082840312156115a057600080fd5b5051919050565b600082516115b9818460208701611432565b919091019291505056fe360894a13ba1a3210667c828492db98dca3e2076cc3735a920a3ca505d382bbc02dd7bc7dec4dceedda775e58dd541e08a116c6c53815c0bd028192f7b626800cd5ed15c6e187e77e9aee88184c21f4f2182ab5827cb3b7e07fbedcd63f03300a49807205ce4d355092ef5a8a18f56e8913cf4a201fbe287825b095693c21775a26469706673582212201738bc2ee1e36a6e673db1b7fe07794b2d365949f8a541e0998f86a010647c3264736f6c63430008180033","linkReferences":{}},"methodIdentifiers":{"ADMIN_ROLE()":"75b238fc","DEFAULT_ADMIN_ROLE()":"a217fddf","ProplexRegistry()":"9e899ff3","UPGRADE_INTERFACE_VERSION()":"ad3cb1cc","VERSION()":"ffa1ad74","companiesOf(address)":"d487c119","companyAt(uint256)":"9244d926","companyCounter()":"4ededc64","companyImpl()":"fd5c1762","deployCompany(uint8,bytes32,bytes32)":"0c97047f","getRoleAdmin(bytes32)":"248a9ca3","grantRole(bytes32,address)":"2f2ff15d","hasRole(bytes32,address)":"91d14854","initialize(address)":"c4d66de8","ownerIds(address,uint256)":"b98ba859","pause()":"8456cb59","paused()":"5c975abb","proxiableUUID()":"52d1902d","renounceRole(bytes32,address)":"36568abe","revokeRole(bytes32,address)":"d547741f","setImpl(address)":"691bd2ae","supportsInterface(bytes4)":"01ffc9a7","unpause()":"3f4ba83a","upgradeToAndCall(address,bytes)":"4f1ef286"},"id":79}