{"abi":[{"type":"function","name":"CID","inputs":[],"outputs":[{"name":"","type":"bytes32","internalType":"bytes32"}],"stateMutability":"view"},{"type":"function","name":"JURISDICTION","inputs":[],"outputs":[{"name":"","type":"bytes32","internalType":"bytes32"}],"stateMutability":"view"},{"type":"function","name":"NAME","inputs":[],"outputs":[{"name":"","type":"bytes32","internalType":"bytes32"}],"stateMutability":"view"},{"type":"function","name":"OWNER","inputs":[],"outputs":[{"name":"","type":"address","internalType":"address"}],"stateMutability":"view"},{"type":"function","name":"TYPE","inputs":[],"outputs":[{"name":"","type":"uint8","internalType":"enum ProplexCompany.CompanyType"}],"stateMutability":"view"},{"type":"function","name":"details","inputs":[],"outputs":[{"name":"owner","type":"address","internalType":"address"},{"name":"companyType","type":"uint8","internalType":"enum ProplexCompany.CompanyType"},{"name":"name","type":"bytes32","internalType":"bytes32"},{"name":"jurisdiction","type":"bytes32","internalType":"bytes32"}],"stateMutability":"view"},{"type":"function","name":"initialize","inputs":[{"name":"owner_","type":"address","internalType":"address"},{"name":"type_","type":"uint8","internalType":"enum ProplexCompany.CompanyType"},{"name":"name_","type":"bytes32","internalType":"bytes32"},{"name":"jurisdiction_","type":"bytes32","internalType":"bytes32"}],"outputs":[],"stateMutability":"nonpayable"},{"type":"function","name":"supportsInterface","inputs":[{"name":"interfaceId","type":"bytes4","internalType":"bytes4"}],"outputs":[{"name":"","type":"bool","internalType":"bool"}],"stateMutability":"view"},{"type":"event","name":"Deployed","inputs":[{"name":"owner","type":"address","indexed":true,"internalType":"address"},{"name":"companyType","type":"uint8","indexed":true,"internalType":"enum ProplexCompany.CompanyType"},{"name":"name","type":"bytes32","indexed":false,"internalType":"bytes32"},{"name":"jurisdiction","type":"bytes32","indexed":false,"internalType":"bytes32"}],"anonymous":false},{"type":"event","name":"Initialized","inputs":[{"name":"version","type":"uint64","indexed":false,"internalType":"uint64"}],"anonymous":false},{"type":"error","name":"InvalidInitialization","inputs":[]},{"type":"error","name":"NotInitializing","inputs":[]}],"bytecode":{"object":"0x608060405234801561001057600080fd5b50610489806100206000396000f3fe608060405234801561001057600080fd5b50600436106100885760003560e01c8063a3f4df7e1161005b578063a3f4df7e1461012c578063bb24fe8a14610135578063c098004c14610156578063d0bcc73c1461015f57600080fd5b806301ffc9a71461008d578063117803e3146100b5578063565974d3146100e057806381597f1214610115575b600080fd5b6100a061009b366004610357565b610174565b60405190151581526020015b60405180910390f35b6000546100c8906001600160a01b031681565b6040516001600160a01b0390911681526020016100ac565b6101056000546002546003546001600160a01b03831693600160a01b90930460ff1692565b6040516100ac94939291906103c0565b61011e60035481565b6040519081526020016100ac565b61011e60025481565b60005461014990600160a01b900460ff1681565b6040516100ac91906103ef565b61011e60045481565b61017261016d3660046103fd565b610191565b005b60006301ffc9a760e01b6001600160e01b03198316145b92915050565b600061019b61032e565b805490915060ff600160401b820416159067ffffffffffffffff166000811580156101c35750825b905060008267ffffffffffffffff1660011480156101e05750303b155b9050811580156101ee575080155b1561020c5760405163f92ee8a960e01b815260040160405180910390fd5b845467ffffffffffffffff19166001178555831561023657845460ff60401b1916600160401b1785555b600080546001600160a01b038b166001600160a01b03198216811783558a92916001600160a81b03191617600160a01b83600581111561027857610278610388565b02179055506002879055600386905587600581111561029957610299610388565b60408051898152602081018990526001600160a01b038c16917fd66f8aa705c59e60858e2ed6343e794de756783a14333e98f1e6b2c3960701c2910160405180910390a3831561032357845460ff60401b19168555604051600181527fc7f505b2f371ae2175ee4913f4499e1f2633a7b5936321eed1cdaeb6115181d29060200160405180910390a15b505050505050505050565b6000807ff0c57e16840df040f15088dc2f81fe391c3923bec73e23a9662efc9c229c6a0061018b565b60006020828403121561036957600080fd5b81356001600160e01b03198116811461038157600080fd5b9392505050565b634e487b7160e01b600052602160045260246000fd5b600681106103bc57634e487b7160e01b600052602160045260246000fd5b9052565b6001600160a01b0385168152608081016103dd602083018661039e565b60408201939093526060015292915050565b6020810161018b828461039e565b6000806000806080858703121561041357600080fd5b84356001600160a01b038116811461042a57600080fd5b935060208501356006811061043e57600080fd5b9396939550505050604082013591606001359056fea2646970667358221220503169eee010704784f95bea78ac43d1c4f0e2fc2ad14e6212e3d4281d701be464736f6c63430008180033","linkReferences":{}},"methodIdentifiers":{"CID()":"c098004c","JURISDICTION()":"81597f12","NAME()":"a3f4df7e","OWNER()":"117803e3","TYPE()":"bb24fe8a","details()":"565974d3","initialize(address,uint8,bytes32,bytes32)":"d0bcc73c","supportsInterface(bytes4)":"01ffc9a7"},"id":78}